{
	"Challenge_03_Sender/Sender.sol": {
		"Sender": {
			"abi": [
				{
					"inputs": [],
					"stateMutability": "nonpayable",
					"type": "constructor"
				},
				{
					"anonymous": false,
					"inputs": [
						{
							"indexed": false,
							"internalType": "uint256",
							"name": "count",
							"type": "uint256"
						}
					],
					"name": "BatchEthSent",
					"type": "event"
				},
				{
					"anonymous": false,
					"inputs": [
						{
							"indexed": true,
							"internalType": "address",
							"name": "token",
							"type": "address"
						},
						{
							"indexed": false,
							"internalType": "uint256",
							"name": "count",
							"type": "uint256"
						}
					],
					"name": "BatchTokenSent",
					"type": "event"
				},
				{
					"anonymous": false,
					"inputs": [
						{
							"indexed": true,
							"internalType": "address",
							"name": "to",
							"type": "address"
						},
						{
							"indexed": false,
							"internalType": "uint256",
							"name": "amount",
							"type": "uint256"
						}
					],
					"name": "EthSent",
					"type": "event"
				},
				{
					"anonymous": false,
					"inputs": [
						{
							"indexed": false,
							"internalType": "bool",
							"name": "status",
							"type": "bool"
						}
					],
					"name": "Paused",
					"type": "event"
				},
				{
					"anonymous": false,
					"inputs": [
						{
							"indexed": true,
							"internalType": "address",
							"name": "token",
							"type": "address"
						},
						{
							"indexed": true,
							"internalType": "address",
							"name": "to",
							"type": "address"
						},
						{
							"indexed": false,
							"internalType": "uint256",
							"name": "amount",
							"type": "uint256"
						}
					],
					"name": "TokenSent",
					"type": "event"
				},
				{
					"anonymous": false,
					"inputs": [
						{
							"indexed": true,
							"internalType": "address",
							"name": "owner",
							"type": "address"
						},
						{
							"indexed": false,
							"internalType": "uint256",
							"name": "amount",
							"type": "uint256"
						}
					],
					"name": "Withdraw",
					"type": "event"
				},
				{
					"inputs": [
						{
							"internalType": "address payable[]",
							"name": "_recipients",
							"type": "address[]"
						},
						{
							"internalType": "uint256[]",
							"name": "_amounts",
							"type": "uint256[]"
						}
					],
					"name": "batchSendETH",
					"outputs": [],
					"stateMutability": "payable",
					"type": "function"
				},
				{
					"inputs": [
						{
							"internalType": "address",
							"name": "token",
							"type": "address"
						},
						{
							"internalType": "address[]",
							"name": "recipients",
							"type": "address[]"
						},
						{
							"internalType": "uint256[]",
							"name": "amounts",
							"type": "uint256[]"
						}
					],
					"name": "batchSendToken",
					"outputs": [],
					"stateMutability": "nonpayable",
					"type": "function"
				},
				{
					"inputs": [],
					"name": "contractBalance",
					"outputs": [
						{
							"internalType": "uint256",
							"name": "",
							"type": "uint256"
						}
					],
					"stateMutability": "view",
					"type": "function"
				},
				{
					"inputs": [],
					"name": "owner",
					"outputs": [
						{
							"internalType": "address",
							"name": "",
							"type": "address"
						}
					],
					"stateMutability": "view",
					"type": "function"
				},
				{
					"inputs": [],
					"name": "paused",
					"outputs": [
						{
							"internalType": "bool",
							"name": "",
							"type": "bool"
						}
					],
					"stateMutability": "view",
					"type": "function"
				},
				{
					"inputs": [
						{
							"internalType": "address payable",
							"name": "_to",
							"type": "address"
						}
					],
					"name": "sendETH",
					"outputs": [],
					"stateMutability": "payable",
					"type": "function"
				},
				{
					"inputs": [
						{
							"internalType": "address",
							"name": "token",
							"type": "address"
						},
						{
							"internalType": "address",
							"name": "to",
							"type": "address"
						},
						{
							"internalType": "uint256",
							"name": "amount",
							"type": "uint256"
						}
					],
					"name": "sendToken",
					"outputs": [],
					"stateMutability": "nonpayable",
					"type": "function"
				},
				{
					"inputs": [
						{
							"internalType": "bool",
							"name": "_paused",
							"type": "bool"
						}
					],
					"name": "setPaused",
					"outputs": [],
					"stateMutability": "nonpayable",
					"type": "function"
				},
				{
					"inputs": [
						{
							"internalType": "uint256",
							"name": "amount",
							"type": "uint256"
						}
					],
					"name": "withdraw",
					"outputs": [],
					"stateMutability": "nonpayable",
					"type": "function"
				},
				{
					"stateMutability": "payable",
					"type": "receive"
				}
			],
			"devdoc": {
				"kind": "dev",
				"methods": {},
				"version": 1
			},
			"evm": {
				"assembly": "    /* \"Challenge_03_Sender/Sender.sol\":364:4683  contract Sender {... */\n  mstore(0x40, 0x80)\n    /* \"Challenge_03_Sender/Sender.sol\":974:1025  constructor() {... */\n  callvalue\n  dup1\n  iszero\n  tag_1\n  jumpi\n  0x00\n  dup1\n  revert\ntag_1:\n  pop\n    /* \"Challenge_03_Sender/Sender.sol\":1007:1017  msg.sender */\n  caller\n    /* \"Challenge_03_Sender/Sender.sol\":999:1004  owner */\n  0x00\n  dup1\n    /* \"Challenge_03_Sender/Sender.sol\":999:1017  owner = msg.sender */\n  0x0100\n  exp\n  dup2\n  sload\n  dup2\n  0xffffffffffffffffffffffffffffffffffffffff\n  mul\n  not\n  and\n  swap1\n  dup4\n  0xffffffffffffffffffffffffffffffffffffffff\n  and\n  mul\n  or\n  swap1\n  sstore\n  pop\n    /* \"Challenge_03_Sender/Sender.sol\":364:4683  contract Sender {... */\n  dataSize(sub_0)\n  dup1\n  dataOffset(sub_0)\n  0x00\n  codecopy\n  0x00\n  return\nstop\n\nsub_0: assembly {\n        /* \"Challenge_03_Sender/Sender.sol\":364:4683  contract Sender {... */\n      mstore(0x40, 0x80)\n      jumpi(tag_1, lt(calldatasize, 0x04))\n      shr(0xe0, calldataload(0x00))\n      dup1\n      0x2fdcfbd2\n      gt\n      tag_12\n      jumpi\n      dup1\n      0x2fdcfbd2\n      eq\n      tag_7\n      jumpi\n      dup1\n      0x5c975abb\n      eq\n      tag_8\n      jumpi\n      dup1\n      0x8b7afe2e\n      eq\n      tag_9\n      jumpi\n      dup1\n      0x8da5cb5b\n      eq\n      tag_10\n      jumpi\n      dup1\n      0xc76bd193\n      eq\n      tag_11\n      jumpi\n      jump(tag_2)\n    tag_12:\n      dup1\n      0x1560c8ab\n      eq\n      tag_3\n      jumpi\n      dup1\n      0x16c38b3c\n      eq\n      tag_4\n      jumpi\n      dup1\n      0x21b1e5f8\n      eq\n      tag_5\n      jumpi\n      dup1\n      0x2e1a7d4d\n      eq\n      tag_6\n      jumpi\n      jump(tag_2)\n    tag_1:\n      jumpi(tag_2, calldatasize)\n      stop\n    tag_2:\n      0x00\n      dup1\n      revert\n        /* \"Challenge_03_Sender/Sender.sol\":3321:3847  function batchSendToken(... */\n    tag_3:\n      callvalue\n      dup1\n      iszero\n      tag_15\n      jumpi\n      0x00\n      dup1\n      revert\n    tag_15:\n      pop\n      tag_16\n      0x04\n      dup1\n      calldatasize\n      sub\n      dup2\n      add\n      swap1\n      tag_17\n      swap2\n      swap1\n      tag_18\n      jump\t// in\n    tag_17:\n      tag_19\n      jump\t// in\n    tag_16:\n      stop\n        /* \"Challenge_03_Sender/Sender.sol\":1192:1310  function setPaused(bool _paused) external onlyOwner {... */\n    tag_4:\n      callvalue\n      dup1\n      iszero\n      tag_20\n      jumpi\n      0x00\n      dup1\n      revert\n    tag_20:\n      pop\n      tag_21\n      0x04\n      dup1\n      calldatasize\n      sub\n      dup2\n      add\n      swap1\n      tag_22\n      swap2\n      swap1\n      tag_23\n      jump\t// in\n    tag_22:\n      tag_24\n      jump\t// in\n    tag_21:\n      stop\n        /* \"Challenge_03_Sender/Sender.sol\":1472:1820  function sendETH(address payable _to) external payable notPaused {... */\n    tag_5:\n      tag_25\n      0x04\n      dup1\n      calldatasize\n      sub\n      dup2\n      add\n      swap1\n      tag_26\n      swap2\n      swap1\n      tag_27\n      jump\t// in\n    tag_26:\n      tag_28\n      jump\t// in\n    tag_25:\n      stop\n        /* \"Challenge_03_Sender/Sender.sol\":4027:4320  function withdraw(uint256 amount) external onlyOwner {... */\n    tag_6:\n      callvalue\n      dup1\n      iszero\n      tag_29\n      jumpi\n      0x00\n      dup1\n      revert\n    tag_29:\n      pop\n      tag_30\n      0x04\n      dup1\n      calldatasize\n      sub\n      dup2\n      add\n      swap1\n      tag_31\n      swap2\n      swap1\n      tag_32\n      jump\t// in\n    tag_31:\n      tag_33\n      jump\t// in\n    tag_30:\n      stop\n        /* \"Challenge_03_Sender/Sender.sol\":2835:3150  function sendToken(... */\n    tag_7:\n      callvalue\n      dup1\n      iszero\n      tag_34\n      jumpi\n      0x00\n      dup1\n      revert\n    tag_34:\n      pop\n      tag_35\n      0x04\n      dup1\n      calldatasize\n      sub\n      dup2\n      add\n      swap1\n      tag_36\n      swap2\n      swap1\n      tag_37\n      jump\t// in\n    tag_36:\n      tag_38\n      jump\t// in\n    tag_35:\n      stop\n        /* \"Challenge_03_Sender/Sender.sol\":414:432  bool public paused */\n    tag_8:\n      callvalue\n      dup1\n      iszero\n      tag_39\n      jumpi\n      0x00\n      dup1\n      revert\n    tag_39:\n      pop\n      tag_40\n      tag_41\n      jump\t// in\n    tag_40:\n      mload(0x40)\n      tag_42\n      swap2\n      swap1\n      tag_43\n      jump\t// in\n    tag_42:\n      mload(0x40)\n      dup1\n      swap2\n      sub\n      swap1\n      return\n        /* \"Challenge_03_Sender/Sender.sol\":4495:4601  function contractBalance() external view returns (uint256) {... */\n    tag_9:\n      callvalue\n      dup1\n      iszero\n      tag_44\n      jumpi\n      0x00\n      dup1\n      revert\n    tag_44:\n      pop\n      tag_45\n      tag_46\n      jump\t// in\n    tag_45:\n      mload(0x40)\n      tag_47\n      swap2\n      swap1\n      tag_48\n      jump\t// in\n    tag_47:\n      mload(0x40)\n      dup1\n      swap2\n      sub\n      swap1\n      return\n        /* \"Challenge_03_Sender/Sender.sol\":387:407  address public owner */\n    tag_10:\n      callvalue\n      dup1\n      iszero\n      tag_49\n      jumpi\n      0x00\n      dup1\n      revert\n    tag_49:\n      pop\n      tag_50\n      tag_51\n      jump\t// in\n    tag_50:\n      mload(0x40)\n      tag_52\n      swap2\n      swap1\n      tag_53\n      jump\t// in\n    tag_52:\n      mload(0x40)\n      dup1\n      swap2\n      sub\n      swap1\n      return\n        /* \"Challenge_03_Sender/Sender.sol\":1988:2670  function batchSendETH(... */\n    tag_11:\n      tag_54\n      0x04\n      dup1\n      calldatasize\n      sub\n      dup2\n      add\n      swap1\n      tag_55\n      swap2\n      swap1\n      tag_56\n      jump\t// in\n    tag_55:\n      tag_57\n      jump\t// in\n    tag_54:\n      stop\n        /* \"Challenge_03_Sender/Sender.sol\":3321:3847  function batchSendToken(... */\n    tag_19:\n        /* \"Challenge_03_Sender/Sender.sol\":919:925  paused */\n      0x00\n      0x14\n      swap1\n      sload\n      swap1\n      0x0100\n      exp\n      swap1\n      div\n      0xff\n      and\n        /* \"Challenge_03_Sender/Sender.sol\":918:925  !paused */\n      iszero\n        /* \"Challenge_03_Sender/Sender.sol\":910:946  require(!paused, \"Sender is paused\") */\n      tag_59\n      jumpi\n      mload(0x40)\n      0x08c379a000000000000000000000000000000000000000000000000000000000\n      dup2\n      mstore\n      0x04\n      add\n      tag_60\n      swap1\n      tag_61\n      jump\t// in\n    tag_60:\n      mload(0x40)\n      dup1\n      swap2\n      sub\n      swap1\n      revert\n    tag_59:\n        /* \"Challenge_03_Sender/Sender.sol\":831:836  owner */\n      0x00\n      dup1\n      sload\n      swap1\n      0x0100\n      exp\n      swap1\n      div\n      0xffffffffffffffffffffffffffffffffffffffff\n      and\n        /* \"Challenge_03_Sender/Sender.sol\":817:836  msg.sender == owner */\n      0xffffffffffffffffffffffffffffffffffffffff\n      and\n        /* \"Challenge_03_Sender/Sender.sol\":817:827  msg.sender */\n      caller\n        /* \"Challenge_03_Sender/Sender.sol\":817:836  msg.sender == owner */\n      0xffffffffffffffffffffffffffffffffffffffff\n      and\n      eq\n        /* \"Challenge_03_Sender/Sender.sol\":809:850  require(msg.sender == owner, \"Not owner\") */\n      tag_63\n      jumpi\n      mload(0x40)\n      0x08c379a000000000000000000000000000000000000000000000000000000000\n      dup2\n      mstore\n      0x04\n      add\n      tag_64\n      swap1\n      tag_65\n      jump\t// in\n    tag_64:\n      mload(0x40)\n      dup1\n      swap2\n      sub\n      swap1\n      revert\n    tag_63:\n        /* \"Challenge_03_Sender/Sender.sol\":3522:3529  amounts */\n      dup2\n      dup2\n        /* \"Challenge_03_Sender/Sender.sol\":3522:3536  amounts.length */\n      swap1\n      pop\n        /* \"Challenge_03_Sender/Sender.sol\":3501:3511  recipients */\n      dup5\n      dup5\n        /* \"Challenge_03_Sender/Sender.sol\":3501:3518  recipients.length */\n      swap1\n      pop\n        /* \"Challenge_03_Sender/Sender.sol\":3501:3536  recipients.length == amounts.length */\n      eq\n        /* \"Challenge_03_Sender/Sender.sol\":3493:3556  require(recipients.length == amounts.length, \"Length mismatch\") */\n      tag_67\n      jumpi\n      mload(0x40)\n      0x08c379a000000000000000000000000000000000000000000000000000000000\n      dup2\n      mstore\n      0x04\n      add\n      tag_68\n      swap1\n      tag_69\n      jump\t// in\n    tag_68:\n      mload(0x40)\n      dup1\n      swap2\n      sub\n      swap1\n      revert\n    tag_67:\n        /* \"Challenge_03_Sender/Sender.sol\":3574:3583  uint256 i */\n      0x00\n        /* \"Challenge_03_Sender/Sender.sol\":3569:3782  for (uint256 i = 0; i < recipients.length; i++) {... */\n    tag_70:\n        /* \"Challenge_03_Sender/Sender.sol\":3593:3603  recipients */\n      dup5\n      dup5\n        /* \"Challenge_03_Sender/Sender.sol\":3593:3610  recipients.length */\n      swap1\n      pop\n        /* \"Challenge_03_Sender/Sender.sol\":3589:3590  i */\n      dup2\n        /* \"Challenge_03_Sender/Sender.sol\":3589:3610  i < recipients.length */\n      lt\n        /* \"Challenge_03_Sender/Sender.sol\":3569:3782  for (uint256 i = 0; i < recipients.length; i++) {... */\n      iszero\n      tag_71\n      jumpi\n        /* \"Challenge_03_Sender/Sender.sol\":3665:3670  token */\n      dup6\n        /* \"Challenge_03_Sender/Sender.sol\":3658:3680  IERC20(token).transfer */\n      0xffffffffffffffffffffffffffffffffffffffff\n      and\n      0xa9059cbb\n        /* \"Challenge_03_Sender/Sender.sol\":3681:3691  recipients */\n      dup7\n      dup7\n        /* \"Challenge_03_Sender/Sender.sol\":3692:3693  i */\n      dup5\n        /* \"Challenge_03_Sender/Sender.sol\":3681:3694  recipients[i] */\n      dup2\n      dup2\n      lt\n      tag_73\n      jumpi\n      tag_74\n      tag_75\n      jump\t// in\n    tag_74:\n    tag_73:\n      swap1\n      pop\n      0x20\n      mul\n      add\n      0x20\n      dup2\n      add\n      swap1\n      tag_76\n      swap2\n      swap1\n      tag_77\n      jump\t// in\n    tag_76:\n        /* \"Challenge_03_Sender/Sender.sol\":3696:3703  amounts */\n      dup6\n      dup6\n        /* \"Challenge_03_Sender/Sender.sol\":3704:3705  i */\n      dup6\n        /* \"Challenge_03_Sender/Sender.sol\":3696:3706  amounts[i] */\n      dup2\n      dup2\n      lt\n      tag_78\n      jumpi\n      tag_79\n      tag_75\n      jump\t// in\n    tag_79:\n    tag_78:\n      swap1\n      pop\n      0x20\n      mul\n      add\n      calldataload\n        /* \"Challenge_03_Sender/Sender.sol\":3658:3707  IERC20(token).transfer(recipients[i], amounts[i]) */\n      mload(0x40)\n      dup4\n      0xffffffff\n      and\n      0xe0\n      shl\n      dup2\n      mstore\n      0x04\n      add\n      tag_80\n      swap3\n      swap2\n      swap1\n      tag_81\n      jump\t// in\n    tag_80:\n      0x20\n      mload(0x40)\n      dup1\n      dup4\n      sub\n      dup2\n      0x00\n      dup8\n      gas\n      call\n      iszero\n      dup1\n      iszero\n      tag_83\n      jumpi\n      returndatasize\n      0x00\n      dup1\n      returndatacopy\n      revert(0x00, returndatasize)\n    tag_83:\n      pop\n      pop\n      pop\n      pop\n      mload(0x40)\n      returndatasize\n      not(0x1f)\n      0x1f\n      dup3\n      add\n      and\n      dup3\n      add\n      dup1\n      0x40\n      mstore\n      pop\n      dup2\n      add\n      swap1\n      tag_84\n      swap2\n      swap1\n      tag_85\n      jump\t// in\n    tag_84:\n        /* \"Challenge_03_Sender/Sender.sol\":3632:3770  require(... */\n      tag_86\n      jumpi\n      mload(0x40)\n      0x08c379a000000000000000000000000000000000000000000000000000000000\n      dup2\n      mstore\n      0x04\n      add\n      tag_87\n      swap1\n      tag_88\n      jump\t// in\n    tag_87:\n      mload(0x40)\n      dup1\n      swap2\n      sub\n      swap1\n      revert\n    tag_86:\n        /* \"Challenge_03_Sender/Sender.sol\":3612:3615  i++ */\n      dup1\n      dup1\n      0x01\n      add\n      swap2\n      pop\n      pop\n        /* \"Challenge_03_Sender/Sender.sol\":3569:3782  for (uint256 i = 0; i < recipients.length; i++) {... */\n      jump(tag_70)\n    tag_71:\n      pop\n        /* \"Challenge_03_Sender/Sender.sol\":3814:3819  token */\n      dup5\n        /* \"Challenge_03_Sender/Sender.sol\":3799:3839  BatchTokenSent(token, recipients.length) */\n      0xffffffffffffffffffffffffffffffffffffffff\n      and\n      0xd564f04423cdb7294f24e81573156426d5c2638782db71fcf75f1ec2f5a07365\n        /* \"Challenge_03_Sender/Sender.sol\":3821:3831  recipients */\n      dup6\n      dup6\n        /* \"Challenge_03_Sender/Sender.sol\":3821:3838  recipients.length */\n      swap1\n      pop\n        /* \"Challenge_03_Sender/Sender.sol\":3799:3839  BatchTokenSent(token, recipients.length) */\n      mload(0x40)\n      tag_89\n      swap2\n      swap1\n      tag_48\n      jump\t// in\n    tag_89:\n      mload(0x40)\n      dup1\n      swap2\n      sub\n      swap1\n      log2\n        /* \"Challenge_03_Sender/Sender.sol\":3321:3847  function batchSendToken(... */\n      pop\n      pop\n      pop\n      pop\n      pop\n      jump\t// out\n        /* \"Challenge_03_Sender/Sender.sol\":1192:1310  function setPaused(bool _paused) external onlyOwner {... */\n    tag_24:\n        /* \"Challenge_03_Sender/Sender.sol\":831:836  owner */\n      0x00\n      dup1\n      sload\n      swap1\n      0x0100\n      exp\n      swap1\n      div\n      0xffffffffffffffffffffffffffffffffffffffff\n      and\n        /* \"Challenge_03_Sender/Sender.sol\":817:836  msg.sender == owner */\n      0xffffffffffffffffffffffffffffffffffffffff\n      and\n        /* \"Challenge_03_Sender/Sender.sol\":817:827  msg.sender */\n      caller\n        /* \"Challenge_03_Sender/Sender.sol\":817:836  msg.sender == owner */\n      0xffffffffffffffffffffffffffffffffffffffff\n      and\n      eq\n        /* \"Challenge_03_Sender/Sender.sol\":809:850  require(msg.sender == owner, \"Not owner\") */\n      tag_91\n      jumpi\n      mload(0x40)\n      0x08c379a000000000000000000000000000000000000000000000000000000000\n      dup2\n      mstore\n      0x04\n      add\n      tag_92\n      swap1\n      tag_65\n      jump\t// in\n    tag_92:\n      mload(0x40)\n      dup1\n      swap2\n      sub\n      swap1\n      revert\n    tag_91:\n        /* \"Challenge_03_Sender/Sender.sol\":1264:1271  _paused */\n      dup1\n        /* \"Challenge_03_Sender/Sender.sol\":1255:1261  paused */\n      0x00\n      0x14\n        /* \"Challenge_03_Sender/Sender.sol\":1255:1271  paused = _paused */\n      0x0100\n      exp\n      dup2\n      sload\n      dup2\n      0xff\n      mul\n      not\n      and\n      swap1\n      dup4\n      iszero\n      iszero\n      mul\n      or\n      swap1\n      sstore\n      pop\n        /* \"Challenge_03_Sender/Sender.sol\":1287:1302  Paused(_paused) */\n      0x0e2fb031ee032dc02d8011dc50b816eb450cf856abd8261680dac74f72165bd2\n        /* \"Challenge_03_Sender/Sender.sol\":1294:1301  _paused */\n      dup2\n        /* \"Challenge_03_Sender/Sender.sol\":1287:1302  Paused(_paused) */\n      mload(0x40)\n      tag_94\n      swap2\n      swap1\n      tag_43\n      jump\t// in\n    tag_94:\n      mload(0x40)\n      dup1\n      swap2\n      sub\n      swap1\n      log1\n        /* \"Challenge_03_Sender/Sender.sol\":1192:1310  function setPaused(bool _paused) external onlyOwner {... */\n      pop\n      jump\t// out\n        /* \"Challenge_03_Sender/Sender.sol\":1472:1820  function sendETH(address payable _to) external payable notPaused {... */\n    tag_28:\n        /* \"Challenge_03_Sender/Sender.sol\":919:925  paused */\n      0x00\n      0x14\n      swap1\n      sload\n      swap1\n      0x0100\n      exp\n      swap1\n      div\n      0xff\n      and\n        /* \"Challenge_03_Sender/Sender.sol\":918:925  !paused */\n      iszero\n        /* \"Challenge_03_Sender/Sender.sol\":910:946  require(!paused, \"Sender is paused\") */\n      tag_96\n      jumpi\n      mload(0x40)\n      0x08c379a000000000000000000000000000000000000000000000000000000000\n      dup2\n      mstore\n      0x04\n      add\n      tag_97\n      swap1\n      tag_61\n      jump\t// in\n    tag_97:\n      mload(0x40)\n      dup1\n      swap2\n      sub\n      swap1\n      revert\n    tag_96:\n        /* \"Challenge_03_Sender/Sender.sol\":1571:1572  0 */\n      0x00\n        /* \"Challenge_03_Sender/Sender.sol\":1556:1573  _to != address(0) */\n      0xffffffffffffffffffffffffffffffffffffffff\n      and\n        /* \"Challenge_03_Sender/Sender.sol\":1556:1559  _to */\n      dup2\n        /* \"Challenge_03_Sender/Sender.sol\":1556:1573  _to != address(0) */\n      0xffffffffffffffffffffffffffffffffffffffff\n      and\n      sub\n        /* \"Challenge_03_Sender/Sender.sol\":1548:1593  require(_to != address(0), \"Invalid address\") */\n      tag_99\n      jumpi\n      mload(0x40)\n      0x08c379a000000000000000000000000000000000000000000000000000000000\n      dup2\n      mstore\n      0x04\n      add\n      tag_100\n      swap1\n      tag_101\n      jump\t// in\n    tag_100:\n      mload(0x40)\n      dup1\n      swap2\n      sub\n      swap1\n      revert\n    tag_99:\n        /* \"Challenge_03_Sender/Sender.sol\":1624:1625  0 */\n      0x00\n        /* \"Challenge_03_Sender/Sender.sol\":1612:1621  msg.value */\n      callvalue\n        /* \"Challenge_03_Sender/Sender.sol\":1612:1625  msg.value > 0 */\n      gt\n        /* \"Challenge_03_Sender/Sender.sol\":1604:1659  require(msg.value > 0, \"Amount must be greater than 0\") */\n      tag_102\n      jumpi\n      mload(0x40)\n      0x08c379a000000000000000000000000000000000000000000000000000000000\n      dup2\n      mstore\n      0x04\n      add\n      tag_103\n      swap1\n      tag_104\n      jump\t// in\n    tag_103:\n      mload(0x40)\n      dup1\n      swap2\n      sub\n      swap1\n      revert\n    tag_102:\n        /* \"Challenge_03_Sender/Sender.sol\":1673:1685  bool success */\n      0x00\n        /* \"Challenge_03_Sender/Sender.sol\":1691:1694  _to */\n      dup2\n        /* \"Challenge_03_Sender/Sender.sol\":1691:1699  _to.call */\n      0xffffffffffffffffffffffffffffffffffffffff\n      and\n        /* \"Challenge_03_Sender/Sender.sol\":1707:1716  msg.value */\n      callvalue\n        /* \"Challenge_03_Sender/Sender.sol\":1691:1721  _to.call{value: msg.value}(\"\") */\n      mload(0x40)\n      tag_105\n      swap1\n      tag_106\n      jump\t// in\n    tag_105:\n      0x00\n      mload(0x40)\n      dup1\n      dup4\n      sub\n      dup2\n      dup6\n      dup8\n      gas\n      call\n      swap3\n      pop\n      pop\n      pop\n      returndatasize\n      dup1\n      0x00\n      dup2\n      eq\n      tag_109\n      jumpi\n      mload(0x40)\n      swap2\n      pop\n      and(add(returndatasize, 0x3f), not(0x1f))\n      dup3\n      add\n      0x40\n      mstore\n      returndatasize\n      dup3\n      mstore\n      returndatasize\n      0x00\n      0x20\n      dup5\n      add\n      returndatacopy\n      jump(tag_108)\n    tag_109:\n      0x60\n      swap2\n      pop\n    tag_108:\n      pop\n        /* \"Challenge_03_Sender/Sender.sol\":1672:1721  (bool success, ) = _to.call{value: msg.value}(\"\") */\n      pop\n      swap1\n      pop\n        /* \"Challenge_03_Sender/Sender.sol\":1740:1747  success */\n      dup1\n        /* \"Challenge_03_Sender/Sender.sol\":1732:1771  require(success, \"ETH transfer failed\") */\n      tag_110\n      jumpi\n      mload(0x40)\n      0x08c379a000000000000000000000000000000000000000000000000000000000\n      dup2\n      mstore\n      0x04\n      add\n      tag_111\n      swap1\n      tag_112\n      jump\t// in\n    tag_111:\n      mload(0x40)\n      dup1\n      swap2\n      sub\n      swap1\n      revert\n    tag_110:\n        /* \"Challenge_03_Sender/Sender.sol\":1797:1800  _to */\n      dup2\n        /* \"Challenge_03_Sender/Sender.sol\":1789:1812  EthSent(_to, msg.value) */\n      0xffffffffffffffffffffffffffffffffffffffff\n      and\n      0x78f5cdad99320ec2ba57132d7dffb1d125775c823239e60ff5e9300fd4ac898c\n        /* \"Challenge_03_Sender/Sender.sol\":1802:1811  msg.value */\n      callvalue\n        /* \"Challenge_03_Sender/Sender.sol\":1789:1812  EthSent(_to, msg.value) */\n      mload(0x40)\n      tag_113\n      swap2\n      swap1\n      tag_48\n      jump\t// in\n    tag_113:\n      mload(0x40)\n      dup1\n      swap2\n      sub\n      swap1\n      log2\n        /* \"Challenge_03_Sender/Sender.sol\":1537:1820  {... */\n      pop\n        /* \"Challenge_03_Sender/Sender.sol\":1472:1820  function sendETH(address payable _to) external payable notPaused {... */\n      pop\n      jump\t// out\n        /* \"Challenge_03_Sender/Sender.sol\":4027:4320  function withdraw(uint256 amount) external onlyOwner {... */\n    tag_33:\n        /* \"Challenge_03_Sender/Sender.sol\":831:836  owner */\n      0x00\n      dup1\n      sload\n      swap1\n      0x0100\n      exp\n      swap1\n      div\n      0xffffffffffffffffffffffffffffffffffffffff\n      and\n        /* \"Challenge_03_Sender/Sender.sol\":817:836  msg.sender == owner */\n      0xffffffffffffffffffffffffffffffffffffffff\n      and\n        /* \"Challenge_03_Sender/Sender.sol\":817:827  msg.sender */\n      caller\n        /* \"Challenge_03_Sender/Sender.sol\":817:836  msg.sender == owner */\n      0xffffffffffffffffffffffffffffffffffffffff\n      and\n      eq\n        /* \"Challenge_03_Sender/Sender.sol\":809:850  require(msg.sender == owner, \"Not owner\") */\n      tag_115\n      jumpi\n      mload(0x40)\n      0x08c379a000000000000000000000000000000000000000000000000000000000\n      dup2\n      mstore\n      0x04\n      add\n      tag_116\n      swap1\n      tag_65\n      jump\t// in\n    tag_116:\n      mload(0x40)\n      dup1\n      swap2\n      sub\n      swap1\n      revert\n    tag_115:\n        /* \"Challenge_03_Sender/Sender.sol\":4124:4130  amount */\n      dup1\n        /* \"Challenge_03_Sender/Sender.sol\":4099:4120  address(this).balance */\n      selfbalance\n        /* \"Challenge_03_Sender/Sender.sol\":4099:4130  address(this).balance >= amount */\n      lt\n      iszero\n        /* \"Challenge_03_Sender/Sender.sol\":4091:4155  require(address(this).balance >= amount, \"Insufficient balance\") */\n      tag_118\n      jumpi\n      mload(0x40)\n      0x08c379a000000000000000000000000000000000000000000000000000000000\n      dup2\n      mstore\n      0x04\n      add\n      tag_119\n      swap1\n      tag_120\n      jump\t// in\n    tag_119:\n      mload(0x40)\n      dup1\n      swap2\n      sub\n      swap1\n      revert\n    tag_118:\n        /* \"Challenge_03_Sender/Sender.sol\":4169:4181  bool success */\n      0x00\n        /* \"Challenge_03_Sender/Sender.sol\":4195:4200  owner */\n      dup1\n      0x00\n      swap1\n      sload\n      swap1\n      0x0100\n      exp\n      swap1\n      div\n      0xffffffffffffffffffffffffffffffffffffffff\n      and\n        /* \"Challenge_03_Sender/Sender.sol\":4187:4206  payable(owner).call */\n      0xffffffffffffffffffffffffffffffffffffffff\n      and\n        /* \"Challenge_03_Sender/Sender.sol\":4214:4220  amount */\n      dup3\n        /* \"Challenge_03_Sender/Sender.sol\":4187:4225  payable(owner).call{value: amount}(\"\") */\n      mload(0x40)\n      tag_121\n      swap1\n      tag_106\n      jump\t// in\n    tag_121:\n      0x00\n      mload(0x40)\n      dup1\n      dup4\n      sub\n      dup2\n      dup6\n      dup8\n      gas\n      call\n      swap3\n      pop\n      pop\n      pop\n      returndatasize\n      dup1\n      0x00\n      dup2\n      eq\n      tag_124\n      jumpi\n      mload(0x40)\n      swap2\n      pop\n      and(add(returndatasize, 0x3f), not(0x1f))\n      dup3\n      add\n      0x40\n      mstore\n      returndatasize\n      dup3\n      mstore\n      returndatasize\n      0x00\n      0x20\n      dup5\n      add\n      returndatacopy\n      jump(tag_123)\n    tag_124:\n      0x60\n      swap2\n      pop\n    tag_123:\n      pop\n        /* \"Challenge_03_Sender/Sender.sol\":4168:4225  (bool success, ) = payable(owner).call{value: amount}(\"\") */\n      pop\n      swap1\n      pop\n        /* \"Challenge_03_Sender/Sender.sol\":4244:4251  success */\n      dup1\n        /* \"Challenge_03_Sender/Sender.sol\":4236:4271  require(success, \"Withdraw failed\") */\n      tag_125\n      jumpi\n      mload(0x40)\n      0x08c379a000000000000000000000000000000000000000000000000000000000\n      dup2\n      mstore\n      0x04\n      add\n      tag_126\n      swap1\n      tag_127\n      jump\t// in\n    tag_126:\n      mload(0x40)\n      dup1\n      swap2\n      sub\n      swap1\n      revert\n    tag_125:\n        /* \"Challenge_03_Sender/Sender.sol\":4298:4303  owner */\n      0x00\n      dup1\n      sload\n      swap1\n      0x0100\n      exp\n      swap1\n      div\n      0xffffffffffffffffffffffffffffffffffffffff\n      and\n        /* \"Challenge_03_Sender/Sender.sol\":4289:4312  Withdraw(owner, amount) */\n      0xffffffffffffffffffffffffffffffffffffffff\n      and\n      0x884edad9ce6fa2440d8a54cc123490eb96d2768479d49ff9c7366125a9424364\n        /* \"Challenge_03_Sender/Sender.sol\":4305:4311  amount */\n      dup4\n        /* \"Challenge_03_Sender/Sender.sol\":4289:4312  Withdraw(owner, amount) */\n      mload(0x40)\n      tag_128\n      swap2\n      swap1\n      tag_48\n      jump\t// in\n    tag_128:\n      mload(0x40)\n      dup1\n      swap2\n      sub\n      swap1\n      log2\n        /* \"Challenge_03_Sender/Sender.sol\":4080:4320  {... */\n      pop\n        /* \"Challenge_03_Sender/Sender.sol\":4027:4320  function withdraw(uint256 amount) external onlyOwner {... */\n      pop\n      jump\t// out\n        /* \"Challenge_03_Sender/Sender.sol\":2835:3150  function sendToken(... */\n    tag_38:\n        /* \"Challenge_03_Sender/Sender.sol\":919:925  paused */\n      0x00\n      0x14\n      swap1\n      sload\n      swap1\n      0x0100\n      exp\n      swap1\n      div\n      0xff\n      and\n        /* \"Challenge_03_Sender/Sender.sol\":918:925  !paused */\n      iszero\n        /* \"Challenge_03_Sender/Sender.sol\":910:946  require(!paused, \"Sender is paused\") */\n      tag_130\n      jumpi\n      mload(0x40)\n      0x08c379a000000000000000000000000000000000000000000000000000000000\n      dup2\n      mstore\n      0x04\n      add\n      tag_131\n      swap1\n      tag_61\n      jump\t// in\n    tag_131:\n      mload(0x40)\n      dup1\n      swap2\n      sub\n      swap1\n      revert\n    tag_130:\n        /* \"Challenge_03_Sender/Sender.sol\":831:836  owner */\n      0x00\n      dup1\n      sload\n      swap1\n      0x0100\n      exp\n      swap1\n      div\n      0xffffffffffffffffffffffffffffffffffffffff\n      and\n        /* \"Challenge_03_Sender/Sender.sol\":817:836  msg.sender == owner */\n      0xffffffffffffffffffffffffffffffffffffffff\n      and\n        /* \"Challenge_03_Sender/Sender.sol\":817:827  msg.sender */\n      caller\n        /* \"Challenge_03_Sender/Sender.sol\":817:836  msg.sender == owner */\n      0xffffffffffffffffffffffffffffffffffffffff\n      and\n      eq\n        /* \"Challenge_03_Sender/Sender.sol\":809:850  require(msg.sender == owner, \"Not owner\") */\n      tag_133\n      jumpi\n      mload(0x40)\n      0x08c379a000000000000000000000000000000000000000000000000000000000\n      dup2\n      mstore\n      0x04\n      add\n      tag_134\n      swap1\n      tag_65\n      jump\t// in\n    tag_134:\n      mload(0x40)\n      dup1\n      swap2\n      sub\n      swap1\n      revert\n    tag_133:\n        /* \"Challenge_03_Sender/Sender.sol\":2993:2994  0 */\n      0x00\n        /* \"Challenge_03_Sender/Sender.sol\":2979:2995  to != address(0) */\n      0xffffffffffffffffffffffffffffffffffffffff\n      and\n        /* \"Challenge_03_Sender/Sender.sol\":2979:2981  to */\n      dup3\n        /* \"Challenge_03_Sender/Sender.sol\":2979:2995  to != address(0) */\n      0xffffffffffffffffffffffffffffffffffffffff\n      and\n      sub\n        /* \"Challenge_03_Sender/Sender.sol\":2971:3015  require(to != address(0), \"Invalid address\") */\n      tag_136\n      jumpi\n      mload(0x40)\n      0x08c379a000000000000000000000000000000000000000000000000000000000\n      dup2\n      mstore\n      0x04\n      add\n      tag_137\n      swap1\n      tag_101\n      jump\t// in\n    tag_137:\n      mload(0x40)\n      dup1\n      swap2\n      sub\n      swap1\n      revert\n    tag_136:\n        /* \"Challenge_03_Sender/Sender.sol\":3043:3048  token */\n      dup3\n        /* \"Challenge_03_Sender/Sender.sol\":3036:3058  IERC20(token).transfer */\n      0xffffffffffffffffffffffffffffffffffffffff\n      and\n      0xa9059cbb\n        /* \"Challenge_03_Sender/Sender.sol\":3059:3061  to */\n      dup4\n        /* \"Challenge_03_Sender/Sender.sol\":3063:3069  amount */\n      dup4\n        /* \"Challenge_03_Sender/Sender.sol\":3036:3070  IERC20(token).transfer(to, amount) */\n      mload(0x40)\n      dup4\n      0xffffffff\n      and\n      0xe0\n      shl\n      dup2\n      mstore\n      0x04\n      add\n      tag_138\n      swap3\n      swap2\n      swap1\n      tag_81\n      jump\t// in\n    tag_138:\n      0x20\n      mload(0x40)\n      dup1\n      dup4\n      sub\n      dup2\n      0x00\n      dup8\n      gas\n      call\n      iszero\n      dup1\n      iszero\n      tag_140\n      jumpi\n      returndatasize\n      0x00\n      dup1\n      returndatacopy\n      revert(0x00, returndatasize)\n    tag_140:\n      pop\n      pop\n      pop\n      pop\n      mload(0x40)\n      returndatasize\n      not(0x1f)\n      0x1f\n      dup3\n      add\n      and\n      dup3\n      add\n      dup1\n      0x40\n      mstore\n      pop\n      dup2\n      add\n      swap1\n      tag_141\n      swap2\n      swap1\n      tag_85\n      jump\t// in\n    tag_141:\n        /* \"Challenge_03_Sender/Sender.sol\":3028:3096  require(IERC20(token).transfer(to, amount), \"Token transfer failed\") */\n      tag_142\n      jumpi\n      mload(0x40)\n      0x08c379a000000000000000000000000000000000000000000000000000000000\n      dup2\n      mstore\n      0x04\n      add\n      tag_143\n      swap1\n      tag_144\n      jump\t// in\n    tag_143:\n      mload(0x40)\n      dup1\n      swap2\n      sub\n      swap1\n      revert\n    tag_142:\n        /* \"Challenge_03_Sender/Sender.sol\":3131:3133  to */\n      dup2\n        /* \"Challenge_03_Sender/Sender.sol\":3114:3142  TokenSent(token, to, amount) */\n      0xffffffffffffffffffffffffffffffffffffffff\n      and\n        /* \"Challenge_03_Sender/Sender.sol\":3124:3129  token */\n      dup4\n        /* \"Challenge_03_Sender/Sender.sol\":3114:3142  TokenSent(token, to, amount) */\n      0xffffffffffffffffffffffffffffffffffffffff\n      and\n      0x3ddb739c68dd901671f09fbe0bc2344c179ed55f8e8110a7c7a3c5665bd9518d\n        /* \"Challenge_03_Sender/Sender.sol\":3135:3141  amount */\n      dup4\n        /* \"Challenge_03_Sender/Sender.sol\":3114:3142  TokenSent(token, to, amount) */\n      mload(0x40)\n      tag_145\n      swap2\n      swap1\n      tag_48\n      jump\t// in\n    tag_145:\n      mload(0x40)\n      dup1\n      swap2\n      sub\n      swap1\n      log3\n        /* \"Challenge_03_Sender/Sender.sol\":2835:3150  function sendToken(... */\n      pop\n      pop\n      pop\n      jump\t// out\n        /* \"Challenge_03_Sender/Sender.sol\":414:432  bool public paused */\n    tag_41:\n      0x00\n      0x14\n      swap1\n      sload\n      swap1\n      0x0100\n      exp\n      swap1\n      div\n      0xff\n      and\n      dup2\n      jump\t// out\n        /* \"Challenge_03_Sender/Sender.sol\":4495:4601  function contractBalance() external view returns (uint256) {... */\n    tag_46:\n        /* \"Challenge_03_Sender/Sender.sol\":4545:4552  uint256 */\n      0x00\n        /* \"Challenge_03_Sender/Sender.sol\":4572:4593  address(this).balance */\n      selfbalance\n        /* \"Challenge_03_Sender/Sender.sol\":4565:4593  return address(this).balance */\n      swap1\n      pop\n        /* \"Challenge_03_Sender/Sender.sol\":4495:4601  function contractBalance() external view returns (uint256) {... */\n      swap1\n      jump\t// out\n        /* \"Challenge_03_Sender/Sender.sol\":387:407  address public owner */\n    tag_51:\n      0x00\n      dup1\n      sload\n      swap1\n      0x0100\n      exp\n      swap1\n      div\n      0xffffffffffffffffffffffffffffffffffffffff\n      and\n      dup2\n      jump\t// out\n        /* \"Challenge_03_Sender/Sender.sol\":1988:2670  function batchSendETH(... */\n    tag_57:\n        /* \"Challenge_03_Sender/Sender.sol\":919:925  paused */\n      0x00\n      0x14\n      swap1\n      sload\n      swap1\n      0x0100\n      exp\n      swap1\n      div\n      0xff\n      and\n        /* \"Challenge_03_Sender/Sender.sol\":918:925  !paused */\n      iszero\n        /* \"Challenge_03_Sender/Sender.sol\":910:946  require(!paused, \"Sender is paused\") */\n      tag_148\n      jumpi\n      mload(0x40)\n      0x08c379a000000000000000000000000000000000000000000000000000000000\n      dup2\n      mstore\n      0x04\n      add\n      tag_149\n      swap1\n      tag_61\n      jump\t// in\n    tag_149:\n      mload(0x40)\n      dup1\n      swap2\n      sub\n      swap1\n      revert\n    tag_148:\n        /* \"Challenge_03_Sender/Sender.sol\":2172:2180  _amounts */\n      dup2\n      dup2\n        /* \"Challenge_03_Sender/Sender.sol\":2172:2187  _amounts.length */\n      swap1\n      pop\n        /* \"Challenge_03_Sender/Sender.sol\":2150:2161  _recipients */\n      dup5\n      dup5\n        /* \"Challenge_03_Sender/Sender.sol\":2150:2168  _recipients.length */\n      swap1\n      pop\n        /* \"Challenge_03_Sender/Sender.sol\":2150:2187  _recipients.length == _amounts.length */\n      eq\n        /* \"Challenge_03_Sender/Sender.sol\":2142:2207  require(_recipients.length == _amounts.length, \"Length mismatch\") */\n      tag_151\n      jumpi\n      mload(0x40)\n      0x08c379a000000000000000000000000000000000000000000000000000000000\n      dup2\n      mstore\n      0x04\n      add\n      tag_152\n      swap1\n      tag_69\n      jump\t// in\n    tag_152:\n      mload(0x40)\n      dup1\n      swap2\n      sub\n      swap1\n      revert\n    tag_151:\n        /* \"Challenge_03_Sender/Sender.sol\":2220:2233  uint256 total */\n      0x00\n        /* \"Challenge_03_Sender/Sender.sol\":2253:2262  uint256 i */\n      dup1\n        /* \"Challenge_03_Sender/Sender.sol\":2248:2341  for (uint256 i = 0; i < _amounts.length; i++) {... */\n    tag_153:\n        /* \"Challenge_03_Sender/Sender.sol\":2272:2280  _amounts */\n      dup4\n      dup4\n        /* \"Challenge_03_Sender/Sender.sol\":2272:2287  _amounts.length */\n      swap1\n      pop\n        /* \"Challenge_03_Sender/Sender.sol\":2268:2269  i */\n      dup2\n        /* \"Challenge_03_Sender/Sender.sol\":2268:2287  i < _amounts.length */\n      lt\n        /* \"Challenge_03_Sender/Sender.sol\":2248:2341  for (uint256 i = 0; i < _amounts.length; i++) {... */\n      iszero\n      tag_154\n      jumpi\n        /* \"Challenge_03_Sender/Sender.sol\":2318:2326  _amounts */\n      dup4\n      dup4\n        /* \"Challenge_03_Sender/Sender.sol\":2327:2328  i */\n      dup3\n        /* \"Challenge_03_Sender/Sender.sol\":2318:2329  _amounts[i] */\n      dup2\n      dup2\n      lt\n      tag_156\n      jumpi\n      tag_157\n      tag_75\n      jump\t// in\n    tag_157:\n    tag_156:\n      swap1\n      pop\n      0x20\n      mul\n      add\n      calldataload\n        /* \"Challenge_03_Sender/Sender.sol\":2309:2329  total += _amounts[i] */\n      dup3\n      tag_158\n      swap2\n      swap1\n      tag_159\n      jump\t// in\n    tag_158:\n      swap2\n      pop\n        /* \"Challenge_03_Sender/Sender.sol\":2289:2292  i++ */\n      dup1\n      dup1\n      0x01\n      add\n      swap2\n      pop\n      pop\n        /* \"Challenge_03_Sender/Sender.sol\":2248:2341  for (uint256 i = 0; i < _amounts.length; i++) {... */\n      jump(tag_153)\n    tag_154:\n      pop\n        /* \"Challenge_03_Sender/Sender.sol\":2372:2377  total */\n      dup1\n        /* \"Challenge_03_Sender/Sender.sol\":2359:2368  msg.value */\n      callvalue\n        /* \"Challenge_03_Sender/Sender.sol\":2359:2377  msg.value == total */\n      eq\n        /* \"Challenge_03_Sender/Sender.sol\":2351:2402  require(msg.value == total, \"Incorrect ETH amount\") */\n      tag_160\n      jumpi\n      mload(0x40)\n      0x08c379a000000000000000000000000000000000000000000000000000000000\n      dup2\n      mstore\n      0x04\n      add\n      tag_161\n      swap1\n      tag_162\n      jump\t// in\n    tag_161:\n      mload(0x40)\n      dup1\n      swap2\n      sub\n      swap1\n      revert\n    tag_160:\n        /* \"Challenge_03_Sender/Sender.sol\":2420:2429  uint256 i */\n      0x00\n        /* \"Challenge_03_Sender/Sender.sol\":2415:2613  for (uint256 i = 0; i < _recipients.length; i++) {... */\n    tag_163:\n        /* \"Challenge_03_Sender/Sender.sol\":2439:2450  _recipients */\n      dup6\n      dup6\n        /* \"Challenge_03_Sender/Sender.sol\":2439:2457  _recipients.length */\n      swap1\n      pop\n        /* \"Challenge_03_Sender/Sender.sol\":2435:2436  i */\n      dup2\n        /* \"Challenge_03_Sender/Sender.sol\":2435:2457  i < _recipients.length */\n      lt\n        /* \"Challenge_03_Sender/Sender.sol\":2415:2613  for (uint256 i = 0; i < _recipients.length; i++) {... */\n      iszero\n      tag_164\n      jumpi\n        /* \"Challenge_03_Sender/Sender.sol\":2480:2492  bool success */\n      0x00\n        /* \"Challenge_03_Sender/Sender.sol\":2498:2509  _recipients */\n      dup7\n      dup7\n        /* \"Challenge_03_Sender/Sender.sol\":2510:2511  i */\n      dup4\n        /* \"Challenge_03_Sender/Sender.sol\":2498:2512  _recipients[i] */\n      dup2\n      dup2\n      lt\n      tag_166\n      jumpi\n      tag_167\n      tag_75\n      jump\t// in\n    tag_167:\n    tag_166:\n      swap1\n      pop\n      0x20\n      mul\n      add\n      0x20\n      dup2\n      add\n      swap1\n      tag_168\n      swap2\n      swap1\n      tag_27\n      jump\t// in\n    tag_168:\n        /* \"Challenge_03_Sender/Sender.sol\":2498:2517  _recipients[i].call */\n      0xffffffffffffffffffffffffffffffffffffffff\n      and\n        /* \"Challenge_03_Sender/Sender.sol\":2525:2533  _amounts */\n      dup6\n      dup6\n        /* \"Challenge_03_Sender/Sender.sol\":2534:2535  i */\n      dup5\n        /* \"Challenge_03_Sender/Sender.sol\":2525:2536  _amounts[i] */\n      dup2\n      dup2\n      lt\n      tag_169\n      jumpi\n      tag_170\n      tag_75\n      jump\t// in\n    tag_170:\n    tag_169:\n      swap1\n      pop\n      0x20\n      mul\n      add\n      calldataload\n        /* \"Challenge_03_Sender/Sender.sol\":2498:2541  _recipients[i].call{value: _amounts[i]}(\"\") */\n      mload(0x40)\n      tag_171\n      swap1\n      tag_106\n      jump\t// in\n    tag_171:\n      0x00\n      mload(0x40)\n      dup1\n      dup4\n      sub\n      dup2\n      dup6\n      dup8\n      gas\n      call\n      swap3\n      pop\n      pop\n      pop\n      returndatasize\n      dup1\n      0x00\n      dup2\n      eq\n      tag_174\n      jumpi\n      mload(0x40)\n      swap2\n      pop\n      and(add(returndatasize, 0x3f), not(0x1f))\n      dup3\n      add\n      0x40\n      mstore\n      returndatasize\n      dup3\n      mstore\n      returndatasize\n      0x00\n      0x20\n      dup5\n      add\n      returndatacopy\n      jump(tag_173)\n    tag_174:\n      0x60\n      swap2\n      pop\n    tag_173:\n      pop\n        /* \"Challenge_03_Sender/Sender.sol\":2479:2541  (bool success, ) = _recipients[i].call{value: _amounts[i]}(\"\") */\n      pop\n      swap1\n      pop\n        /* \"Challenge_03_Sender/Sender.sol\":2564:2571  success */\n      dup1\n        /* \"Challenge_03_Sender/Sender.sol\":2556:2601  require(success, \"ETH batch transfer failed\") */\n      tag_175\n      jumpi\n      mload(0x40)\n      0x08c379a000000000000000000000000000000000000000000000000000000000\n      dup2\n      mstore\n      0x04\n      add\n      tag_176\n      swap1\n      tag_177\n      jump\t// in\n    tag_176:\n      mload(0x40)\n      dup1\n      swap2\n      sub\n      swap1\n      revert\n    tag_175:\n        /* \"Challenge_03_Sender/Sender.sol\":2464:2613  {... */\n      pop\n        /* \"Challenge_03_Sender/Sender.sol\":2459:2462  i++ */\n      dup1\n      dup1\n      0x01\n      add\n      swap2\n      pop\n      pop\n        /* \"Challenge_03_Sender/Sender.sol\":2415:2613  for (uint256 i = 0; i < _recipients.length; i++) {... */\n      jump(tag_163)\n    tag_164:\n      pop\n        /* \"Challenge_03_Sender/Sender.sol\":2630:2662  BatchEthSent(_recipients.length) */\n      0x1379b4f3a51b304b6f49dd4cf298d868cfa01c07b0865881c5dc5d4bd387cf2b\n        /* \"Challenge_03_Sender/Sender.sol\":2643:2654  _recipients */\n      dup6\n      dup6\n        /* \"Challenge_03_Sender/Sender.sol\":2643:2661  _recipients.length */\n      swap1\n      pop\n        /* \"Challenge_03_Sender/Sender.sol\":2630:2662  BatchEthSent(_recipients.length) */\n      mload(0x40)\n      tag_178\n      swap2\n      swap1\n      tag_48\n      jump\t// in\n    tag_178:\n      mload(0x40)\n      dup1\n      swap2\n      sub\n      swap1\n      log1\n        /* \"Challenge_03_Sender/Sender.sol\":2131:2670  {... */\n      pop\n        /* \"Challenge_03_Sender/Sender.sol\":1988:2670  function batchSendETH(... */\n      pop\n      pop\n      pop\n      pop\n      jump\t// out\n        /* \"#utility.yul\":88:205   */\n    tag_180:\n        /* \"#utility.yul\":197:198   */\n      0x00\n        /* \"#utility.yul\":194:195   */\n      dup1\n        /* \"#utility.yul\":187:199   */\n      revert\n        /* \"#utility.yul\":211:328   */\n    tag_181:\n        /* \"#utility.yul\":320:321   */\n      0x00\n        /* \"#utility.yul\":317:318   */\n      dup1\n        /* \"#utility.yul\":310:322   */\n      revert\n        /* \"#utility.yul\":334:460   */\n    tag_182:\n        /* \"#utility.yul\":371:378   */\n      0x00\n        /* \"#utility.yul\":411:453   */\n      0xffffffffffffffffffffffffffffffffffffffff\n        /* \"#utility.yul\":404:409   */\n      dup3\n        /* \"#utility.yul\":400:454   */\n      and\n        /* \"#utility.yul\":389:454   */\n      swap1\n      pop\n        /* \"#utility.yul\":334:460   */\n      swap2\n      swap1\n      pop\n      jump\t// out\n        /* \"#utility.yul\":466:562   */\n    tag_183:\n        /* \"#utility.yul\":503:510   */\n      0x00\n        /* \"#utility.yul\":532:556   */\n      tag_240\n        /* \"#utility.yul\":550:555   */\n      dup3\n        /* \"#utility.yul\":532:556   */\n      tag_182\n      jump\t// in\n    tag_240:\n        /* \"#utility.yul\":521:556   */\n      swap1\n      pop\n        /* \"#utility.yul\":466:562   */\n      swap2\n      swap1\n      pop\n      jump\t// out\n        /* \"#utility.yul\":568:690   */\n    tag_184:\n        /* \"#utility.yul\":641:665   */\n      tag_242\n        /* \"#utility.yul\":659:664   */\n      dup2\n        /* \"#utility.yul\":641:665   */\n      tag_183\n      jump\t// in\n    tag_242:\n        /* \"#utility.yul\":634:639   */\n      dup2\n        /* \"#utility.yul\":631:666   */\n      eq\n        /* \"#utility.yul\":621:684   */\n      tag_243\n      jumpi\n        /* \"#utility.yul\":680:681   */\n      0x00\n        /* \"#utility.yul\":677:678   */\n      dup1\n        /* \"#utility.yul\":670:682   */\n      revert\n        /* \"#utility.yul\":621:684   */\n    tag_243:\n        /* \"#utility.yul\":568:690   */\n      pop\n      jump\t// out\n        /* \"#utility.yul\":696:835   */\n    tag_185:\n        /* \"#utility.yul\":742:747   */\n      0x00\n        /* \"#utility.yul\":780:786   */\n      dup2\n        /* \"#utility.yul\":767:787   */\n      calldataload\n        /* \"#utility.yul\":758:787   */\n      swap1\n      pop\n        /* \"#utility.yul\":796:829   */\n      tag_245\n        /* \"#utility.yul\":823:828   */\n      dup2\n        /* \"#utility.yul\":796:829   */\n      tag_184\n      jump\t// in\n    tag_245:\n        /* \"#utility.yul\":696:835   */\n      swap3\n      swap2\n      pop\n      pop\n      jump\t// out\n        /* \"#utility.yul\":841:958   */\n    tag_186:\n        /* \"#utility.yul\":950:951   */\n      0x00\n        /* \"#utility.yul\":947:948   */\n      dup1\n        /* \"#utility.yul\":940:952   */\n      revert\n        /* \"#utility.yul\":964:1081   */\n    tag_187:\n        /* \"#utility.yul\":1073:1074   */\n      0x00\n        /* \"#utility.yul\":1070:1071   */\n      dup1\n        /* \"#utility.yul\":1063:1075   */\n      revert\n        /* \"#utility.yul\":1087:1204   */\n    tag_188:\n        /* \"#utility.yul\":1196:1197   */\n      0x00\n        /* \"#utility.yul\":1193:1194   */\n      dup1\n        /* \"#utility.yul\":1186:1198   */\n      revert\n        /* \"#utility.yul\":1227:1795   */\n    tag_189:\n        /* \"#utility.yul\":1300:1308   */\n      0x00\n        /* \"#utility.yul\":1310:1316   */\n      dup1\n        /* \"#utility.yul\":1360:1363   */\n      dup4\n        /* \"#utility.yul\":1353:1357   */\n      0x1f\n        /* \"#utility.yul\":1345:1351   */\n      dup5\n        /* \"#utility.yul\":1341:1358   */\n      add\n        /* \"#utility.yul\":1337:1364   */\n      slt\n        /* \"#utility.yul\":1327:1449   */\n      tag_250\n      jumpi\n        /* \"#utility.yul\":1368:1447   */\n      tag_251\n      tag_186\n      jump\t// in\n    tag_251:\n        /* \"#utility.yul\":1327:1449   */\n    tag_250:\n        /* \"#utility.yul\":1481:1487   */\n      dup3\n        /* \"#utility.yul\":1468:1488   */\n      calldataload\n        /* \"#utility.yul\":1458:1488   */\n      swap1\n      pop\n        /* \"#utility.yul\":1511:1529   */\n      0xffffffffffffffff\n        /* \"#utility.yul\":1503:1509   */\n      dup2\n        /* \"#utility.yul\":1500:1530   */\n      gt\n        /* \"#utility.yul\":1497:1614   */\n      iszero\n      tag_252\n      jumpi\n        /* \"#utility.yul\":1533:1612   */\n      tag_253\n      tag_187\n      jump\t// in\n    tag_253:\n        /* \"#utility.yul\":1497:1614   */\n    tag_252:\n        /* \"#utility.yul\":1647:1651   */\n      0x20\n        /* \"#utility.yul\":1639:1645   */\n      dup4\n        /* \"#utility.yul\":1635:1652   */\n      add\n        /* \"#utility.yul\":1623:1652   */\n      swap2\n      pop\n        /* \"#utility.yul\":1701:1704   */\n      dup4\n        /* \"#utility.yul\":1693:1697   */\n      0x20\n        /* \"#utility.yul\":1685:1691   */\n      dup3\n        /* \"#utility.yul\":1681:1698   */\n      mul\n        /* \"#utility.yul\":1671:1679   */\n      dup4\n        /* \"#utility.yul\":1667:1699   */\n      add\n        /* \"#utility.yul\":1664:1705   */\n      gt\n        /* \"#utility.yul\":1661:1789   */\n      iszero\n      tag_254\n      jumpi\n        /* \"#utility.yul\":1708:1787   */\n      tag_255\n      tag_188\n      jump\t// in\n    tag_255:\n        /* \"#utility.yul\":1661:1789   */\n    tag_254:\n        /* \"#utility.yul\":1227:1795   */\n      swap3\n      pop\n      swap3\n      swap1\n      pop\n      jump\t// out\n        /* \"#utility.yul\":1818:2386   */\n    tag_190:\n        /* \"#utility.yul\":1891:1899   */\n      0x00\n        /* \"#utility.yul\":1901:1907   */\n      dup1\n        /* \"#utility.yul\":1951:1954   */\n      dup4\n        /* \"#utility.yul\":1944:1948   */\n      0x1f\n        /* \"#utility.yul\":1936:1942   */\n      dup5\n        /* \"#utility.yul\":1932:1949   */\n      add\n        /* \"#utility.yul\":1928:1955   */\n      slt\n        /* \"#utility.yul\":1918:2040   */\n      tag_257\n      jumpi\n        /* \"#utility.yul\":1959:2038   */\n      tag_258\n      tag_186\n      jump\t// in\n    tag_258:\n        /* \"#utility.yul\":1918:2040   */\n    tag_257:\n        /* \"#utility.yul\":2072:2078   */\n      dup3\n        /* \"#utility.yul\":2059:2079   */\n      calldataload\n        /* \"#utility.yul\":2049:2079   */\n      swap1\n      pop\n        /* \"#utility.yul\":2102:2120   */\n      0xffffffffffffffff\n        /* \"#utility.yul\":2094:2100   */\n      dup2\n        /* \"#utility.yul\":2091:2121   */\n      gt\n        /* \"#utility.yul\":2088:2205   */\n      iszero\n      tag_259\n      jumpi\n        /* \"#utility.yul\":2124:2203   */\n      tag_260\n      tag_187\n      jump\t// in\n    tag_260:\n        /* \"#utility.yul\":2088:2205   */\n    tag_259:\n        /* \"#utility.yul\":2238:2242   */\n      0x20\n        /* \"#utility.yul\":2230:2236   */\n      dup4\n        /* \"#utility.yul\":2226:2243   */\n      add\n        /* \"#utility.yul\":2214:2243   */\n      swap2\n      pop\n        /* \"#utility.yul\":2292:2295   */\n      dup4\n        /* \"#utility.yul\":2284:2288   */\n      0x20\n        /* \"#utility.yul\":2276:2282   */\n      dup3\n        /* \"#utility.yul\":2272:2289   */\n      mul\n        /* \"#utility.yul\":2262:2270   */\n      dup4\n        /* \"#utility.yul\":2258:2290   */\n      add\n        /* \"#utility.yul\":2255:2296   */\n      gt\n        /* \"#utility.yul\":2252:2380   */\n      iszero\n      tag_261\n      jumpi\n        /* \"#utility.yul\":2299:2378   */\n      tag_262\n      tag_188\n      jump\t// in\n    tag_262:\n        /* \"#utility.yul\":2252:2380   */\n    tag_261:\n        /* \"#utility.yul\":1818:2386   */\n      swap3\n      pop\n      swap3\n      swap1\n      pop\n      jump\t// out\n        /* \"#utility.yul\":2392:3471   */\n    tag_18:\n        /* \"#utility.yul\":2523:2529   */\n      0x00\n        /* \"#utility.yul\":2531:2537   */\n      dup1\n        /* \"#utility.yul\":2539:2545   */\n      0x00\n        /* \"#utility.yul\":2547:2553   */\n      dup1\n        /* \"#utility.yul\":2555:2561   */\n      0x00\n        /* \"#utility.yul\":2604:2606   */\n      0x60\n        /* \"#utility.yul\":2592:2601   */\n      dup7\n        /* \"#utility.yul\":2583:2590   */\n      dup9\n        /* \"#utility.yul\":2579:2602   */\n      sub\n        /* \"#utility.yul\":2575:2607   */\n      slt\n        /* \"#utility.yul\":2572:2691   */\n      iszero\n      tag_264\n      jumpi\n        /* \"#utility.yul\":2610:2689   */\n      tag_265\n      tag_180\n      jump\t// in\n    tag_265:\n        /* \"#utility.yul\":2572:2691   */\n    tag_264:\n        /* \"#utility.yul\":2730:2731   */\n      0x00\n        /* \"#utility.yul\":2755:2808   */\n      tag_266\n        /* \"#utility.yul\":2800:2807   */\n      dup9\n        /* \"#utility.yul\":2791:2797   */\n      dup3\n        /* \"#utility.yul\":2780:2789   */\n      dup10\n        /* \"#utility.yul\":2776:2798   */\n      add\n        /* \"#utility.yul\":2755:2808   */\n      tag_185\n      jump\t// in\n    tag_266:\n        /* \"#utility.yul\":2745:2808   */\n      swap6\n      pop\n        /* \"#utility.yul\":2701:2818   */\n      pop\n        /* \"#utility.yul\":2885:2887   */\n      0x20\n        /* \"#utility.yul\":2874:2883   */\n      dup7\n        /* \"#utility.yul\":2870:2888   */\n      add\n        /* \"#utility.yul\":2857:2889   */\n      calldataload\n        /* \"#utility.yul\":2916:2934   */\n      0xffffffffffffffff\n        /* \"#utility.yul\":2908:2914   */\n      dup2\n        /* \"#utility.yul\":2905:2935   */\n      gt\n        /* \"#utility.yul\":2902:3019   */\n      iszero\n      tag_267\n      jumpi\n        /* \"#utility.yul\":2938:3017   */\n      tag_268\n      tag_181\n      jump\t// in\n    tag_268:\n        /* \"#utility.yul\":2902:3019   */\n    tag_267:\n        /* \"#utility.yul\":3051:3131   */\n      tag_269\n        /* \"#utility.yul\":3123:3130   */\n      dup9\n        /* \"#utility.yul\":3114:3120   */\n      dup3\n        /* \"#utility.yul\":3103:3112   */\n      dup10\n        /* \"#utility.yul\":3099:3121   */\n      add\n        /* \"#utility.yul\":3051:3131   */\n      tag_189\n      jump\t// in\n    tag_269:\n        /* \"#utility.yul\":3033:3131   */\n      swap5\n      pop\n      swap5\n      pop\n        /* \"#utility.yul\":2828:3141   */\n      pop\n        /* \"#utility.yul\":3208:3210   */\n      0x40\n        /* \"#utility.yul\":3197:3206   */\n      dup7\n        /* \"#utility.yul\":3193:3211   */\n      add\n        /* \"#utility.yul\":3180:3212   */\n      calldataload\n        /* \"#utility.yul\":3239:3257   */\n      0xffffffffffffffff\n        /* \"#utility.yul\":3231:3237   */\n      dup2\n        /* \"#utility.yul\":3228:3258   */\n      gt\n        /* \"#utility.yul\":3225:3342   */\n      iszero\n      tag_270\n      jumpi\n        /* \"#utility.yul\":3261:3340   */\n      tag_271\n      tag_181\n      jump\t// in\n    tag_271:\n        /* \"#utility.yul\":3225:3342   */\n    tag_270:\n        /* \"#utility.yul\":3374:3454   */\n      tag_272\n        /* \"#utility.yul\":3446:3453   */\n      dup9\n        /* \"#utility.yul\":3437:3443   */\n      dup3\n        /* \"#utility.yul\":3426:3435   */\n      dup10\n        /* \"#utility.yul\":3422:3444   */\n      add\n        /* \"#utility.yul\":3374:3454   */\n      tag_190\n      jump\t// in\n    tag_272:\n        /* \"#utility.yul\":3356:3454   */\n      swap3\n      pop\n      swap3\n      pop\n        /* \"#utility.yul\":3151:3464   */\n      pop\n        /* \"#utility.yul\":2392:3471   */\n      swap3\n      swap6\n      pop\n      swap3\n      swap6\n      swap1\n      swap4\n      pop\n      jump\t// out\n        /* \"#utility.yul\":3477:3567   */\n    tag_191:\n        /* \"#utility.yul\":3511:3518   */\n      0x00\n        /* \"#utility.yul\":3554:3559   */\n      dup2\n        /* \"#utility.yul\":3547:3560   */\n      iszero\n        /* \"#utility.yul\":3540:3561   */\n      iszero\n        /* \"#utility.yul\":3529:3561   */\n      swap1\n      pop\n        /* \"#utility.yul\":3477:3567   */\n      swap2\n      swap1\n      pop\n      jump\t// out\n        /* \"#utility.yul\":3573:3689   */\n    tag_192:\n        /* \"#utility.yul\":3643:3664   */\n      tag_275\n        /* \"#utility.yul\":3658:3663   */\n      dup2\n        /* \"#utility.yul\":3643:3664   */\n      tag_191\n      jump\t// in\n    tag_275:\n        /* \"#utility.yul\":3636:3641   */\n      dup2\n        /* \"#utility.yul\":3633:3665   */\n      eq\n        /* \"#utility.yul\":3623:3683   */\n      tag_276\n      jumpi\n        /* \"#utility.yul\":3679:3680   */\n      0x00\n        /* \"#utility.yul\":3676:3677   */\n      dup1\n        /* \"#utility.yul\":3669:3681   */\n      revert\n        /* \"#utility.yul\":3623:3683   */\n    tag_276:\n        /* \"#utility.yul\":3573:3689   */\n      pop\n      jump\t// out\n        /* \"#utility.yul\":3695:3828   */\n    tag_193:\n        /* \"#utility.yul\":3738:3743   */\n      0x00\n        /* \"#utility.yul\":3776:3782   */\n      dup2\n        /* \"#utility.yul\":3763:3783   */\n      calldataload\n        /* \"#utility.yul\":3754:3783   */\n      swap1\n      pop\n        /* \"#utility.yul\":3792:3822   */\n      tag_278\n        /* \"#utility.yul\":3816:3821   */\n      dup2\n        /* \"#utility.yul\":3792:3822   */\n      tag_192\n      jump\t// in\n    tag_278:\n        /* \"#utility.yul\":3695:3828   */\n      swap3\n      swap2\n      pop\n      pop\n      jump\t// out\n        /* \"#utility.yul\":3834:4157   */\n    tag_23:\n        /* \"#utility.yul\":3890:3896   */\n      0x00\n        /* \"#utility.yul\":3939:3941   */\n      0x20\n        /* \"#utility.yul\":3927:3936   */\n      dup3\n        /* \"#utility.yul\":3918:3925   */\n      dup5\n        /* \"#utility.yul\":3914:3937   */\n      sub\n        /* \"#utility.yul\":3910:3942   */\n      slt\n        /* \"#utility.yul\":3907:4026   */\n      iszero\n      tag_280\n      jumpi\n        /* \"#utility.yul\":3945:4024   */\n      tag_281\n      tag_180\n      jump\t// in\n    tag_281:\n        /* \"#utility.yul\":3907:4026   */\n    tag_280:\n        /* \"#utility.yul\":4065:4066   */\n      0x00\n        /* \"#utility.yul\":4090:4140   */\n      tag_282\n        /* \"#utility.yul\":4132:4139   */\n      dup5\n        /* \"#utility.yul\":4123:4129   */\n      dup3\n        /* \"#utility.yul\":4112:4121   */\n      dup6\n        /* \"#utility.yul\":4108:4130   */\n      add\n        /* \"#utility.yul\":4090:4140   */\n      tag_193\n      jump\t// in\n    tag_282:\n        /* \"#utility.yul\":4080:4140   */\n      swap2\n      pop\n        /* \"#utility.yul\":4036:4150   */\n      pop\n        /* \"#utility.yul\":3834:4157   */\n      swap3\n      swap2\n      pop\n      pop\n      jump\t// out\n        /* \"#utility.yul\":4163:4267   */\n    tag_194:\n        /* \"#utility.yul\":4208:4215   */\n      0x00\n        /* \"#utility.yul\":4237:4261   */\n      tag_284\n        /* \"#utility.yul\":4255:4260   */\n      dup3\n        /* \"#utility.yul\":4237:4261   */\n      tag_182\n      jump\t// in\n    tag_284:\n        /* \"#utility.yul\":4226:4261   */\n      swap1\n      pop\n        /* \"#utility.yul\":4163:4267   */\n      swap2\n      swap1\n      pop\n      jump\t// out\n        /* \"#utility.yul\":4273:4411   */\n    tag_195:\n        /* \"#utility.yul\":4354:4386   */\n      tag_286\n        /* \"#utility.yul\":4380:4385   */\n      dup2\n        /* \"#utility.yul\":4354:4386   */\n      tag_194\n      jump\t// in\n    tag_286:\n        /* \"#utility.yul\":4347:4352   */\n      dup2\n        /* \"#utility.yul\":4344:4387   */\n      eq\n        /* \"#utility.yul\":4334:4405   */\n      tag_287\n      jumpi\n        /* \"#utility.yul\":4401:4402   */\n      0x00\n        /* \"#utility.yul\":4398:4399   */\n      dup1\n        /* \"#utility.yul\":4391:4403   */\n      revert\n        /* \"#utility.yul\":4334:4405   */\n    tag_287:\n        /* \"#utility.yul\":4273:4411   */\n      pop\n      jump\t// out\n        /* \"#utility.yul\":4417:4572   */\n    tag_196:\n        /* \"#utility.yul\":4471:4476   */\n      0x00\n        /* \"#utility.yul\":4509:4515   */\n      dup2\n        /* \"#utility.yul\":4496:4516   */\n      calldataload\n        /* \"#utility.yul\":4487:4516   */\n      swap1\n      pop\n        /* \"#utility.yul\":4525:4566   */\n      tag_289\n        /* \"#utility.yul\":4560:4565   */\n      dup2\n        /* \"#utility.yul\":4525:4566   */\n      tag_195\n      jump\t// in\n    tag_289:\n        /* \"#utility.yul\":4417:4572   */\n      swap3\n      swap2\n      pop\n      pop\n      jump\t// out\n        /* \"#utility.yul\":4578:4923   */\n    tag_27:\n        /* \"#utility.yul\":4645:4651   */\n      0x00\n        /* \"#utility.yul\":4694:4696   */\n      0x20\n        /* \"#utility.yul\":4682:4691   */\n      dup3\n        /* \"#utility.yul\":4673:4680   */\n      dup5\n        /* \"#utility.yul\":4669:4692   */\n      sub\n        /* \"#utility.yul\":4665:4697   */\n      slt\n        /* \"#utility.yul\":4662:4781   */\n      iszero\n      tag_291\n      jumpi\n        /* \"#utility.yul\":4700:4779   */\n      tag_292\n      tag_180\n      jump\t// in\n    tag_292:\n        /* \"#utility.yul\":4662:4781   */\n    tag_291:\n        /* \"#utility.yul\":4820:4821   */\n      0x00\n        /* \"#utility.yul\":4845:4906   */\n      tag_293\n        /* \"#utility.yul\":4898:4905   */\n      dup5\n        /* \"#utility.yul\":4889:4895   */\n      dup3\n        /* \"#utility.yul\":4878:4887   */\n      dup6\n        /* \"#utility.yul\":4874:4896   */\n      add\n        /* \"#utility.yul\":4845:4906   */\n      tag_196\n      jump\t// in\n    tag_293:\n        /* \"#utility.yul\":4835:4906   */\n      swap2\n      pop\n        /* \"#utility.yul\":4791:4916   */\n      pop\n        /* \"#utility.yul\":4578:4923   */\n      swap3\n      swap2\n      pop\n      pop\n      jump\t// out\n        /* \"#utility.yul\":4929:5006   */\n    tag_197:\n        /* \"#utility.yul\":4966:4973   */\n      0x00\n        /* \"#utility.yul\":4995:5000   */\n      dup2\n        /* \"#utility.yul\":4984:5000   */\n      swap1\n      pop\n        /* \"#utility.yul\":4929:5006   */\n      swap2\n      swap1\n      pop\n      jump\t// out\n        /* \"#utility.yul\":5012:5134   */\n    tag_198:\n        /* \"#utility.yul\":5085:5109   */\n      tag_296\n        /* \"#utility.yul\":5103:5108   */\n      dup2\n        /* \"#utility.yul\":5085:5109   */\n      tag_197\n      jump\t// in\n    tag_296:\n        /* \"#utility.yul\":5078:5083   */\n      dup2\n        /* \"#utility.yul\":5075:5110   */\n      eq\n        /* \"#utility.yul\":5065:5128   */\n      tag_297\n      jumpi\n        /* \"#utility.yul\":5124:5125   */\n      0x00\n        /* \"#utility.yul\":5121:5122   */\n      dup1\n        /* \"#utility.yul\":5114:5126   */\n      revert\n        /* \"#utility.yul\":5065:5128   */\n    tag_297:\n        /* \"#utility.yul\":5012:5134   */\n      pop\n      jump\t// out\n        /* \"#utility.yul\":5140:5279   */\n    tag_199:\n        /* \"#utility.yul\":5186:5191   */\n      0x00\n        /* \"#utility.yul\":5224:5230   */\n      dup2\n        /* \"#utility.yul\":5211:5231   */\n      calldataload\n        /* \"#utility.yul\":5202:5231   */\n      swap1\n      pop\n        /* \"#utility.yul\":5240:5273   */\n      tag_299\n        /* \"#utility.yul\":5267:5272   */\n      dup2\n        /* \"#utility.yul\":5240:5273   */\n      tag_198\n      jump\t// in\n    tag_299:\n        /* \"#utility.yul\":5140:5279   */\n      swap3\n      swap2\n      pop\n      pop\n      jump\t// out\n        /* \"#utility.yul\":5285:5614   */\n    tag_32:\n        /* \"#utility.yul\":5344:5350   */\n      0x00\n        /* \"#utility.yul\":5393:5395   */\n      0x20\n        /* \"#utility.yul\":5381:5390   */\n      dup3\n        /* \"#utility.yul\":5372:5379   */\n      dup5\n        /* \"#utility.yul\":5368:5391   */\n      sub\n        /* \"#utility.yul\":5364:5396   */\n      slt\n        /* \"#utility.yul\":5361:5480   */\n      iszero\n      tag_301\n      jumpi\n        /* \"#utility.yul\":5399:5478   */\n      tag_302\n      tag_180\n      jump\t// in\n    tag_302:\n        /* \"#utility.yul\":5361:5480   */\n    tag_301:\n        /* \"#utility.yul\":5519:5520   */\n      0x00\n        /* \"#utility.yul\":5544:5597   */\n      tag_303\n        /* \"#utility.yul\":5589:5596   */\n      dup5\n        /* \"#utility.yul\":5580:5586   */\n      dup3\n        /* \"#utility.yul\":5569:5578   */\n      dup6\n        /* \"#utility.yul\":5565:5587   */\n      add\n        /* \"#utility.yul\":5544:5597   */\n      tag_199\n      jump\t// in\n    tag_303:\n        /* \"#utility.yul\":5534:5597   */\n      swap2\n      pop\n        /* \"#utility.yul\":5490:5607   */\n      pop\n        /* \"#utility.yul\":5285:5614   */\n      swap3\n      swap2\n      pop\n      pop\n      jump\t// out\n        /* \"#utility.yul\":5620:6239   */\n    tag_37:\n        /* \"#utility.yul\":5697:5703   */\n      0x00\n        /* \"#utility.yul\":5705:5711   */\n      dup1\n        /* \"#utility.yul\":5713:5719   */\n      0x00\n        /* \"#utility.yul\":5762:5764   */\n      0x60\n        /* \"#utility.yul\":5750:5759   */\n      dup5\n        /* \"#utility.yul\":5741:5748   */\n      dup7\n        /* \"#utility.yul\":5737:5760   */\n      sub\n        /* \"#utility.yul\":5733:5765   */\n      slt\n        /* \"#utility.yul\":5730:5849   */\n      iszero\n      tag_305\n      jumpi\n        /* \"#utility.yul\":5768:5847   */\n      tag_306\n      tag_180\n      jump\t// in\n    tag_306:\n        /* \"#utility.yul\":5730:5849   */\n    tag_305:\n        /* \"#utility.yul\":5888:5889   */\n      0x00\n        /* \"#utility.yul\":5913:5966   */\n      tag_307\n        /* \"#utility.yul\":5958:5965   */\n      dup7\n        /* \"#utility.yul\":5949:5955   */\n      dup3\n        /* \"#utility.yul\":5938:5947   */\n      dup8\n        /* \"#utility.yul\":5934:5956   */\n      add\n        /* \"#utility.yul\":5913:5966   */\n      tag_185\n      jump\t// in\n    tag_307:\n        /* \"#utility.yul\":5903:5966   */\n      swap4\n      pop\n        /* \"#utility.yul\":5859:5976   */\n      pop\n        /* \"#utility.yul\":6015:6017   */\n      0x20\n        /* \"#utility.yul\":6041:6094   */\n      tag_308\n        /* \"#utility.yul\":6086:6093   */\n      dup7\n        /* \"#utility.yul\":6077:6083   */\n      dup3\n        /* \"#utility.yul\":6066:6075   */\n      dup8\n        /* \"#utility.yul\":6062:6084   */\n      add\n        /* \"#utility.yul\":6041:6094   */\n      tag_185\n      jump\t// in\n    tag_308:\n        /* \"#utility.yul\":6031:6094   */\n      swap3\n      pop\n        /* \"#utility.yul\":5986:6104   */\n      pop\n        /* \"#utility.yul\":6143:6145   */\n      0x40\n        /* \"#utility.yul\":6169:6222   */\n      tag_309\n        /* \"#utility.yul\":6214:6221   */\n      dup7\n        /* \"#utility.yul\":6205:6211   */\n      dup3\n        /* \"#utility.yul\":6194:6203   */\n      dup8\n        /* \"#utility.yul\":6190:6212   */\n      add\n        /* \"#utility.yul\":6169:6222   */\n      tag_199\n      jump\t// in\n    tag_309:\n        /* \"#utility.yul\":6159:6222   */\n      swap2\n      pop\n        /* \"#utility.yul\":6114:6232   */\n      pop\n        /* \"#utility.yul\":5620:6239   */\n      swap3\n      pop\n      swap3\n      pop\n      swap3\n      jump\t// out\n        /* \"#utility.yul\":6245:6354   */\n    tag_200:\n        /* \"#utility.yul\":6326:6347   */\n      tag_311\n        /* \"#utility.yul\":6341:6346   */\n      dup2\n        /* \"#utility.yul\":6326:6347   */\n      tag_191\n      jump\t// in\n    tag_311:\n        /* \"#utility.yul\":6321:6324   */\n      dup3\n        /* \"#utility.yul\":6314:6348   */\n      mstore\n        /* \"#utility.yul\":6245:6354   */\n      pop\n      pop\n      jump\t// out\n        /* \"#utility.yul\":6360:6570   */\n    tag_43:\n        /* \"#utility.yul\":6447:6451   */\n      0x00\n        /* \"#utility.yul\":6485:6487   */\n      0x20\n        /* \"#utility.yul\":6474:6483   */\n      dup3\n        /* \"#utility.yul\":6470:6488   */\n      add\n        /* \"#utility.yul\":6462:6488   */\n      swap1\n      pop\n        /* \"#utility.yul\":6498:6563   */\n      tag_313\n        /* \"#utility.yul\":6560:6561   */\n      0x00\n        /* \"#utility.yul\":6549:6558   */\n      dup4\n        /* \"#utility.yul\":6545:6562   */\n      add\n        /* \"#utility.yul\":6536:6542   */\n      dup5\n        /* \"#utility.yul\":6498:6563   */\n      tag_200\n      jump\t// in\n    tag_313:\n        /* \"#utility.yul\":6360:6570   */\n      swap3\n      swap2\n      pop\n      pop\n      jump\t// out\n        /* \"#utility.yul\":6576:6694   */\n    tag_201:\n        /* \"#utility.yul\":6663:6687   */\n      tag_315\n        /* \"#utility.yul\":6681:6686   */\n      dup2\n        /* \"#utility.yul\":6663:6687   */\n      tag_197\n      jump\t// in\n    tag_315:\n        /* \"#utility.yul\":6658:6661   */\n      dup3\n        /* \"#utility.yul\":6651:6688   */\n      mstore\n        /* \"#utility.yul\":6576:6694   */\n      pop\n      pop\n      jump\t// out\n        /* \"#utility.yul\":6700:6922   */\n    tag_48:\n        /* \"#utility.yul\":6793:6797   */\n      0x00\n        /* \"#utility.yul\":6831:6833   */\n      0x20\n        /* \"#utility.yul\":6820:6829   */\n      dup3\n        /* \"#utility.yul\":6816:6834   */\n      add\n        /* \"#utility.yul\":6808:6834   */\n      swap1\n      pop\n        /* \"#utility.yul\":6844:6915   */\n      tag_317\n        /* \"#utility.yul\":6912:6913   */\n      0x00\n        /* \"#utility.yul\":6901:6910   */\n      dup4\n        /* \"#utility.yul\":6897:6914   */\n      add\n        /* \"#utility.yul\":6888:6894   */\n      dup5\n        /* \"#utility.yul\":6844:6915   */\n      tag_201\n      jump\t// in\n    tag_317:\n        /* \"#utility.yul\":6700:6922   */\n      swap3\n      swap2\n      pop\n      pop\n      jump\t// out\n        /* \"#utility.yul\":6928:7046   */\n    tag_202:\n        /* \"#utility.yul\":7015:7039   */\n      tag_319\n        /* \"#utility.yul\":7033:7038   */\n      dup2\n        /* \"#utility.yul\":7015:7039   */\n      tag_183\n      jump\t// in\n    tag_319:\n        /* \"#utility.yul\":7010:7013   */\n      dup3\n        /* \"#utility.yul\":7003:7040   */\n      mstore\n        /* \"#utility.yul\":6928:7046   */\n      pop\n      pop\n      jump\t// out\n        /* \"#utility.yul\":7052:7274   */\n    tag_53:\n        /* \"#utility.yul\":7145:7149   */\n      0x00\n        /* \"#utility.yul\":7183:7185   */\n      0x20\n        /* \"#utility.yul\":7172:7181   */\n      dup3\n        /* \"#utility.yul\":7168:7186   */\n      add\n        /* \"#utility.yul\":7160:7186   */\n      swap1\n      pop\n        /* \"#utility.yul\":7196:7267   */\n      tag_321\n        /* \"#utility.yul\":7264:7265   */\n      0x00\n        /* \"#utility.yul\":7253:7262   */\n      dup4\n        /* \"#utility.yul\":7249:7266   */\n      add\n        /* \"#utility.yul\":7240:7246   */\n      dup5\n        /* \"#utility.yul\":7196:7267   */\n      tag_202\n      jump\t// in\n    tag_321:\n        /* \"#utility.yul\":7052:7274   */\n      swap3\n      swap2\n      pop\n      pop\n      jump\t// out\n        /* \"#utility.yul\":7305:7881   */\n    tag_203:\n        /* \"#utility.yul\":7386:7394   */\n      0x00\n        /* \"#utility.yul\":7396:7402   */\n      dup1\n        /* \"#utility.yul\":7446:7449   */\n      dup4\n        /* \"#utility.yul\":7439:7443   */\n      0x1f\n        /* \"#utility.yul\":7431:7437   */\n      dup5\n        /* \"#utility.yul\":7427:7444   */\n      add\n        /* \"#utility.yul\":7423:7450   */\n      slt\n        /* \"#utility.yul\":7413:7535   */\n      tag_323\n      jumpi\n        /* \"#utility.yul\":7454:7533   */\n      tag_324\n      tag_186\n      jump\t// in\n    tag_324:\n        /* \"#utility.yul\":7413:7535   */\n    tag_323:\n        /* \"#utility.yul\":7567:7573   */\n      dup3\n        /* \"#utility.yul\":7554:7574   */\n      calldataload\n        /* \"#utility.yul\":7544:7574   */\n      swap1\n      pop\n        /* \"#utility.yul\":7597:7615   */\n      0xffffffffffffffff\n        /* \"#utility.yul\":7589:7595   */\n      dup2\n        /* \"#utility.yul\":7586:7616   */\n      gt\n        /* \"#utility.yul\":7583:7700   */\n      iszero\n      tag_325\n      jumpi\n        /* \"#utility.yul\":7619:7698   */\n      tag_326\n      tag_187\n      jump\t// in\n    tag_326:\n        /* \"#utility.yul\":7583:7700   */\n    tag_325:\n        /* \"#utility.yul\":7733:7737   */\n      0x20\n        /* \"#utility.yul\":7725:7731   */\n      dup4\n        /* \"#utility.yul\":7721:7738   */\n      add\n        /* \"#utility.yul\":7709:7738   */\n      swap2\n      pop\n        /* \"#utility.yul\":7787:7790   */\n      dup4\n        /* \"#utility.yul\":7779:7783   */\n      0x20\n        /* \"#utility.yul\":7771:7777   */\n      dup3\n        /* \"#utility.yul\":7767:7784   */\n      mul\n        /* \"#utility.yul\":7757:7765   */\n      dup4\n        /* \"#utility.yul\":7753:7785   */\n      add\n        /* \"#utility.yul\":7750:7791   */\n      gt\n        /* \"#utility.yul\":7747:7875   */\n      iszero\n      tag_327\n      jumpi\n        /* \"#utility.yul\":7794:7873   */\n      tag_328\n      tag_188\n      jump\t// in\n    tag_328:\n        /* \"#utility.yul\":7747:7875   */\n    tag_327:\n        /* \"#utility.yul\":7305:7881   */\n      swap3\n      pop\n      swap3\n      swap1\n      pop\n      jump\t// out\n        /* \"#utility.yul\":7887:8837   */\n    tag_56:\n        /* \"#utility.yul\":8017:8023   */\n      0x00\n        /* \"#utility.yul\":8025:8031   */\n      dup1\n        /* \"#utility.yul\":8033:8039   */\n      0x00\n        /* \"#utility.yul\":8041:8047   */\n      dup1\n        /* \"#utility.yul\":8090:8092   */\n      0x40\n        /* \"#utility.yul\":8078:8087   */\n      dup6\n        /* \"#utility.yul\":8069:8076   */\n      dup8\n        /* \"#utility.yul\":8065:8088   */\n      sub\n        /* \"#utility.yul\":8061:8093   */\n      slt\n        /* \"#utility.yul\":8058:8177   */\n      iszero\n      tag_330\n      jumpi\n        /* \"#utility.yul\":8096:8175   */\n      tag_331\n      tag_180\n      jump\t// in\n    tag_331:\n        /* \"#utility.yul\":8058:8177   */\n    tag_330:\n        /* \"#utility.yul\":8244:8245   */\n      0x00\n        /* \"#utility.yul\":8233:8242   */\n      dup6\n        /* \"#utility.yul\":8229:8246   */\n      add\n        /* \"#utility.yul\":8216:8247   */\n      calldataload\n        /* \"#utility.yul\":8274:8292   */\n      0xffffffffffffffff\n        /* \"#utility.yul\":8266:8272   */\n      dup2\n        /* \"#utility.yul\":8263:8293   */\n      gt\n        /* \"#utility.yul\":8260:8377   */\n      iszero\n      tag_332\n      jumpi\n        /* \"#utility.yul\":8296:8375   */\n      tag_333\n      tag_181\n      jump\t// in\n    tag_333:\n        /* \"#utility.yul\":8260:8377   */\n    tag_332:\n        /* \"#utility.yul\":8409:8497   */\n      tag_334\n        /* \"#utility.yul\":8489:8496   */\n      dup8\n        /* \"#utility.yul\":8480:8486   */\n      dup3\n        /* \"#utility.yul\":8469:8478   */\n      dup9\n        /* \"#utility.yul\":8465:8487   */\n      add\n        /* \"#utility.yul\":8409:8497   */\n      tag_203\n      jump\t// in\n    tag_334:\n        /* \"#utility.yul\":8391:8497   */\n      swap5\n      pop\n      swap5\n      pop\n        /* \"#utility.yul\":8187:8507   */\n      pop\n        /* \"#utility.yul\":8574:8576   */\n      0x20\n        /* \"#utility.yul\":8563:8572   */\n      dup6\n        /* \"#utility.yul\":8559:8577   */\n      add\n        /* \"#utility.yul\":8546:8578   */\n      calldataload\n        /* \"#utility.yul\":8605:8623   */\n      0xffffffffffffffff\n        /* \"#utility.yul\":8597:8603   */\n      dup2\n        /* \"#utility.yul\":8594:8624   */\n      gt\n        /* \"#utility.yul\":8591:8708   */\n      iszero\n      tag_335\n      jumpi\n        /* \"#utility.yul\":8627:8706   */\n      tag_336\n      tag_181\n      jump\t// in\n    tag_336:\n        /* \"#utility.yul\":8591:8708   */\n    tag_335:\n        /* \"#utility.yul\":8740:8820   */\n      tag_337\n        /* \"#utility.yul\":8812:8819   */\n      dup8\n        /* \"#utility.yul\":8803:8809   */\n      dup3\n        /* \"#utility.yul\":8792:8801   */\n      dup9\n        /* \"#utility.yul\":8788:8810   */\n      add\n        /* \"#utility.yul\":8740:8820   */\n      tag_190\n      jump\t// in\n    tag_337:\n        /* \"#utility.yul\":8722:8820   */\n      swap3\n      pop\n      swap3\n      pop\n        /* \"#utility.yul\":8517:8830   */\n      pop\n        /* \"#utility.yul\":7887:8837   */\n      swap3\n      swap6\n      swap2\n      swap5\n      pop\n      swap3\n      pop\n      jump\t// out\n        /* \"#utility.yul\":8843:9012   */\n    tag_204:\n        /* \"#utility.yul\":8927:8938   */\n      0x00\n        /* \"#utility.yul\":8961:8967   */\n      dup3\n        /* \"#utility.yul\":8956:8959   */\n      dup3\n        /* \"#utility.yul\":8949:8968   */\n      mstore\n        /* \"#utility.yul\":9001:9005   */\n      0x20\n        /* \"#utility.yul\":8996:8999   */\n      dup3\n        /* \"#utility.yul\":8992:9006   */\n      add\n        /* \"#utility.yul\":8977:9006   */\n      swap1\n      pop\n        /* \"#utility.yul\":8843:9012   */\n      swap3\n      swap2\n      pop\n      pop\n      jump\t// out\n        /* \"#utility.yul\":9018:9184   */\n    tag_205:\n        /* \"#utility.yul\":9158:9176   */\n      0x53656e6465722069732070617573656400000000000000000000000000000000\n        /* \"#utility.yul\":9154:9155   */\n      0x00\n        /* \"#utility.yul\":9146:9152   */\n      dup3\n        /* \"#utility.yul\":9142:9156   */\n      add\n        /* \"#utility.yul\":9135:9177   */\n      mstore\n        /* \"#utility.yul\":9018:9184   */\n      pop\n      jump\t// out\n        /* \"#utility.yul\":9190:9556   */\n    tag_206:\n        /* \"#utility.yul\":9332:9335   */\n      0x00\n        /* \"#utility.yul\":9353:9420   */\n      tag_341\n        /* \"#utility.yul\":9417:9419   */\n      0x10\n        /* \"#utility.yul\":9412:9415   */\n      dup4\n        /* \"#utility.yul\":9353:9420   */\n      tag_204\n      jump\t// in\n    tag_341:\n        /* \"#utility.yul\":9346:9420   */\n      swap2\n      pop\n        /* \"#utility.yul\":9429:9522   */\n      tag_342\n        /* \"#utility.yul\":9518:9521   */\n      dup3\n        /* \"#utility.yul\":9429:9522   */\n      tag_205\n      jump\t// in\n    tag_342:\n        /* \"#utility.yul\":9547:9549   */\n      0x20\n        /* \"#utility.yul\":9542:9545   */\n      dup3\n        /* \"#utility.yul\":9538:9550   */\n      add\n        /* \"#utility.yul\":9531:9550   */\n      swap1\n      pop\n        /* \"#utility.yul\":9190:9556   */\n      swap2\n      swap1\n      pop\n      jump\t// out\n        /* \"#utility.yul\":9562:9981   */\n    tag_61:\n        /* \"#utility.yul\":9728:9732   */\n      0x00\n        /* \"#utility.yul\":9766:9768   */\n      0x20\n        /* \"#utility.yul\":9755:9764   */\n      dup3\n        /* \"#utility.yul\":9751:9769   */\n      add\n        /* \"#utility.yul\":9743:9769   */\n      swap1\n      pop\n        /* \"#utility.yul\":9815:9824   */\n      dup2\n        /* \"#utility.yul\":9809:9813   */\n      dup2\n        /* \"#utility.yul\":9805:9825   */\n      sub\n        /* \"#utility.yul\":9801:9802   */\n      0x00\n        /* \"#utility.yul\":9790:9799   */\n      dup4\n        /* \"#utility.yul\":9786:9803   */\n      add\n        /* \"#utility.yul\":9779:9826   */\n      mstore\n        /* \"#utility.yul\":9843:9974   */\n      tag_344\n        /* \"#utility.yul\":9969:9973   */\n      dup2\n        /* \"#utility.yul\":9843:9974   */\n      tag_206\n      jump\t// in\n    tag_344:\n        /* \"#utility.yul\":9835:9974   */\n      swap1\n      pop\n        /* \"#utility.yul\":9562:9981   */\n      swap2\n      swap1\n      pop\n      jump\t// out\n        /* \"#utility.yul\":9987:10146   */\n    tag_207:\n        /* \"#utility.yul\":10127:10138   */\n      0x4e6f74206f776e65720000000000000000000000000000000000000000000000\n        /* \"#utility.yul\":10123:10124   */\n      0x00\n        /* \"#utility.yul\":10115:10121   */\n      dup3\n        /* \"#utility.yul\":10111:10125   */\n      add\n        /* \"#utility.yul\":10104:10139   */\n      mstore\n        /* \"#utility.yul\":9987:10146   */\n      pop\n      jump\t// out\n        /* \"#utility.yul\":10152:10517   */\n    tag_208:\n        /* \"#utility.yul\":10294:10297   */\n      0x00\n        /* \"#utility.yul\":10315:10381   */\n      tag_347\n        /* \"#utility.yul\":10379:10380   */\n      0x09\n        /* \"#utility.yul\":10374:10377   */\n      dup4\n        /* \"#utility.yul\":10315:10381   */\n      tag_204\n      jump\t// in\n    tag_347:\n        /* \"#utility.yul\":10308:10381   */\n      swap2\n      pop\n        /* \"#utility.yul\":10390:10483   */\n      tag_348\n        /* \"#utility.yul\":10479:10482   */\n      dup3\n        /* \"#utility.yul\":10390:10483   */\n      tag_207\n      jump\t// in\n    tag_348:\n        /* \"#utility.yul\":10508:10510   */\n      0x20\n        /* \"#utility.yul\":10503:10506   */\n      dup3\n        /* \"#utility.yul\":10499:10511   */\n      add\n        /* \"#utility.yul\":10492:10511   */\n      swap1\n      pop\n        /* \"#utility.yul\":10152:10517   */\n      swap2\n      swap1\n      pop\n      jump\t// out\n        /* \"#utility.yul\":10523:10942   */\n    tag_65:\n        /* \"#utility.yul\":10689:10693   */\n      0x00\n        /* \"#utility.yul\":10727:10729   */\n      0x20\n        /* \"#utility.yul\":10716:10725   */\n      dup3\n        /* \"#utility.yul\":10712:10730   */\n      add\n        /* \"#utility.yul\":10704:10730   */\n      swap1\n      pop\n        /* \"#utility.yul\":10776:10785   */\n      dup2\n        /* \"#utility.yul\":10770:10774   */\n      dup2\n        /* \"#utility.yul\":10766:10786   */\n      sub\n        /* \"#utility.yul\":10762:10763   */\n      0x00\n        /* \"#utility.yul\":10751:10760   */\n      dup4\n        /* \"#utility.yul\":10747:10764   */\n      add\n        /* \"#utility.yul\":10740:10787   */\n      mstore\n        /* \"#utility.yul\":10804:10935   */\n      tag_350\n        /* \"#utility.yul\":10930:10934   */\n      dup2\n        /* \"#utility.yul\":10804:10935   */\n      tag_208\n      jump\t// in\n    tag_350:\n        /* \"#utility.yul\":10796:10935   */\n      swap1\n      pop\n        /* \"#utility.yul\":10523:10942   */\n      swap2\n      swap1\n      pop\n      jump\t// out\n        /* \"#utility.yul\":10948:11113   */\n    tag_209:\n        /* \"#utility.yul\":11088:11105   */\n      0x4c656e677468206d69736d617463680000000000000000000000000000000000\n        /* \"#utility.yul\":11084:11085   */\n      0x00\n        /* \"#utility.yul\":11076:11082   */\n      dup3\n        /* \"#utility.yul\":11072:11086   */\n      add\n        /* \"#utility.yul\":11065:11106   */\n      mstore\n        /* \"#utility.yul\":10948:11113   */\n      pop\n      jump\t// out\n        /* \"#utility.yul\":11119:11485   */\n    tag_210:\n        /* \"#utility.yul\":11261:11264   */\n      0x00\n        /* \"#utility.yul\":11282:11349   */\n      tag_353\n        /* \"#utility.yul\":11346:11348   */\n      0x0f\n        /* \"#utility.yul\":11341:11344   */\n      dup4\n        /* \"#utility.yul\":11282:11349   */\n      tag_204\n      jump\t// in\n    tag_353:\n        /* \"#utility.yul\":11275:11349   */\n      swap2\n      pop\n        /* \"#utility.yul\":11358:11451   */\n      tag_354\n        /* \"#utility.yul\":11447:11450   */\n      dup3\n        /* \"#utility.yul\":11358:11451   */\n      tag_209\n      jump\t// in\n    tag_354:\n        /* \"#utility.yul\":11476:11478   */\n      0x20\n        /* \"#utility.yul\":11471:11474   */\n      dup3\n        /* \"#utility.yul\":11467:11479   */\n      add\n        /* \"#utility.yul\":11460:11479   */\n      swap1\n      pop\n        /* \"#utility.yul\":11119:11485   */\n      swap2\n      swap1\n      pop\n      jump\t// out\n        /* \"#utility.yul\":11491:11910   */\n    tag_69:\n        /* \"#utility.yul\":11657:11661   */\n      0x00\n        /* \"#utility.yul\":11695:11697   */\n      0x20\n        /* \"#utility.yul\":11684:11693   */\n      dup3\n        /* \"#utility.yul\":11680:11698   */\n      add\n        /* \"#utility.yul\":11672:11698   */\n      swap1\n      pop\n        /* \"#utility.yul\":11744:11753   */\n      dup2\n        /* \"#utility.yul\":11738:11742   */\n      dup2\n        /* \"#utility.yul\":11734:11754   */\n      sub\n        /* \"#utility.yul\":11730:11731   */\n      0x00\n        /* \"#utility.yul\":11719:11728   */\n      dup4\n        /* \"#utility.yul\":11715:11732   */\n      add\n        /* \"#utility.yul\":11708:11755   */\n      mstore\n        /* \"#utility.yul\":11772:11903   */\n      tag_356\n        /* \"#utility.yul\":11898:11902   */\n      dup2\n        /* \"#utility.yul\":11772:11903   */\n      tag_210\n      jump\t// in\n    tag_356:\n        /* \"#utility.yul\":11764:11903   */\n      swap1\n      pop\n        /* \"#utility.yul\":11491:11910   */\n      swap2\n      swap1\n      pop\n      jump\t// out\n        /* \"#utility.yul\":11916:12096   */\n    tag_75:\n        /* \"#utility.yul\":11964:12041   */\n      0x4e487b7100000000000000000000000000000000000000000000000000000000\n        /* \"#utility.yul\":11961:11962   */\n      0x00\n        /* \"#utility.yul\":11954:12042   */\n      mstore\n        /* \"#utility.yul\":12061:12065   */\n      0x32\n        /* \"#utility.yul\":12058:12059   */\n      0x04\n        /* \"#utility.yul\":12051:12066   */\n      mstore\n        /* \"#utility.yul\":12085:12089   */\n      0x24\n        /* \"#utility.yul\":12082:12083   */\n      0x00\n        /* \"#utility.yul\":12075:12090   */\n      revert\n        /* \"#utility.yul\":12102:12431   */\n    tag_77:\n        /* \"#utility.yul\":12161:12167   */\n      0x00\n        /* \"#utility.yul\":12210:12212   */\n      0x20\n        /* \"#utility.yul\":12198:12207   */\n      dup3\n        /* \"#utility.yul\":12189:12196   */\n      dup5\n        /* \"#utility.yul\":12185:12208   */\n      sub\n        /* \"#utility.yul\":12181:12213   */\n      slt\n        /* \"#utility.yul\":12178:12297   */\n      iszero\n      tag_359\n      jumpi\n        /* \"#utility.yul\":12216:12295   */\n      tag_360\n      tag_180\n      jump\t// in\n    tag_360:\n        /* \"#utility.yul\":12178:12297   */\n    tag_359:\n        /* \"#utility.yul\":12336:12337   */\n      0x00\n        /* \"#utility.yul\":12361:12414   */\n      tag_361\n        /* \"#utility.yul\":12406:12413   */\n      dup5\n        /* \"#utility.yul\":12397:12403   */\n      dup3\n        /* \"#utility.yul\":12386:12395   */\n      dup6\n        /* \"#utility.yul\":12382:12404   */\n      add\n        /* \"#utility.yul\":12361:12414   */\n      tag_185\n      jump\t// in\n    tag_361:\n        /* \"#utility.yul\":12351:12414   */\n      swap2\n      pop\n        /* \"#utility.yul\":12307:12424   */\n      pop\n        /* \"#utility.yul\":12102:12431   */\n      swap3\n      swap2\n      pop\n      pop\n      jump\t// out\n        /* \"#utility.yul\":12437:12769   */\n    tag_81:\n        /* \"#utility.yul\":12558:12562   */\n      0x00\n        /* \"#utility.yul\":12596:12598   */\n      0x40\n        /* \"#utility.yul\":12585:12594   */\n      dup3\n        /* \"#utility.yul\":12581:12599   */\n      add\n        /* \"#utility.yul\":12573:12599   */\n      swap1\n      pop\n        /* \"#utility.yul\":12609:12680   */\n      tag_363\n        /* \"#utility.yul\":12677:12678   */\n      0x00\n        /* \"#utility.yul\":12666:12675   */\n      dup4\n        /* \"#utility.yul\":12662:12679   */\n      add\n        /* \"#utility.yul\":12653:12659   */\n      dup6\n        /* \"#utility.yul\":12609:12680   */\n      tag_202\n      jump\t// in\n    tag_363:\n        /* \"#utility.yul\":12690:12762   */\n      tag_364\n        /* \"#utility.yul\":12758:12760   */\n      0x20\n        /* \"#utility.yul\":12747:12756   */\n      dup4\n        /* \"#utility.yul\":12743:12761   */\n      add\n        /* \"#utility.yul\":12734:12740   */\n      dup5\n        /* \"#utility.yul\":12690:12762   */\n      tag_201\n      jump\t// in\n    tag_364:\n        /* \"#utility.yul\":12437:12769   */\n      swap4\n      swap3\n      pop\n      pop\n      pop\n      jump\t// out\n        /* \"#utility.yul\":12775:12912   */\n    tag_211:\n        /* \"#utility.yul\":12829:12834   */\n      0x00\n        /* \"#utility.yul\":12860:12866   */\n      dup2\n        /* \"#utility.yul\":12854:12867   */\n      mload\n        /* \"#utility.yul\":12845:12867   */\n      swap1\n      pop\n        /* \"#utility.yul\":12876:12906   */\n      tag_366\n        /* \"#utility.yul\":12900:12905   */\n      dup2\n        /* \"#utility.yul\":12876:12906   */\n      tag_192\n      jump\t// in\n    tag_366:\n        /* \"#utility.yul\":12775:12912   */\n      swap3\n      swap2\n      pop\n      pop\n      jump\t// out\n        /* \"#utility.yul\":12918:13263   */\n    tag_85:\n        /* \"#utility.yul\":12985:12991   */\n      0x00\n        /* \"#utility.yul\":13034:13036   */\n      0x20\n        /* \"#utility.yul\":13022:13031   */\n      dup3\n        /* \"#utility.yul\":13013:13020   */\n      dup5\n        /* \"#utility.yul\":13009:13032   */\n      sub\n        /* \"#utility.yul\":13005:13037   */\n      slt\n        /* \"#utility.yul\":13002:13121   */\n      iszero\n      tag_368\n      jumpi\n        /* \"#utility.yul\":13040:13119   */\n      tag_369\n      tag_180\n      jump\t// in\n    tag_369:\n        /* \"#utility.yul\":13002:13121   */\n    tag_368:\n        /* \"#utility.yul\":13160:13161   */\n      0x00\n        /* \"#utility.yul\":13185:13246   */\n      tag_370\n        /* \"#utility.yul\":13238:13245   */\n      dup5\n        /* \"#utility.yul\":13229:13235   */\n      dup3\n        /* \"#utility.yul\":13218:13227   */\n      dup6\n        /* \"#utility.yul\":13214:13236   */\n      add\n        /* \"#utility.yul\":13185:13246   */\n      tag_211\n      jump\t// in\n    tag_370:\n        /* \"#utility.yul\":13175:13246   */\n      swap2\n      pop\n        /* \"#utility.yul\":13131:13256   */\n      pop\n        /* \"#utility.yul\":12918:13263   */\n      swap3\n      swap2\n      pop\n      pop\n      jump\t// out\n        /* \"#utility.yul\":13269:13446   */\n    tag_212:\n        /* \"#utility.yul\":13409:13438   */\n      0x426174636820746f6b656e207472616e73666572206661696c65640000000000\n        /* \"#utility.yul\":13405:13406   */\n      0x00\n        /* \"#utility.yul\":13397:13403   */\n      dup3\n        /* \"#utility.yul\":13393:13407   */\n      add\n        /* \"#utility.yul\":13386:13439   */\n      mstore\n        /* \"#utility.yul\":13269:13446   */\n      pop\n      jump\t// out\n        /* \"#utility.yul\":13452:13818   */\n    tag_213:\n        /* \"#utility.yul\":13594:13597   */\n      0x00\n        /* \"#utility.yul\":13615:13682   */\n      tag_373\n        /* \"#utility.yul\":13679:13681   */\n      0x1b\n        /* \"#utility.yul\":13674:13677   */\n      dup4\n        /* \"#utility.yul\":13615:13682   */\n      tag_204\n      jump\t// in\n    tag_373:\n        /* \"#utility.yul\":13608:13682   */\n      swap2\n      pop\n        /* \"#utility.yul\":13691:13784   */\n      tag_374\n        /* \"#utility.yul\":13780:13783   */\n      dup3\n        /* \"#utility.yul\":13691:13784   */\n      tag_212\n      jump\t// in\n    tag_374:\n        /* \"#utility.yul\":13809:13811   */\n      0x20\n        /* \"#utility.yul\":13804:13807   */\n      dup3\n        /* \"#utility.yul\":13800:13812   */\n      add\n        /* \"#utility.yul\":13793:13812   */\n      swap1\n      pop\n        /* \"#utility.yul\":13452:13818   */\n      swap2\n      swap1\n      pop\n      jump\t// out\n        /* \"#utility.yul\":13824:14243   */\n    tag_88:\n        /* \"#utility.yul\":13990:13994   */\n      0x00\n        /* \"#utility.yul\":14028:14030   */\n      0x20\n        /* \"#utility.yul\":14017:14026   */\n      dup3\n        /* \"#utility.yul\":14013:14031   */\n      add\n        /* \"#utility.yul\":14005:14031   */\n      swap1\n      pop\n        /* \"#utility.yul\":14077:14086   */\n      dup2\n        /* \"#utility.yul\":14071:14075   */\n      dup2\n        /* \"#utility.yul\":14067:14087   */\n      sub\n        /* \"#utility.yul\":14063:14064   */\n      0x00\n        /* \"#utility.yul\":14052:14061   */\n      dup4\n        /* \"#utility.yul\":14048:14065   */\n      add\n        /* \"#utility.yul\":14041:14088   */\n      mstore\n        /* \"#utility.yul\":14105:14236   */\n      tag_376\n        /* \"#utility.yul\":14231:14235   */\n      dup2\n        /* \"#utility.yul\":14105:14236   */\n      tag_213\n      jump\t// in\n    tag_376:\n        /* \"#utility.yul\":14097:14236   */\n      swap1\n      pop\n        /* \"#utility.yul\":13824:14243   */\n      swap2\n      swap1\n      pop\n      jump\t// out\n        /* \"#utility.yul\":14249:14414   */\n    tag_214:\n        /* \"#utility.yul\":14389:14406   */\n      0x496e76616c696420616464726573730000000000000000000000000000000000\n        /* \"#utility.yul\":14385:14386   */\n      0x00\n        /* \"#utility.yul\":14377:14383   */\n      dup3\n        /* \"#utility.yul\":14373:14387   */\n      add\n        /* \"#utility.yul\":14366:14407   */\n      mstore\n        /* \"#utility.yul\":14249:14414   */\n      pop\n      jump\t// out\n        /* \"#utility.yul\":14420:14786   */\n    tag_215:\n        /* \"#utility.yul\":14562:14565   */\n      0x00\n        /* \"#utility.yul\":14583:14650   */\n      tag_379\n        /* \"#utility.yul\":14647:14649   */\n      0x0f\n        /* \"#utility.yul\":14642:14645   */\n      dup4\n        /* \"#utility.yul\":14583:14650   */\n      tag_204\n      jump\t// in\n    tag_379:\n        /* \"#utility.yul\":14576:14650   */\n      swap2\n      pop\n        /* \"#utility.yul\":14659:14752   */\n      tag_380\n        /* \"#utility.yul\":14748:14751   */\n      dup3\n        /* \"#utility.yul\":14659:14752   */\n      tag_214\n      jump\t// in\n    tag_380:\n        /* \"#utility.yul\":14777:14779   */\n      0x20\n        /* \"#utility.yul\":14772:14775   */\n      dup3\n        /* \"#utility.yul\":14768:14780   */\n      add\n        /* \"#utility.yul\":14761:14780   */\n      swap1\n      pop\n        /* \"#utility.yul\":14420:14786   */\n      swap2\n      swap1\n      pop\n      jump\t// out\n        /* \"#utility.yul\":14792:15211   */\n    tag_101:\n        /* \"#utility.yul\":14958:14962   */\n      0x00\n        /* \"#utility.yul\":14996:14998   */\n      0x20\n        /* \"#utility.yul\":14985:14994   */\n      dup3\n        /* \"#utility.yul\":14981:14999   */\n      add\n        /* \"#utility.yul\":14973:14999   */\n      swap1\n      pop\n        /* \"#utility.yul\":15045:15054   */\n      dup2\n        /* \"#utility.yul\":15039:15043   */\n      dup2\n        /* \"#utility.yul\":15035:15055   */\n      sub\n        /* \"#utility.yul\":15031:15032   */\n      0x00\n        /* \"#utility.yul\":15020:15029   */\n      dup4\n        /* \"#utility.yul\":15016:15033   */\n      add\n        /* \"#utility.yul\":15009:15056   */\n      mstore\n        /* \"#utility.yul\":15073:15204   */\n      tag_382\n        /* \"#utility.yul\":15199:15203   */\n      dup2\n        /* \"#utility.yul\":15073:15204   */\n      tag_215\n      jump\t// in\n    tag_382:\n        /* \"#utility.yul\":15065:15204   */\n      swap1\n      pop\n        /* \"#utility.yul\":14792:15211   */\n      swap2\n      swap1\n      pop\n      jump\t// out\n        /* \"#utility.yul\":15217:15396   */\n    tag_216:\n        /* \"#utility.yul\":15357:15388   */\n      0x416d6f756e74206d7573742062652067726561746572207468616e2030000000\n        /* \"#utility.yul\":15353:15354   */\n      0x00\n        /* \"#utility.yul\":15345:15351   */\n      dup3\n        /* \"#utility.yul\":15341:15355   */\n      add\n        /* \"#utility.yul\":15334:15389   */\n      mstore\n        /* \"#utility.yul\":15217:15396   */\n      pop\n      jump\t// out\n        /* \"#utility.yul\":15402:15768   */\n    tag_217:\n        /* \"#utility.yul\":15544:15547   */\n      0x00\n        /* \"#utility.yul\":15565:15632   */\n      tag_385\n        /* \"#utility.yul\":15629:15631   */\n      0x1d\n        /* \"#utility.yul\":15624:15627   */\n      dup4\n        /* \"#utility.yul\":15565:15632   */\n      tag_204\n      jump\t// in\n    tag_385:\n        /* \"#utility.yul\":15558:15632   */\n      swap2\n      pop\n        /* \"#utility.yul\":15641:15734   */\n      tag_386\n        /* \"#utility.yul\":15730:15733   */\n      dup3\n        /* \"#utility.yul\":15641:15734   */\n      tag_216\n      jump\t// in\n    tag_386:\n        /* \"#utility.yul\":15759:15761   */\n      0x20\n        /* \"#utility.yul\":15754:15757   */\n      dup3\n        /* \"#utility.yul\":15750:15762   */\n      add\n        /* \"#utility.yul\":15743:15762   */\n      swap1\n      pop\n        /* \"#utility.yul\":15402:15768   */\n      swap2\n      swap1\n      pop\n      jump\t// out\n        /* \"#utility.yul\":15774:16193   */\n    tag_104:\n        /* \"#utility.yul\":15940:15944   */\n      0x00\n        /* \"#utility.yul\":15978:15980   */\n      0x20\n        /* \"#utility.yul\":15967:15976   */\n      dup3\n        /* \"#utility.yul\":15963:15981   */\n      add\n        /* \"#utility.yul\":15955:15981   */\n      swap1\n      pop\n        /* \"#utility.yul\":16027:16036   */\n      dup2\n        /* \"#utility.yul\":16021:16025   */\n      dup2\n        /* \"#utility.yul\":16017:16037   */\n      sub\n        /* \"#utility.yul\":16013:16014   */\n      0x00\n        /* \"#utility.yul\":16002:16011   */\n      dup4\n        /* \"#utility.yul\":15998:16015   */\n      add\n        /* \"#utility.yul\":15991:16038   */\n      mstore\n        /* \"#utility.yul\":16055:16186   */\n      tag_388\n        /* \"#utility.yul\":16181:16185   */\n      dup2\n        /* \"#utility.yul\":16055:16186   */\n      tag_217\n      jump\t// in\n    tag_388:\n        /* \"#utility.yul\":16047:16186   */\n      swap1\n      pop\n        /* \"#utility.yul\":15774:16193   */\n      swap2\n      swap1\n      pop\n      jump\t// out\n        /* \"#utility.yul\":16199:16346   */\n    tag_218:\n        /* \"#utility.yul\":16300:16311   */\n      0x00\n        /* \"#utility.yul\":16337:16340   */\n      dup2\n        /* \"#utility.yul\":16322:16340   */\n      swap1\n      pop\n        /* \"#utility.yul\":16199:16346   */\n      swap3\n      swap2\n      pop\n      pop\n      jump\t// out\n        /* \"#utility.yul\":16352:16466   */\n    tag_219:\n      pop\n      jump\t// out\n        /* \"#utility.yul\":16472:16870   */\n    tag_220:\n        /* \"#utility.yul\":16631:16634   */\n      0x00\n        /* \"#utility.yul\":16652:16735   */\n      tag_392\n        /* \"#utility.yul\":16733:16734   */\n      0x00\n        /* \"#utility.yul\":16728:16731   */\n      dup4\n        /* \"#utility.yul\":16652:16735   */\n      tag_218\n      jump\t// in\n    tag_392:\n        /* \"#utility.yul\":16645:16735   */\n      swap2\n      pop\n        /* \"#utility.yul\":16744:16837   */\n      tag_393\n        /* \"#utility.yul\":16833:16836   */\n      dup3\n        /* \"#utility.yul\":16744:16837   */\n      tag_219\n      jump\t// in\n    tag_393:\n        /* \"#utility.yul\":16862:16863   */\n      0x00\n        /* \"#utility.yul\":16857:16860   */\n      dup3\n        /* \"#utility.yul\":16853:16864   */\n      add\n        /* \"#utility.yul\":16846:16864   */\n      swap1\n      pop\n        /* \"#utility.yul\":16472:16870   */\n      swap2\n      swap1\n      pop\n      jump\t// out\n        /* \"#utility.yul\":16876:17255   */\n    tag_106:\n        /* \"#utility.yul\":17060:17063   */\n      0x00\n        /* \"#utility.yul\":17082:17229   */\n      tag_395\n        /* \"#utility.yul\":17225:17228   */\n      dup3\n        /* \"#utility.yul\":17082:17229   */\n      tag_220\n      jump\t// in\n    tag_395:\n        /* \"#utility.yul\":17075:17229   */\n      swap2\n      pop\n        /* \"#utility.yul\":17246:17249   */\n      dup2\n        /* \"#utility.yul\":17239:17249   */\n      swap1\n      pop\n        /* \"#utility.yul\":16876:17255   */\n      swap2\n      swap1\n      pop\n      jump\t// out\n        /* \"#utility.yul\":17261:17430   */\n    tag_221:\n        /* \"#utility.yul\":17401:17422   */\n      0x455448207472616e73666572206661696c656400000000000000000000000000\n        /* \"#utility.yul\":17397:17398   */\n      0x00\n        /* \"#utility.yul\":17389:17395   */\n      dup3\n        /* \"#utility.yul\":17385:17399   */\n      add\n        /* \"#utility.yul\":17378:17423   */\n      mstore\n        /* \"#utility.yul\":17261:17430   */\n      pop\n      jump\t// out\n        /* \"#utility.yul\":17436:17802   */\n    tag_222:\n        /* \"#utility.yul\":17578:17581   */\n      0x00\n        /* \"#utility.yul\":17599:17666   */\n      tag_398\n        /* \"#utility.yul\":17663:17665   */\n      0x13\n        /* \"#utility.yul\":17658:17661   */\n      dup4\n        /* \"#utility.yul\":17599:17666   */\n      tag_204\n      jump\t// in\n    tag_398:\n        /* \"#utility.yul\":17592:17666   */\n      swap2\n      pop\n        /* \"#utility.yul\":17675:17768   */\n      tag_399\n        /* \"#utility.yul\":17764:17767   */\n      dup3\n        /* \"#utility.yul\":17675:17768   */\n      tag_221\n      jump\t// in\n    tag_399:\n        /* \"#utility.yul\":17793:17795   */\n      0x20\n        /* \"#utility.yul\":17788:17791   */\n      dup3\n        /* \"#utility.yul\":17784:17796   */\n      add\n        /* \"#utility.yul\":17777:17796   */\n      swap1\n      pop\n        /* \"#utility.yul\":17436:17802   */\n      swap2\n      swap1\n      pop\n      jump\t// out\n        /* \"#utility.yul\":17808:18227   */\n    tag_112:\n        /* \"#utility.yul\":17974:17978   */\n      0x00\n        /* \"#utility.yul\":18012:18014   */\n      0x20\n        /* \"#utility.yul\":18001:18010   */\n      dup3\n        /* \"#utility.yul\":17997:18015   */\n      add\n        /* \"#utility.yul\":17989:18015   */\n      swap1\n      pop\n        /* \"#utility.yul\":18061:18070   */\n      dup2\n        /* \"#utility.yul\":18055:18059   */\n      dup2\n        /* \"#utility.yul\":18051:18071   */\n      sub\n        /* \"#utility.yul\":18047:18048   */\n      0x00\n        /* \"#utility.yul\":18036:18045   */\n      dup4\n        /* \"#utility.yul\":18032:18049   */\n      add\n        /* \"#utility.yul\":18025:18072   */\n      mstore\n        /* \"#utility.yul\":18089:18220   */\n      tag_401\n        /* \"#utility.yul\":18215:18219   */\n      dup2\n        /* \"#utility.yul\":18089:18220   */\n      tag_222\n      jump\t// in\n    tag_401:\n        /* \"#utility.yul\":18081:18220   */\n      swap1\n      pop\n        /* \"#utility.yul\":17808:18227   */\n      swap2\n      swap1\n      pop\n      jump\t// out\n        /* \"#utility.yul\":18233:18403   */\n    tag_223:\n        /* \"#utility.yul\":18373:18395   */\n      0x496e73756666696369656e742062616c616e6365000000000000000000000000\n        /* \"#utility.yul\":18369:18370   */\n      0x00\n        /* \"#utility.yul\":18361:18367   */\n      dup3\n        /* \"#utility.yul\":18357:18371   */\n      add\n        /* \"#utility.yul\":18350:18396   */\n      mstore\n        /* \"#utility.yul\":18233:18403   */\n      pop\n      jump\t// out\n        /* \"#utility.yul\":18409:18775   */\n    tag_224:\n        /* \"#utility.yul\":18551:18554   */\n      0x00\n        /* \"#utility.yul\":18572:18639   */\n      tag_404\n        /* \"#utility.yul\":18636:18638   */\n      0x14\n        /* \"#utility.yul\":18631:18634   */\n      dup4\n        /* \"#utility.yul\":18572:18639   */\n      tag_204\n      jump\t// in\n    tag_404:\n        /* \"#utility.yul\":18565:18639   */\n      swap2\n      pop\n        /* \"#utility.yul\":18648:18741   */\n      tag_405\n        /* \"#utility.yul\":18737:18740   */\n      dup3\n        /* \"#utility.yul\":18648:18741   */\n      tag_223\n      jump\t// in\n    tag_405:\n        /* \"#utility.yul\":18766:18768   */\n      0x20\n        /* \"#utility.yul\":18761:18764   */\n      dup3\n        /* \"#utility.yul\":18757:18769   */\n      add\n        /* \"#utility.yul\":18750:18769   */\n      swap1\n      pop\n        /* \"#utility.yul\":18409:18775   */\n      swap2\n      swap1\n      pop\n      jump\t// out\n        /* \"#utility.yul\":18781:19200   */\n    tag_120:\n        /* \"#utility.yul\":18947:18951   */\n      0x00\n        /* \"#utility.yul\":18985:18987   */\n      0x20\n        /* \"#utility.yul\":18974:18983   */\n      dup3\n        /* \"#utility.yul\":18970:18988   */\n      add\n        /* \"#utility.yul\":18962:18988   */\n      swap1\n      pop\n        /* \"#utility.yul\":19034:19043   */\n      dup2\n        /* \"#utility.yul\":19028:19032   */\n      dup2\n        /* \"#utility.yul\":19024:19044   */\n      sub\n        /* \"#utility.yul\":19020:19021   */\n      0x00\n        /* \"#utility.yul\":19009:19018   */\n      dup4\n        /* \"#utility.yul\":19005:19022   */\n      add\n        /* \"#utility.yul\":18998:19045   */\n      mstore\n        /* \"#utility.yul\":19062:19193   */\n      tag_407\n        /* \"#utility.yul\":19188:19192   */\n      dup2\n        /* \"#utility.yul\":19062:19193   */\n      tag_224\n      jump\t// in\n    tag_407:\n        /* \"#utility.yul\":19054:19193   */\n      swap1\n      pop\n        /* \"#utility.yul\":18781:19200   */\n      swap2\n      swap1\n      pop\n      jump\t// out\n        /* \"#utility.yul\":19206:19371   */\n    tag_225:\n        /* \"#utility.yul\":19346:19363   */\n      0x5769746864726177206661696c65640000000000000000000000000000000000\n        /* \"#utility.yul\":19342:19343   */\n      0x00\n        /* \"#utility.yul\":19334:19340   */\n      dup3\n        /* \"#utility.yul\":19330:19344   */\n      add\n        /* \"#utility.yul\":19323:19364   */\n      mstore\n        /* \"#utility.yul\":19206:19371   */\n      pop\n      jump\t// out\n        /* \"#utility.yul\":19377:19743   */\n    tag_226:\n        /* \"#utility.yul\":19519:19522   */\n      0x00\n        /* \"#utility.yul\":19540:19607   */\n      tag_410\n        /* \"#utility.yul\":19604:19606   */\n      0x0f\n        /* \"#utility.yul\":19599:19602   */\n      dup4\n        /* \"#utility.yul\":19540:19607   */\n      tag_204\n      jump\t// in\n    tag_410:\n        /* \"#utility.yul\":19533:19607   */\n      swap2\n      pop\n        /* \"#utility.yul\":19616:19709   */\n      tag_411\n        /* \"#utility.yul\":19705:19708   */\n      dup3\n        /* \"#utility.yul\":19616:19709   */\n      tag_225\n      jump\t// in\n    tag_411:\n        /* \"#utility.yul\":19734:19736   */\n      0x20\n        /* \"#utility.yul\":19729:19732   */\n      dup3\n        /* \"#utility.yul\":19725:19737   */\n      add\n        /* \"#utility.yul\":19718:19737   */\n      swap1\n      pop\n        /* \"#utility.yul\":19377:19743   */\n      swap2\n      swap1\n      pop\n      jump\t// out\n        /* \"#utility.yul\":19749:20168   */\n    tag_127:\n        /* \"#utility.yul\":19915:19919   */\n      0x00\n        /* \"#utility.yul\":19953:19955   */\n      0x20\n        /* \"#utility.yul\":19942:19951   */\n      dup3\n        /* \"#utility.yul\":19938:19956   */\n      add\n        /* \"#utility.yul\":19930:19956   */\n      swap1\n      pop\n        /* \"#utility.yul\":20002:20011   */\n      dup2\n        /* \"#utility.yul\":19996:20000   */\n      dup2\n        /* \"#utility.yul\":19992:20012   */\n      sub\n        /* \"#utility.yul\":19988:19989   */\n      0x00\n        /* \"#utility.yul\":19977:19986   */\n      dup4\n        /* \"#utility.yul\":19973:19990   */\n      add\n        /* \"#utility.yul\":19966:20013   */\n      mstore\n        /* \"#utility.yul\":20030:20161   */\n      tag_413\n        /* \"#utility.yul\":20156:20160   */\n      dup2\n        /* \"#utility.yul\":20030:20161   */\n      tag_226\n      jump\t// in\n    tag_413:\n        /* \"#utility.yul\":20022:20161   */\n      swap1\n      pop\n        /* \"#utility.yul\":19749:20168   */\n      swap2\n      swap1\n      pop\n      jump\t// out\n        /* \"#utility.yul\":20174:20345   */\n    tag_227:\n        /* \"#utility.yul\":20314:20337   */\n      0x546f6b656e207472616e73666572206661696c65640000000000000000000000\n        /* \"#utility.yul\":20310:20311   */\n      0x00\n        /* \"#utility.yul\":20302:20308   */\n      dup3\n        /* \"#utility.yul\":20298:20312   */\n      add\n        /* \"#utility.yul\":20291:20338   */\n      mstore\n        /* \"#utility.yul\":20174:20345   */\n      pop\n      jump\t// out\n        /* \"#utility.yul\":20351:20717   */\n    tag_228:\n        /* \"#utility.yul\":20493:20496   */\n      0x00\n        /* \"#utility.yul\":20514:20581   */\n      tag_416\n        /* \"#utility.yul\":20578:20580   */\n      0x15\n        /* \"#utility.yul\":20573:20576   */\n      dup4\n        /* \"#utility.yul\":20514:20581   */\n      tag_204\n      jump\t// in\n    tag_416:\n        /* \"#utility.yul\":20507:20581   */\n      swap2\n      pop\n        /* \"#utility.yul\":20590:20683   */\n      tag_417\n        /* \"#utility.yul\":20679:20682   */\n      dup3\n        /* \"#utility.yul\":20590:20683   */\n      tag_227\n      jump\t// in\n    tag_417:\n        /* \"#utility.yul\":20708:20710   */\n      0x20\n        /* \"#utility.yul\":20703:20706   */\n      dup3\n        /* \"#utility.yul\":20699:20711   */\n      add\n        /* \"#utility.yul\":20692:20711   */\n      swap1\n      pop\n        /* \"#utility.yul\":20351:20717   */\n      swap2\n      swap1\n      pop\n      jump\t// out\n        /* \"#utility.yul\":20723:21142   */\n    tag_144:\n        /* \"#utility.yul\":20889:20893   */\n      0x00\n        /* \"#utility.yul\":20927:20929   */\n      0x20\n        /* \"#utility.yul\":20916:20925   */\n      dup3\n        /* \"#utility.yul\":20912:20930   */\n      add\n        /* \"#utility.yul\":20904:20930   */\n      swap1\n      pop\n        /* \"#utility.yul\":20976:20985   */\n      dup2\n        /* \"#utility.yul\":20970:20974   */\n      dup2\n        /* \"#utility.yul\":20966:20986   */\n      sub\n        /* \"#utility.yul\":20962:20963   */\n      0x00\n        /* \"#utility.yul\":20951:20960   */\n      dup4\n        /* \"#utility.yul\":20947:20964   */\n      add\n        /* \"#utility.yul\":20940:20987   */\n      mstore\n        /* \"#utility.yul\":21004:21135   */\n      tag_419\n        /* \"#utility.yul\":21130:21134   */\n      dup2\n        /* \"#utility.yul\":21004:21135   */\n      tag_228\n      jump\t// in\n    tag_419:\n        /* \"#utility.yul\":20996:21135   */\n      swap1\n      pop\n        /* \"#utility.yul\":20723:21142   */\n      swap2\n      swap1\n      pop\n      jump\t// out\n        /* \"#utility.yul\":21148:21328   */\n    tag_229:\n        /* \"#utility.yul\":21196:21273   */\n      0x4e487b7100000000000000000000000000000000000000000000000000000000\n        /* \"#utility.yul\":21193:21194   */\n      0x00\n        /* \"#utility.yul\":21186:21274   */\n      mstore\n        /* \"#utility.yul\":21293:21297   */\n      0x11\n        /* \"#utility.yul\":21290:21291   */\n      0x04\n        /* \"#utility.yul\":21283:21298   */\n      mstore\n        /* \"#utility.yul\":21317:21321   */\n      0x24\n        /* \"#utility.yul\":21314:21315   */\n      0x00\n        /* \"#utility.yul\":21307:21322   */\n      revert\n        /* \"#utility.yul\":21334:21525   */\n    tag_159:\n        /* \"#utility.yul\":21374:21377   */\n      0x00\n        /* \"#utility.yul\":21393:21413   */\n      tag_422\n        /* \"#utility.yul\":21411:21412   */\n      dup3\n        /* \"#utility.yul\":21393:21413   */\n      tag_197\n      jump\t// in\n    tag_422:\n        /* \"#utility.yul\":21388:21413   */\n      swap2\n      pop\n        /* \"#utility.yul\":21427:21447   */\n      tag_423\n        /* \"#utility.yul\":21445:21446   */\n      dup4\n        /* \"#utility.yul\":21427:21447   */\n      tag_197\n      jump\t// in\n    tag_423:\n        /* \"#utility.yul\":21422:21447   */\n      swap3\n      pop\n        /* \"#utility.yul\":21470:21471   */\n      dup3\n        /* \"#utility.yul\":21467:21468   */\n      dup3\n        /* \"#utility.yul\":21463:21472   */\n      add\n        /* \"#utility.yul\":21456:21472   */\n      swap1\n      pop\n        /* \"#utility.yul\":21491:21494   */\n      dup1\n        /* \"#utility.yul\":21488:21489   */\n      dup3\n        /* \"#utility.yul\":21485:21495   */\n      gt\n        /* \"#utility.yul\":21482:21518   */\n      iszero\n      tag_424\n      jumpi\n        /* \"#utility.yul\":21498:21516   */\n      tag_425\n      tag_229\n      jump\t// in\n    tag_425:\n        /* \"#utility.yul\":21482:21518   */\n    tag_424:\n        /* \"#utility.yul\":21334:21525   */\n      swap3\n      swap2\n      pop\n      pop\n      jump\t// out\n        /* \"#utility.yul\":21531:21701   */\n    tag_230:\n        /* \"#utility.yul\":21671:21693   */\n      0x496e636f72726563742045544820616d6f756e74000000000000000000000000\n        /* \"#utility.yul\":21667:21668   */\n      0x00\n        /* \"#utility.yul\":21659:21665   */\n      dup3\n        /* \"#utility.yul\":21655:21669   */\n      add\n        /* \"#utility.yul\":21648:21694   */\n      mstore\n        /* \"#utility.yul\":21531:21701   */\n      pop\n      jump\t// out\n        /* \"#utility.yul\":21707:22073   */\n    tag_231:\n        /* \"#utility.yul\":21849:21852   */\n      0x00\n        /* \"#utility.yul\":21870:21937   */\n      tag_428\n        /* \"#utility.yul\":21934:21936   */\n      0x14\n        /* \"#utility.yul\":21929:21932   */\n      dup4\n        /* \"#utility.yul\":21870:21937   */\n      tag_204\n      jump\t// in\n    tag_428:\n        /* \"#utility.yul\":21863:21937   */\n      swap2\n      pop\n        /* \"#utility.yul\":21946:22039   */\n      tag_429\n        /* \"#utility.yul\":22035:22038   */\n      dup3\n        /* \"#utility.yul\":21946:22039   */\n      tag_230\n      jump\t// in\n    tag_429:\n        /* \"#utility.yul\":22064:22066   */\n      0x20\n        /* \"#utility.yul\":22059:22062   */\n      dup3\n        /* \"#utility.yul\":22055:22067   */\n      add\n        /* \"#utility.yul\":22048:22067   */\n      swap1\n      pop\n        /* \"#utility.yul\":21707:22073   */\n      swap2\n      swap1\n      pop\n      jump\t// out\n        /* \"#utility.yul\":22079:22498   */\n    tag_162:\n        /* \"#utility.yul\":22245:22249   */\n      0x00\n        /* \"#utility.yul\":22283:22285   */\n      0x20\n        /* \"#utility.yul\":22272:22281   */\n      dup3\n        /* \"#utility.yul\":22268:22286   */\n      add\n        /* \"#utility.yul\":22260:22286   */\n      swap1\n      pop\n        /* \"#utility.yul\":22332:22341   */\n      dup2\n        /* \"#utility.yul\":22326:22330   */\n      dup2\n        /* \"#utility.yul\":22322:22342   */\n      sub\n        /* \"#utility.yul\":22318:22319   */\n      0x00\n        /* \"#utility.yul\":22307:22316   */\n      dup4\n        /* \"#utility.yul\":22303:22320   */\n      add\n        /* \"#utility.yul\":22296:22343   */\n      mstore\n        /* \"#utility.yul\":22360:22491   */\n      tag_431\n        /* \"#utility.yul\":22486:22490   */\n      dup2\n        /* \"#utility.yul\":22360:22491   */\n      tag_231\n      jump\t// in\n    tag_431:\n        /* \"#utility.yul\":22352:22491   */\n      swap1\n      pop\n        /* \"#utility.yul\":22079:22498   */\n      swap2\n      swap1\n      pop\n      jump\t// out\n        /* \"#utility.yul\":22504:22679   */\n    tag_232:\n        /* \"#utility.yul\":22644:22671   */\n      0x455448206261746368207472616e73666572206661696c656400000000000000\n        /* \"#utility.yul\":22640:22641   */\n      0x00\n        /* \"#utility.yul\":22632:22638   */\n      dup3\n        /* \"#utility.yul\":22628:22642   */\n      add\n        /* \"#utility.yul\":22621:22672   */\n      mstore\n        /* \"#utility.yul\":22504:22679   */\n      pop\n      jump\t// out\n        /* \"#utility.yul\":22685:23051   */\n    tag_233:\n        /* \"#utility.yul\":22827:22830   */\n      0x00\n        /* \"#utility.yul\":22848:22915   */\n      tag_434\n        /* \"#utility.yul\":22912:22914   */\n      0x19\n        /* \"#utility.yul\":22907:22910   */\n      dup4\n        /* \"#utility.yul\":22848:22915   */\n      tag_204\n      jump\t// in\n    tag_434:\n        /* \"#utility.yul\":22841:22915   */\n      swap2\n      pop\n        /* \"#utility.yul\":22924:23017   */\n      tag_435\n        /* \"#utility.yul\":23013:23016   */\n      dup3\n        /* \"#utility.yul\":22924:23017   */\n      tag_232\n      jump\t// in\n    tag_435:\n        /* \"#utility.yul\":23042:23044   */\n      0x20\n        /* \"#utility.yul\":23037:23040   */\n      dup3\n        /* \"#utility.yul\":23033:23045   */\n      add\n        /* \"#utility.yul\":23026:23045   */\n      swap1\n      pop\n        /* \"#utility.yul\":22685:23051   */\n      swap2\n      swap1\n      pop\n      jump\t// out\n        /* \"#utility.yul\":23057:23476   */\n    tag_177:\n        /* \"#utility.yul\":23223:23227   */\n      0x00\n        /* \"#utility.yul\":23261:23263   */\n      0x20\n        /* \"#utility.yul\":23250:23259   */\n      dup3\n        /* \"#utility.yul\":23246:23264   */\n      add\n        /* \"#utility.yul\":23238:23264   */\n      swap1\n      pop\n        /* \"#utility.yul\":23310:23319   */\n      dup2\n        /* \"#utility.yul\":23304:23308   */\n      dup2\n        /* \"#utility.yul\":23300:23320   */\n      sub\n        /* \"#utility.yul\":23296:23297   */\n      0x00\n        /* \"#utility.yul\":23285:23294   */\n      dup4\n        /* \"#utility.yul\":23281:23298   */\n      add\n        /* \"#utility.yul\":23274:23321   */\n      mstore\n        /* \"#utility.yul\":23338:23469   */\n      tag_437\n        /* \"#utility.yul\":23464:23468   */\n      dup2\n        /* \"#utility.yul\":23338:23469   */\n      tag_233\n      jump\t// in\n    tag_437:\n        /* \"#utility.yul\":23330:23469   */\n      swap1\n      pop\n        /* \"#utility.yul\":23057:23476   */\n      swap2\n      swap1\n      pop\n      jump\t// out\n\n    auxdata: 0xa26469706673582212202f51d7a87ba599d3a39bc3af081635a38fe0dcbd7c8db45a8f90be455353387b64736f6c63430008180033\n}\n",
				"bytecode": {
					"linkReferences": {},
					"object": "608060405234801561000f575f80fd5b50335f806101000a81548173ffffffffffffffffffffffffffffffffffffffff021916908373ffffffffffffffffffffffffffffffffffffffff1602179055506119558061005c5f395ff3fe608060405260043610610089575f3560e01c80632fdcfbd2116100585780632fdcfbd2146101285780635c975abb146101505780638b7afe2e1461017a5780638da5cb5b146101a4578063c76bd193146101ce57610090565b80631560c8ab1461009457806316c38b3c146100bc57806321b1e5f8146100e45780632e1a7d4d1461010057610090565b3661009057005b5f80fd5b34801561009f575f80fd5b506100ba60048036038101906100b59190610f80565b6101ea565b005b3480156100c7575f80fd5b506100e260048036038101906100dd9190611046565b61047b565b005b6100fe60048036038101906100f991906110ac565b61055b565b005b34801561010b575f80fd5b506101266004803603810190610121919061110a565b610754565b005b348015610133575f80fd5b5061014e60048036038101906101499190611135565b61095d565b005b34801561015b575f80fd5b50610164610bcb565b6040516101719190611194565b60405180910390f35b348015610185575f80fd5b5061018e610bdd565b60405161019b91906111bc565b60405180910390f35b3480156101af575f80fd5b506101b8610be4565b6040516101c591906111e4565b60405180910390f35b6101e860048036038101906101e39190611252565b610c07565b005b5f60149054906101000a900460ff1615610239576040517f08c379a00000000000000000000000000000000000000000000000000000000081526004016102309061132a565b60405180910390fd5b5f8054906101000a900473ffffffffffffffffffffffffffffffffffffffff1673ffffffffffffffffffffffffffffffffffffffff163373ffffffffffffffffffffffffffffffffffffffff16146102c6576040517f08c379a00000000000000000000000000000000000000000000000000000000081526004016102bd90611392565b60405180910390fd5b81819050848490501461030e576040517f08c379a0000000000000000000000000000000000000000000000000000000008152600401610305906113fa565b60405180910390fd5b5f5b84849050811015610422578573ffffffffffffffffffffffffffffffffffffffff1663a9059cbb86868481811061034a57610349611418565b5b905060200201602081019061035f9190611445565b85858581811061037257610371611418565b5b905060200201356040518363ffffffff1660e01b8152600401610396929190611470565b6020604051808303815f875af11580156103b2573d5f803e3d5ffd5b505050506040513d601f19601f820116820180604052508101906103d691906114ab565b610415576040517f08c379a000000000000000000000000000000000000000000000000000000000815260040161040c90611520565b60405180910390fd5b8080600101915050610310565b508473ffffffffffffffffffffffffffffffffffffffff167fd564f04423cdb7294f24e81573156426d5c2638782db71fcf75f1ec2f5a073658585905060405161046c91906111bc565b60405180910390a25050505050565b5f8054906101000a900473ffffffffffffffffffffffffffffffffffffffff1673ffffffffffffffffffffffffffffffffffffffff163373ffffffffffffffffffffffffffffffffffffffff1614610508576040517f08c379a00000000000000000000000000000000000000000000000000000000081526004016104ff90611392565b60405180910390fd5b805f60146101000a81548160ff0219169083151502179055507f0e2fb031ee032dc02d8011dc50b816eb450cf856abd8261680dac74f72165bd2816040516105509190611194565b60405180910390a150565b5f60149054906101000a900460ff16156105aa576040517f08c379a00000000000000000000000000000000000000000000000000000000081526004016105a19061132a565b60405180910390fd5b5f73ffffffffffffffffffffffffffffffffffffffff168173ffffffffffffffffffffffffffffffffffffffff1603610618576040517f08c379a000000000000000000000000000000000000000000000000000000000815260040161060f90611588565b60405180910390fd5b5f341161065a576040517f08c379a0000000000000000000000000000000000000000000000000000000008152600401610651906115f0565b60405180910390fd5b5f8173ffffffffffffffffffffffffffffffffffffffff163460405161067f9061163b565b5f6040518083038185875af1925050503d805f81146106b9576040519150601f19603f3d011682016040523d82523d5f602084013e6106be565b606091505b5050905080610702576040517f08c379a00000000000000000000000000000000000000000000000000000000081526004016106f990611699565b60405180910390fd5b8173ffffffffffffffffffffffffffffffffffffffff167f78f5cdad99320ec2ba57132d7dffb1d125775c823239e60ff5e9300fd4ac898c3460405161074891906111bc565b60405180910390a25050565b5f8054906101000a900473ffffffffffffffffffffffffffffffffffffffff1673ffffffffffffffffffffffffffffffffffffffff163373ffffffffffffffffffffffffffffffffffffffff16146107e1576040517f08c379a00000000000000000000000000000000000000000000000000000000081526004016107d890611392565b60405180910390fd5b80471015610824576040517f08c379a000000000000000000000000000000000000000000000000000000000815260040161081b90611701565b60405180910390fd5b5f805f9054906101000a900473ffffffffffffffffffffffffffffffffffffffff1673ffffffffffffffffffffffffffffffffffffffff16826040516108699061163b565b5f6040518083038185875af1925050503d805f81146108a3576040519150601f19603f3d011682016040523d82523d5f602084013e6108a8565b606091505b50509050806108ec576040517f08c379a00000000000000000000000000000000000000000000000000000000081526004016108e390611769565b60405180910390fd5b5f8054906101000a900473ffffffffffffffffffffffffffffffffffffffff1673ffffffffffffffffffffffffffffffffffffffff167f884edad9ce6fa2440d8a54cc123490eb96d2768479d49ff9c7366125a94243648360405161095191906111bc565b60405180910390a25050565b5f60149054906101000a900460ff16156109ac576040517f08c379a00000000000000000000000000000000000000000000000000000000081526004016109a39061132a565b60405180910390fd5b5f8054906101000a900473ffffffffffffffffffffffffffffffffffffffff1673ffffffffffffffffffffffffffffffffffffffff163373ffffffffffffffffffffffffffffffffffffffff1614610a39576040517f08c379a0000000000000000000000000000000000000000000000000000000008152600401610a3090611392565b60405180910390fd5b5f73ffffffffffffffffffffffffffffffffffffffff168273ffffffffffffffffffffffffffffffffffffffff1603610aa7576040517f08c379a0000000000000000000000000000000000000000000000000000000008152600401610a9e90611588565b60405180910390fd5b8273ffffffffffffffffffffffffffffffffffffffff1663a9059cbb83836040518363ffffffff1660e01b8152600401610ae2929190611470565b6020604051808303815f875af1158015610afe573d5f803e3d5ffd5b505050506040513d601f19601f82011682018060405250810190610b2291906114ab565b610b61576040517f08c379a0000000000000000000000000000000000000000000000000000000008152600401610b58906117d1565b60405180910390fd5b8173ffffffffffffffffffffffffffffffffffffffff168373ffffffffffffffffffffffffffffffffffffffff167f3ddb739c68dd901671f09fbe0bc2344c179ed55f8e8110a7c7a3c5665bd9518d83604051610bbe91906111bc565b60405180910390a3505050565b5f60149054906101000a900460ff1681565b5f47905090565b5f8054906101000a900473ffffffffffffffffffffffffffffffffffffffff1681565b5f60149054906101000a900460ff1615610c56576040517f08c379a0000000000000000000000000000000000000000000000000000000008152600401610c4d9061132a565b60405180910390fd5b818190508484905014610c9e576040517f08c379a0000000000000000000000000000000000000000000000000000000008152600401610c95906113fa565b60405180910390fd5b5f805b83839050811015610ce057838382818110610cbf57610cbe611418565b5b9050602002013582610cd1919061181c565b91508080600101915050610ca1565b50803414610d23576040517f08c379a0000000000000000000000000000000000000000000000000000000008152600401610d1a90611899565b60405180910390fd5b5f5b85859050811015610e26575f868683818110610d4457610d43611418565b5b9050602002016020810190610d5991906110ac565b73ffffffffffffffffffffffffffffffffffffffff16858584818110610d8257610d81611418565b5b90506020020135604051610d959061163b565b5f6040518083038185875af1925050503d805f8114610dcf576040519150601f19603f3d011682016040523d82523d5f602084013e610dd4565b606091505b5050905080610e18576040517f08c379a0000000000000000000000000000000000000000000000000000000008152600401610e0f90611901565b60405180910390fd5b508080600101915050610d25565b507f1379b4f3a51b304b6f49dd4cf298d868cfa01c07b0865881c5dc5d4bd387cf2b85859050604051610e5991906111bc565b60405180910390a15050505050565b5f80fd5b5f80fd5b5f73ffffffffffffffffffffffffffffffffffffffff82169050919050565b5f610e9982610e70565b9050919050565b610ea981610e8f565b8114610eb3575f80fd5b50565b5f81359050610ec481610ea0565b92915050565b5f80fd5b5f80fd5b5f80fd5b5f8083601f840112610eeb57610eea610eca565b5b8235905067ffffffffffffffff811115610f0857610f07610ece565b5b602083019150836020820283011115610f2457610f23610ed2565b5b9250929050565b5f8083601f840112610f4057610f3f610eca565b5b8235905067ffffffffffffffff811115610f5d57610f5c610ece565b5b602083019150836020820283011115610f7957610f78610ed2565b5b9250929050565b5f805f805f60608688031215610f9957610f98610e68565b5b5f610fa688828901610eb6565b955050602086013567ffffffffffffffff811115610fc757610fc6610e6c565b5b610fd388828901610ed6565b9450945050604086013567ffffffffffffffff811115610ff657610ff5610e6c565b5b61100288828901610f2b565b92509250509295509295909350565b5f8115159050919050565b61102581611011565b811461102f575f80fd5b50565b5f813590506110408161101c565b92915050565b5f6020828403121561105b5761105a610e68565b5b5f61106884828501611032565b91505092915050565b5f61107b82610e70565b9050919050565b61108b81611071565b8114611095575f80fd5b50565b5f813590506110a681611082565b92915050565b5f602082840312156110c1576110c0610e68565b5b5f6110ce84828501611098565b91505092915050565b5f819050919050565b6110e9816110d7565b81146110f3575f80fd5b50565b5f81359050611104816110e0565b92915050565b5f6020828403121561111f5761111e610e68565b5b5f61112c848285016110f6565b91505092915050565b5f805f6060848603121561114c5761114b610e68565b5b5f61115986828701610eb6565b935050602061116a86828701610eb6565b925050604061117b868287016110f6565b9150509250925092565b61118e81611011565b82525050565b5f6020820190506111a75f830184611185565b92915050565b6111b6816110d7565b82525050565b5f6020820190506111cf5f8301846111ad565b92915050565b6111de81610e8f565b82525050565b5f6020820190506111f75f8301846111d5565b92915050565b5f8083601f84011261121257611211610eca565b5b8235905067ffffffffffffffff81111561122f5761122e610ece565b5b60208301915083602082028301111561124b5761124a610ed2565b5b9250929050565b5f805f806040858703121561126a57611269610e68565b5b5f85013567ffffffffffffffff81111561128757611286610e6c565b5b611293878288016111fd565b9450945050602085013567ffffffffffffffff8111156112b6576112b5610e6c565b5b6112c287828801610f2b565b925092505092959194509250565b5f82825260208201905092915050565b7f53656e64657220697320706175736564000000000000000000000000000000005f82015250565b5f6113146010836112d0565b915061131f826112e0565b602082019050919050565b5f6020820190508181035f83015261134181611308565b9050919050565b7f4e6f74206f776e657200000000000000000000000000000000000000000000005f82015250565b5f61137c6009836112d0565b915061138782611348565b602082019050919050565b5f6020820190508181035f8301526113a981611370565b9050919050565b7f4c656e677468206d69736d6174636800000000000000000000000000000000005f82015250565b5f6113e4600f836112d0565b91506113ef826113b0565b602082019050919050565b5f6020820190508181035f830152611411816113d8565b9050919050565b7f4e487b71000000000000000000000000000000000000000000000000000000005f52603260045260245ffd5b5f6020828403121561145a57611459610e68565b5b5f61146784828501610eb6565b91505092915050565b5f6040820190506114835f8301856111d5565b61149060208301846111ad565b9392505050565b5f815190506114a58161101c565b92915050565b5f602082840312156114c0576114bf610e68565b5b5f6114cd84828501611497565b91505092915050565b7f426174636820746f6b656e207472616e73666572206661696c656400000000005f82015250565b5f61150a601b836112d0565b9150611515826114d6565b602082019050919050565b5f6020820190508181035f830152611537816114fe565b9050919050565b7f496e76616c6964206164647265737300000000000000000000000000000000005f82015250565b5f611572600f836112d0565b915061157d8261153e565b602082019050919050565b5f6020820190508181035f83015261159f81611566565b9050919050565b7f416d6f756e74206d7573742062652067726561746572207468616e20300000005f82015250565b5f6115da601d836112d0565b91506115e5826115a6565b602082019050919050565b5f6020820190508181035f830152611607816115ce565b9050919050565b5f81905092915050565b50565b5f6116265f8361160e565b915061163182611618565b5f82019050919050565b5f6116458261161b565b9150819050919050565b7f455448207472616e73666572206661696c6564000000000000000000000000005f82015250565b5f6116836013836112d0565b915061168e8261164f565b602082019050919050565b5f6020820190508181035f8301526116b081611677565b9050919050565b7f496e73756666696369656e742062616c616e63650000000000000000000000005f82015250565b5f6116eb6014836112d0565b91506116f6826116b7565b602082019050919050565b5f6020820190508181035f830152611718816116df565b9050919050565b7f5769746864726177206661696c656400000000000000000000000000000000005f82015250565b5f611753600f836112d0565b915061175e8261171f565b602082019050919050565b5f6020820190508181035f83015261178081611747565b9050919050565b7f546f6b656e207472616e73666572206661696c656400000000000000000000005f82015250565b5f6117bb6015836112d0565b91506117c682611787565b602082019050919050565b5f6020820190508181035f8301526117e8816117af565b9050919050565b7f4e487b71000000000000000000000000000000000000000000000000000000005f52601160045260245ffd5b5f611826826110d7565b9150611831836110d7565b9250828201905080821115611849576118486117ef565b5b92915050565b7f496e636f72726563742045544820616d6f756e740000000000000000000000005f82015250565b5f6118836014836112d0565b915061188e8261184f565b602082019050919050565b5f6020820190508181035f8301526118b081611877565b9050919050565b7f455448206261746368207472616e73666572206661696c6564000000000000005f82015250565b5f6118eb6019836112d0565b91506118f6826118b7565b602082019050919050565b5f6020820190508181035f830152611918816118df565b905091905056fea26469706673582212202f51d7a87ba599d3a39bc3af081635a38fe0dcbd7c8db45a8f90be455353387b64736f6c63430008180033",
					"opcodes": "PUSH1 0x80 PUSH1 0x40 MSTORE CALLVALUE DUP1 ISZERO PUSH2 0xF JUMPI PUSH0 DUP1 REVERT JUMPDEST POP CALLER PUSH0 DUP1 PUSH2 0x100 EXP DUP2 SLOAD DUP2 PUSH20 0xFFFFFFFFFFFFFFFFFFFFFFFFFFFFFFFFFFFFFFFF MUL NOT AND SWAP1 DUP4 PUSH20 0xFFFFFFFFFFFFFFFFFFFFFFFFFFFFFFFFFFFFFFFF AND MUL OR SWAP1 SSTORE POP PUSH2 0x1955 DUP1 PUSH2 0x5C PUSH0 CODECOPY PUSH0 RETURN INVALID PUSH1 0x80 PUSH1 0x40 MSTORE PUSH1 0x4 CALLDATASIZE LT PUSH2 0x89 JUMPI PUSH0 CALLDATALOAD PUSH1 0xE0 SHR DUP1 PUSH4 0x2FDCFBD2 GT PUSH2 0x58 JUMPI DUP1 PUSH4 0x2FDCFBD2 EQ PUSH2 0x128 JUMPI DUP1 PUSH4 0x5C975ABB EQ PUSH2 0x150 JUMPI DUP1 PUSH4 0x8B7AFE2E EQ PUSH2 0x17A JUMPI DUP1 PUSH4 0x8DA5CB5B EQ PUSH2 0x1A4 JUMPI DUP1 PUSH4 0xC76BD193 EQ PUSH2 0x1CE JUMPI PUSH2 0x90 JUMP JUMPDEST DUP1 PUSH4 0x1560C8AB EQ PUSH2 0x94 JUMPI DUP1 PUSH4 0x16C38B3C EQ PUSH2 0xBC JUMPI DUP1 PUSH4 0x21B1E5F8 EQ PUSH2 0xE4 JUMPI DUP1 PUSH4 0x2E1A7D4D EQ PUSH2 0x100 JUMPI PUSH2 0x90 JUMP JUMPDEST CALLDATASIZE PUSH2 0x90 JUMPI STOP JUMPDEST PUSH0 DUP1 REVERT JUMPDEST CALLVALUE DUP1 ISZERO PUSH2 0x9F JUMPI PUSH0 DUP1 REVERT JUMPDEST POP PUSH2 0xBA PUSH1 0x4 DUP1 CALLDATASIZE SUB DUP2 ADD SWAP1 PUSH2 0xB5 SWAP2 SWAP1 PUSH2 0xF80 JUMP JUMPDEST PUSH2 0x1EA JUMP JUMPDEST STOP JUMPDEST CALLVALUE DUP1 ISZERO PUSH2 0xC7 JUMPI PUSH0 DUP1 REVERT JUMPDEST POP PUSH2 0xE2 PUSH1 0x4 DUP1 CALLDATASIZE SUB DUP2 ADD SWAP1 PUSH2 0xDD SWAP2 SWAP1 PUSH2 0x1046 JUMP JUMPDEST PUSH2 0x47B JUMP JUMPDEST STOP JUMPDEST PUSH2 0xFE PUSH1 0x4 DUP1 CALLDATASIZE SUB DUP2 ADD SWAP1 PUSH2 0xF9 SWAP2 SWAP1 PUSH2 0x10AC JUMP JUMPDEST PUSH2 0x55B JUMP JUMPDEST STOP JUMPDEST CALLVALUE DUP1 ISZERO PUSH2 0x10B JUMPI PUSH0 DUP1 REVERT JUMPDEST POP PUSH2 0x126 PUSH1 0x4 DUP1 CALLDATASIZE SUB DUP2 ADD SWAP1 PUSH2 0x121 SWAP2 SWAP1 PUSH2 0x110A JUMP JUMPDEST PUSH2 0x754 JUMP JUMPDEST STOP JUMPDEST CALLVALUE DUP1 ISZERO PUSH2 0x133 JUMPI PUSH0 DUP1 REVERT JUMPDEST POP PUSH2 0x14E PUSH1 0x4 DUP1 CALLDATASIZE SUB DUP2 ADD SWAP1 PUSH2 0x149 SWAP2 SWAP1 PUSH2 0x1135 JUMP JUMPDEST PUSH2 0x95D JUMP JUMPDEST STOP JUMPDEST CALLVALUE DUP1 ISZERO PUSH2 0x15B JUMPI PUSH0 DUP1 REVERT JUMPDEST POP PUSH2 0x164 PUSH2 0xBCB JUMP JUMPDEST PUSH1 0x40 MLOAD PUSH2 0x171 SWAP2 SWAP1 PUSH2 0x1194 JUMP JUMPDEST PUSH1 0x40 MLOAD DUP1 SWAP2 SUB SWAP1 RETURN JUMPDEST CALLVALUE DUP1 ISZERO PUSH2 0x185 JUMPI PUSH0 DUP1 REVERT JUMPDEST POP PUSH2 0x18E PUSH2 0xBDD JUMP JUMPDEST PUSH1 0x40 MLOAD PUSH2 0x19B SWAP2 SWAP1 PUSH2 0x11BC JUMP JUMPDEST PUSH1 0x40 MLOAD DUP1 SWAP2 SUB SWAP1 RETURN JUMPDEST CALLVALUE DUP1 ISZERO PUSH2 0x1AF JUMPI PUSH0 DUP1 REVERT JUMPDEST POP PUSH2 0x1B8 PUSH2 0xBE4 JUMP JUMPDEST PUSH1 0x40 MLOAD PUSH2 0x1C5 SWAP2 SWAP1 PUSH2 0x11E4 JUMP JUMPDEST PUSH1 0x40 MLOAD DUP1 SWAP2 SUB SWAP1 RETURN JUMPDEST PUSH2 0x1E8 PUSH1 0x4 DUP1 CALLDATASIZE SUB DUP2 ADD SWAP1 PUSH2 0x1E3 SWAP2 SWAP1 PUSH2 0x1252 JUMP JUMPDEST PUSH2 0xC07 JUMP JUMPDEST STOP JUMPDEST PUSH0 PUSH1 0x14 SWAP1 SLOAD SWAP1 PUSH2 0x100 EXP SWAP1 DIV PUSH1 0xFF AND ISZERO PUSH2 0x239 JUMPI PUSH1 0x40 MLOAD PUSH32 0x8C379A000000000000000000000000000000000000000000000000000000000 DUP2 MSTORE PUSH1 0x4 ADD PUSH2 0x230 SWAP1 PUSH2 0x132A JUMP JUMPDEST PUSH1 0x40 MLOAD DUP1 SWAP2 SUB SWAP1 REVERT JUMPDEST PUSH0 DUP1 SLOAD SWAP1 PUSH2 0x100 EXP SWAP1 DIV PUSH20 0xFFFFFFFFFFFFFFFFFFFFFFFFFFFFFFFFFFFFFFFF AND PUSH20 0xFFFFFFFFFFFFFFFFFFFFFFFFFFFFFFFFFFFFFFFF AND CALLER PUSH20 0xFFFFFFFFFFFFFFFFFFFFFFFFFFFFFFFFFFFFFFFF AND EQ PUSH2 0x2C6 JUMPI PUSH1 0x40 MLOAD PUSH32 0x8C379A000000000000000000000000000000000000000000000000000000000 DUP2 MSTORE PUSH1 0x4 ADD PUSH2 0x2BD SWAP1 PUSH2 0x1392 JUMP JUMPDEST PUSH1 0x40 MLOAD DUP1 SWAP2 SUB SWAP1 REVERT JUMPDEST DUP2 DUP2 SWAP1 POP DUP5 DUP5 SWAP1 POP EQ PUSH2 0x30E JUMPI PUSH1 0x40 MLOAD PUSH32 0x8C379A000000000000000000000000000000000000000000000000000000000 DUP2 MSTORE PUSH1 0x4 ADD PUSH2 0x305 SWAP1 PUSH2 0x13FA JUMP JUMPDEST PUSH1 0x40 MLOAD DUP1 SWAP2 SUB SWAP1 REVERT JUMPDEST PUSH0 JUMPDEST DUP5 DUP5 SWAP1 POP DUP2 LT ISZERO PUSH2 0x422 JUMPI DUP6 PUSH20 0xFFFFFFFFFFFFFFFFFFFFFFFFFFFFFFFFFFFFFFFF AND PUSH4 0xA9059CBB DUP7 DUP7 DUP5 DUP2 DUP2 LT PUSH2 0x34A JUMPI PUSH2 0x349 PUSH2 0x1418 JUMP JUMPDEST JUMPDEST SWAP1 POP PUSH1 0x20 MUL ADD PUSH1 0x20 DUP2 ADD SWAP1 PUSH2 0x35F SWAP2 SWAP1 PUSH2 0x1445 JUMP JUMPDEST DUP6 DUP6 DUP6 DUP2 DUP2 LT PUSH2 0x372 JUMPI PUSH2 0x371 PUSH2 0x1418 JUMP JUMPDEST JUMPDEST SWAP1 POP PUSH1 0x20 MUL ADD CALLDATALOAD PUSH1 0x40 MLOAD DUP4 PUSH4 0xFFFFFFFF AND PUSH1 0xE0 SHL DUP2 MSTORE PUSH1 0x4 ADD PUSH2 0x396 SWAP3 SWAP2 SWAP1 PUSH2 0x1470 JUMP JUMPDEST PUSH1 0x20 PUSH1 0x40 MLOAD DUP1 DUP4 SUB DUP2 PUSH0 DUP8 GAS CALL ISZERO DUP1 ISZERO PUSH2 0x3B2 JUMPI RETURNDATASIZE PUSH0 DUP1 RETURNDATACOPY RETURNDATASIZE PUSH0 REVERT JUMPDEST POP POP POP POP PUSH1 0x40 MLOAD RETURNDATASIZE PUSH1 0x1F NOT PUSH1 0x1F DUP3 ADD AND DUP3 ADD DUP1 PUSH1 0x40 MSTORE POP DUP2 ADD SWAP1 PUSH2 0x3D6 SWAP2 SWAP1 PUSH2 0x14AB JUMP JUMPDEST PUSH2 0x415 JUMPI PUSH1 0x40 MLOAD PUSH32 0x8C379A000000000000000000000000000000000000000000000000000000000 DUP2 MSTORE PUSH1 0x4 ADD PUSH2 0x40C SWAP1 PUSH2 0x1520 JUMP JUMPDEST PUSH1 0x40 MLOAD DUP1 SWAP2 SUB SWAP1 REVERT JUMPDEST DUP1 DUP1 PUSH1 0x1 ADD SWAP2 POP POP PUSH2 0x310 JUMP JUMPDEST POP DUP5 PUSH20 0xFFFFFFFFFFFFFFFFFFFFFFFFFFFFFFFFFFFFFFFF AND PUSH32 0xD564F04423CDB7294F24E81573156426D5C2638782DB71FCF75F1EC2F5A07365 DUP6 DUP6 SWAP1 POP PUSH1 0x40 MLOAD PUSH2 0x46C SWAP2 SWAP1 PUSH2 0x11BC JUMP JUMPDEST PUSH1 0x40 MLOAD DUP1 SWAP2 SUB SWAP1 LOG2 POP POP POP POP POP JUMP JUMPDEST PUSH0 DUP1 SLOAD SWAP1 PUSH2 0x100 EXP SWAP1 DIV PUSH20 0xFFFFFFFFFFFFFFFFFFFFFFFFFFFFFFFFFFFFFFFF AND PUSH20 0xFFFFFFFFFFFFFFFFFFFFFFFFFFFFFFFFFFFFFFFF AND CALLER PUSH20 0xFFFFFFFFFFFFFFFFFFFFFFFFFFFFFFFFFFFFFFFF AND EQ PUSH2 0x508 JUMPI PUSH1 0x40 MLOAD PUSH32 0x8C379A000000000000000000000000000000000000000000000000000000000 DUP2 MSTORE PUSH1 0x4 ADD PUSH2 0x4FF SWAP1 PUSH2 0x1392 JUMP JUMPDEST PUSH1 0x40 MLOAD DUP1 SWAP2 SUB SWAP1 REVERT JUMPDEST DUP1 PUSH0 PUSH1 0x14 PUSH2 0x100 EXP DUP2 SLOAD DUP2 PUSH1 0xFF MUL NOT AND SWAP1 DUP4 ISZERO ISZERO MUL OR SWAP1 SSTORE POP PUSH32 0xE2FB031EE032DC02D8011DC50B816EB450CF856ABD8261680DAC74F72165BD2 DUP2 PUSH1 0x40 MLOAD PUSH2 0x550 SWAP2 SWAP1 PUSH2 0x1194 JUMP JUMPDEST PUSH1 0x40 MLOAD DUP1 SWAP2 SUB SWAP1 LOG1 POP JUMP JUMPDEST PUSH0 PUSH1 0x14 SWAP1 SLOAD SWAP1 PUSH2 0x100 EXP SWAP1 DIV PUSH1 0xFF AND ISZERO PUSH2 0x5AA JUMPI PUSH1 0x40 MLOAD PUSH32 0x8C379A000000000000000000000000000000000000000000000000000000000 DUP2 MSTORE PUSH1 0x4 ADD PUSH2 0x5A1 SWAP1 PUSH2 0x132A JUMP JUMPDEST PUSH1 0x40 MLOAD DUP1 SWAP2 SUB SWAP1 REVERT JUMPDEST PUSH0 PUSH20 0xFFFFFFFFFFFFFFFFFFFFFFFFFFFFFFFFFFFFFFFF AND DUP2 PUSH20 0xFFFFFFFFFFFFFFFFFFFFFFFFFFFFFFFFFFFFFFFF AND SUB PUSH2 0x618 JUMPI PUSH1 0x40 MLOAD PUSH32 0x8C379A000000000000000000000000000000000000000000000000000000000 DUP2 MSTORE PUSH1 0x4 ADD PUSH2 0x60F SWAP1 PUSH2 0x1588 JUMP JUMPDEST PUSH1 0x40 MLOAD DUP1 SWAP2 SUB SWAP1 REVERT JUMPDEST PUSH0 CALLVALUE GT PUSH2 0x65A JUMPI PUSH1 0x40 MLOAD PUSH32 0x8C379A000000000000000000000000000000000000000000000000000000000 DUP2 MSTORE PUSH1 0x4 ADD PUSH2 0x651 SWAP1 PUSH2 0x15F0 JUMP JUMPDEST PUSH1 0x40 MLOAD DUP1 SWAP2 SUB SWAP1 REVERT JUMPDEST PUSH0 DUP2 PUSH20 0xFFFFFFFFFFFFFFFFFFFFFFFFFFFFFFFFFFFFFFFF AND CALLVALUE PUSH1 0x40 MLOAD PUSH2 0x67F SWAP1 PUSH2 0x163B JUMP JUMPDEST PUSH0 PUSH1 0x40 MLOAD DUP1 DUP4 SUB DUP2 DUP6 DUP8 GAS CALL SWAP3 POP POP POP RETURNDATASIZE DUP1 PUSH0 DUP2 EQ PUSH2 0x6B9 JUMPI PUSH1 0x40 MLOAD SWAP2 POP PUSH1 0x1F NOT PUSH1 0x3F RETURNDATASIZE ADD AND DUP3 ADD PUSH1 0x40 MSTORE RETURNDATASIZE DUP3 MSTORE RETURNDATASIZE PUSH0 PUSH1 0x20 DUP5 ADD RETURNDATACOPY PUSH2 0x6BE JUMP JUMPDEST PUSH1 0x60 SWAP2 POP JUMPDEST POP POP SWAP1 POP DUP1 PUSH2 0x702 JUMPI PUSH1 0x40 MLOAD PUSH32 0x8C379A000000000000000000000000000000000000000000000000000000000 DUP2 MSTORE PUSH1 0x4 ADD PUSH2 0x6F9 SWAP1 PUSH2 0x1699 JUMP JUMPDEST PUSH1 0x40 MLOAD DUP1 SWAP2 SUB SWAP1 REVERT JUMPDEST DUP2 PUSH20 0xFFFFFFFFFFFFFFFFFFFFFFFFFFFFFFFFFFFFFFFF AND PUSH32 0x78F5CDAD99320EC2BA57132D7DFFB1D125775C823239E60FF5E9300FD4AC898C CALLVALUE PUSH1 0x40 MLOAD PUSH2 0x748 SWAP2 SWAP1 PUSH2 0x11BC JUMP JUMPDEST PUSH1 0x40 MLOAD DUP1 SWAP2 SUB SWAP1 LOG2 POP POP JUMP JUMPDEST PUSH0 DUP1 SLOAD SWAP1 PUSH2 0x100 EXP SWAP1 DIV PUSH20 0xFFFFFFFFFFFFFFFFFFFFFFFFFFFFFFFFFFFFFFFF AND PUSH20 0xFFFFFFFFFFFFFFFFFFFFFFFFFFFFFFFFFFFFFFFF AND CALLER PUSH20 0xFFFFFFFFFFFFFFFFFFFFFFFFFFFFFFFFFFFFFFFF AND EQ PUSH2 0x7E1 JUMPI PUSH1 0x40 MLOAD PUSH32 0x8C379A000000000000000000000000000000000000000000000000000000000 DUP2 MSTORE PUSH1 0x4 ADD PUSH2 0x7D8 SWAP1 PUSH2 0x1392 JUMP JUMPDEST PUSH1 0x40 MLOAD DUP1 SWAP2 SUB SWAP1 REVERT JUMPDEST DUP1 SELFBALANCE LT ISZERO PUSH2 0x824 JUMPI PUSH1 0x40 MLOAD PUSH32 0x8C379A000000000000000000000000000000000000000000000000000000000 DUP2 MSTORE PUSH1 0x4 ADD PUSH2 0x81B SWAP1 PUSH2 0x1701 JUMP JUMPDEST PUSH1 0x40 MLOAD DUP1 SWAP2 SUB SWAP1 REVERT JUMPDEST PUSH0 DUP1 PUSH0 SWAP1 SLOAD SWAP1 PUSH2 0x100 EXP SWAP1 DIV PUSH20 0xFFFFFFFFFFFFFFFFFFFFFFFFFFFFFFFFFFFFFFFF AND PUSH20 0xFFFFFFFFFFFFFFFFFFFFFFFFFFFFFFFFFFFFFFFF AND DUP3 PUSH1 0x40 MLOAD PUSH2 0x869 SWAP1 PUSH2 0x163B JUMP JUMPDEST PUSH0 PUSH1 0x40 MLOAD DUP1 DUP4 SUB DUP2 DUP6 DUP8 GAS CALL SWAP3 POP POP POP RETURNDATASIZE DUP1 PUSH0 DUP2 EQ PUSH2 0x8A3 JUMPI PUSH1 0x40 MLOAD SWAP2 POP PUSH1 0x1F NOT PUSH1 0x3F RETURNDATASIZE ADD AND DUP3 ADD PUSH1 0x40 MSTORE RETURNDATASIZE DUP3 MSTORE RETURNDATASIZE PUSH0 PUSH1 0x20 DUP5 ADD RETURNDATACOPY PUSH2 0x8A8 JUMP JUMPDEST PUSH1 0x60 SWAP2 POP JUMPDEST POP POP SWAP1 POP DUP1 PUSH2 0x8EC JUMPI PUSH1 0x40 MLOAD PUSH32 0x8C379A000000000000000000000000000000000000000000000000000000000 DUP2 MSTORE PUSH1 0x4 ADD PUSH2 0x8E3 SWAP1 PUSH2 0x1769 JUMP JUMPDEST PUSH1 0x40 MLOAD DUP1 SWAP2 SUB SWAP1 REVERT JUMPDEST PUSH0 DUP1 SLOAD SWAP1 PUSH2 0x100 EXP SWAP1 DIV PUSH20 0xFFFFFFFFFFFFFFFFFFFFFFFFFFFFFFFFFFFFFFFF AND PUSH20 0xFFFFFFFFFFFFFFFFFFFFFFFFFFFFFFFFFFFFFFFF AND PUSH32 0x884EDAD9CE6FA2440D8A54CC123490EB96D2768479D49FF9C7366125A9424364 DUP4 PUSH1 0x40 MLOAD PUSH2 0x951 SWAP2 SWAP1 PUSH2 0x11BC JUMP JUMPDEST PUSH1 0x40 MLOAD DUP1 SWAP2 SUB SWAP1 LOG2 POP POP JUMP JUMPDEST PUSH0 PUSH1 0x14 SWAP1 SLOAD SWAP1 PUSH2 0x100 EXP SWAP1 DIV PUSH1 0xFF AND ISZERO PUSH2 0x9AC JUMPI PUSH1 0x40 MLOAD PUSH32 0x8C379A000000000000000000000000000000000000000000000000000000000 DUP2 MSTORE PUSH1 0x4 ADD PUSH2 0x9A3 SWAP1 PUSH2 0x132A JUMP JUMPDEST PUSH1 0x40 MLOAD DUP1 SWAP2 SUB SWAP1 REVERT JUMPDEST PUSH0 DUP1 SLOAD SWAP1 PUSH2 0x100 EXP SWAP1 DIV PUSH20 0xFFFFFFFFFFFFFFFFFFFFFFFFFFFFFFFFFFFFFFFF AND PUSH20 0xFFFFFFFFFFFFFFFFFFFFFFFFFFFFFFFFFFFFFFFF AND CALLER PUSH20 0xFFFFFFFFFFFFFFFFFFFFFFFFFFFFFFFFFFFFFFFF AND EQ PUSH2 0xA39 JUMPI PUSH1 0x40 MLOAD PUSH32 0x8C379A000000000000000000000000000000000000000000000000000000000 DUP2 MSTORE PUSH1 0x4 ADD PUSH2 0xA30 SWAP1 PUSH2 0x1392 JUMP JUMPDEST PUSH1 0x40 MLOAD DUP1 SWAP2 SUB SWAP1 REVERT JUMPDEST PUSH0 PUSH20 0xFFFFFFFFFFFFFFFFFFFFFFFFFFFFFFFFFFFFFFFF AND DUP3 PUSH20 0xFFFFFFFFFFFFFFFFFFFFFFFFFFFFFFFFFFFFFFFF AND SUB PUSH2 0xAA7 JUMPI PUSH1 0x40 MLOAD PUSH32 0x8C379A000000000000000000000000000000000000000000000000000000000 DUP2 MSTORE PUSH1 0x4 ADD PUSH2 0xA9E SWAP1 PUSH2 0x1588 JUMP JUMPDEST PUSH1 0x40 MLOAD DUP1 SWAP2 SUB SWAP1 REVERT JUMPDEST DUP3 PUSH20 0xFFFFFFFFFFFFFFFFFFFFFFFFFFFFFFFFFFFFFFFF AND PUSH4 0xA9059CBB DUP4 DUP4 PUSH1 0x40 MLOAD DUP4 PUSH4 0xFFFFFFFF AND PUSH1 0xE0 SHL DUP2 MSTORE PUSH1 0x4 ADD PUSH2 0xAE2 SWAP3 SWAP2 SWAP1 PUSH2 0x1470 JUMP JUMPDEST PUSH1 0x20 PUSH1 0x40 MLOAD DUP1 DUP4 SUB DUP2 PUSH0 DUP8 GAS CALL ISZERO DUP1 ISZERO PUSH2 0xAFE JUMPI RETURNDATASIZE PUSH0 DUP1 RETURNDATACOPY RETURNDATASIZE PUSH0 REVERT JUMPDEST POP POP POP POP PUSH1 0x40 MLOAD RETURNDATASIZE PUSH1 0x1F NOT PUSH1 0x1F DUP3 ADD AND DUP3 ADD DUP1 PUSH1 0x40 MSTORE POP DUP2 ADD SWAP1 PUSH2 0xB22 SWAP2 SWAP1 PUSH2 0x14AB JUMP JUMPDEST PUSH2 0xB61 JUMPI PUSH1 0x40 MLOAD PUSH32 0x8C379A000000000000000000000000000000000000000000000000000000000 DUP2 MSTORE PUSH1 0x4 ADD PUSH2 0xB58 SWAP1 PUSH2 0x17D1 JUMP JUMPDEST PUSH1 0x40 MLOAD DUP1 SWAP2 SUB SWAP1 REVERT JUMPDEST DUP2 PUSH20 0xFFFFFFFFFFFFFFFFFFFFFFFFFFFFFFFFFFFFFFFF AND DUP4 PUSH20 0xFFFFFFFFFFFFFFFFFFFFFFFFFFFFFFFFFFFFFFFF AND PUSH32 0x3DDB739C68DD901671F09FBE0BC2344C179ED55F8E8110A7C7A3C5665BD9518D DUP4 PUSH1 0x40 MLOAD PUSH2 0xBBE SWAP2 SWAP1 PUSH2 0x11BC JUMP JUMPDEST PUSH1 0x40 MLOAD DUP1 SWAP2 SUB SWAP1 LOG3 POP POP POP JUMP JUMPDEST PUSH0 PUSH1 0x14 SWAP1 SLOAD SWAP1 PUSH2 0x100 EXP SWAP1 DIV PUSH1 0xFF AND DUP2 JUMP JUMPDEST PUSH0 SELFBALANCE SWAP1 POP SWAP1 JUMP JUMPDEST PUSH0 DUP1 SLOAD SWAP1 PUSH2 0x100 EXP SWAP1 DIV PUSH20 0xFFFFFFFFFFFFFFFFFFFFFFFFFFFFFFFFFFFFFFFF AND DUP2 JUMP JUMPDEST PUSH0 PUSH1 0x14 SWAP1 SLOAD SWAP1 PUSH2 0x100 EXP SWAP1 DIV PUSH1 0xFF AND ISZERO PUSH2 0xC56 JUMPI PUSH1 0x40 MLOAD PUSH32 0x8C379A000000000000000000000000000000000000000000000000000000000 DUP2 MSTORE PUSH1 0x4 ADD PUSH2 0xC4D SWAP1 PUSH2 0x132A JUMP JUMPDEST PUSH1 0x40 MLOAD DUP1 SWAP2 SUB SWAP1 REVERT JUMPDEST DUP2 DUP2 SWAP1 POP DUP5 DUP5 SWAP1 POP EQ PUSH2 0xC9E JUMPI PUSH1 0x40 MLOAD PUSH32 0x8C379A000000000000000000000000000000000000000000000000000000000 DUP2 MSTORE PUSH1 0x4 ADD PUSH2 0xC95 SWAP1 PUSH2 0x13FA JUMP JUMPDEST PUSH1 0x40 MLOAD DUP1 SWAP2 SUB SWAP1 REVERT JUMPDEST PUSH0 DUP1 JUMPDEST DUP4 DUP4 SWAP1 POP DUP2 LT ISZERO PUSH2 0xCE0 JUMPI DUP4 DUP4 DUP3 DUP2 DUP2 LT PUSH2 0xCBF JUMPI PUSH2 0xCBE PUSH2 0x1418 JUMP JUMPDEST JUMPDEST SWAP1 POP PUSH1 0x20 MUL ADD CALLDATALOAD DUP3 PUSH2 0xCD1 SWAP2 SWAP1 PUSH2 0x181C JUMP JUMPDEST SWAP2 POP DUP1 DUP1 PUSH1 0x1 ADD SWAP2 POP POP PUSH2 0xCA1 JUMP JUMPDEST POP DUP1 CALLVALUE EQ PUSH2 0xD23 JUMPI PUSH1 0x40 MLOAD PUSH32 0x8C379A000000000000000000000000000000000000000000000000000000000 DUP2 MSTORE PUSH1 0x4 ADD PUSH2 0xD1A SWAP1 PUSH2 0x1899 JUMP JUMPDEST PUSH1 0x40 MLOAD DUP1 SWAP2 SUB SWAP1 REVERT JUMPDEST PUSH0 JUMPDEST DUP6 DUP6 SWAP1 POP DUP2 LT ISZERO PUSH2 0xE26 JUMPI PUSH0 DUP7 DUP7 DUP4 DUP2 DUP2 LT PUSH2 0xD44 JUMPI PUSH2 0xD43 PUSH2 0x1418 JUMP JUMPDEST JUMPDEST SWAP1 POP PUSH1 0x20 MUL ADD PUSH1 0x20 DUP2 ADD SWAP1 PUSH2 0xD59 SWAP2 SWAP1 PUSH2 0x10AC JUMP JUMPDEST PUSH20 0xFFFFFFFFFFFFFFFFFFFFFFFFFFFFFFFFFFFFFFFF AND DUP6 DUP6 DUP5 DUP2 DUP2 LT PUSH2 0xD82 JUMPI PUSH2 0xD81 PUSH2 0x1418 JUMP JUMPDEST JUMPDEST SWAP1 POP PUSH1 0x20 MUL ADD CALLDATALOAD PUSH1 0x40 MLOAD PUSH2 0xD95 SWAP1 PUSH2 0x163B JUMP JUMPDEST PUSH0 PUSH1 0x40 MLOAD DUP1 DUP4 SUB DUP2 DUP6 DUP8 GAS CALL SWAP3 POP POP POP RETURNDATASIZE DUP1 PUSH0 DUP2 EQ PUSH2 0xDCF JUMPI PUSH1 0x40 MLOAD SWAP2 POP PUSH1 0x1F NOT PUSH1 0x3F RETURNDATASIZE ADD AND DUP3 ADD PUSH1 0x40 MSTORE RETURNDATASIZE DUP3 MSTORE RETURNDATASIZE PUSH0 PUSH1 0x20 DUP5 ADD RETURNDATACOPY PUSH2 0xDD4 JUMP JUMPDEST PUSH1 0x60 SWAP2 POP JUMPDEST POP POP SWAP1 POP DUP1 PUSH2 0xE18 JUMPI PUSH1 0x40 MLOAD PUSH32 0x8C379A000000000000000000000000000000000000000000000000000000000 DUP2 MSTORE PUSH1 0x4 ADD PUSH2 0xE0F SWAP1 PUSH2 0x1901 JUMP JUMPDEST PUSH1 0x40 MLOAD DUP1 SWAP2 SUB SWAP1 REVERT JUMPDEST POP DUP1 DUP1 PUSH1 0x1 ADD SWAP2 POP POP PUSH2 0xD25 JUMP JUMPDEST POP PUSH32 0x1379B4F3A51B304B6F49DD4CF298D868CFA01C07B0865881C5DC5D4BD387CF2B DUP6 DUP6 SWAP1 POP PUSH1 0x40 MLOAD PUSH2 0xE59 SWAP2 SWAP1 PUSH2 0x11BC JUMP JUMPDEST PUSH1 0x40 MLOAD DUP1 SWAP2 SUB SWAP1 LOG1 POP POP POP POP POP JUMP JUMPDEST PUSH0 DUP1 REVERT JUMPDEST PUSH0 DUP1 REVERT JUMPDEST PUSH0 PUSH20 0xFFFFFFFFFFFFFFFFFFFFFFFFFFFFFFFFFFFFFFFF DUP3 AND SWAP1 POP SWAP2 SWAP1 POP JUMP JUMPDEST PUSH0 PUSH2 0xE99 DUP3 PUSH2 0xE70 JUMP JUMPDEST SWAP1 POP SWAP2 SWAP1 POP JUMP JUMPDEST PUSH2 0xEA9 DUP2 PUSH2 0xE8F JUMP JUMPDEST DUP2 EQ PUSH2 0xEB3 JUMPI PUSH0 DUP1 REVERT JUMPDEST POP JUMP JUMPDEST PUSH0 DUP2 CALLDATALOAD SWAP1 POP PUSH2 0xEC4 DUP2 PUSH2 0xEA0 JUMP JUMPDEST SWAP3 SWAP2 POP POP JUMP JUMPDEST PUSH0 DUP1 REVERT JUMPDEST PUSH0 DUP1 REVERT JUMPDEST PUSH0 DUP1 REVERT JUMPDEST PUSH0 DUP1 DUP4 PUSH1 0x1F DUP5 ADD SLT PUSH2 0xEEB JUMPI PUSH2 0xEEA PUSH2 0xECA JUMP JUMPDEST JUMPDEST DUP3 CALLDATALOAD SWAP1 POP PUSH8 0xFFFFFFFFFFFFFFFF DUP2 GT ISZERO PUSH2 0xF08 JUMPI PUSH2 0xF07 PUSH2 0xECE JUMP JUMPDEST JUMPDEST PUSH1 0x20 DUP4 ADD SWAP2 POP DUP4 PUSH1 0x20 DUP3 MUL DUP4 ADD GT ISZERO PUSH2 0xF24 JUMPI PUSH2 0xF23 PUSH2 0xED2 JUMP JUMPDEST JUMPDEST SWAP3 POP SWAP3 SWAP1 POP JUMP JUMPDEST PUSH0 DUP1 DUP4 PUSH1 0x1F DUP5 ADD SLT PUSH2 0xF40 JUMPI PUSH2 0xF3F PUSH2 0xECA JUMP JUMPDEST JUMPDEST DUP3 CALLDATALOAD SWAP1 POP PUSH8 0xFFFFFFFFFFFFFFFF DUP2 GT ISZERO PUSH2 0xF5D JUMPI PUSH2 0xF5C PUSH2 0xECE JUMP JUMPDEST JUMPDEST PUSH1 0x20 DUP4 ADD SWAP2 POP DUP4 PUSH1 0x20 DUP3 MUL DUP4 ADD GT ISZERO PUSH2 0xF79 JUMPI PUSH2 0xF78 PUSH2 0xED2 JUMP JUMPDEST JUMPDEST SWAP3 POP SWAP3 SWAP1 POP JUMP JUMPDEST PUSH0 DUP1 PUSH0 DUP1 PUSH0 PUSH1 0x60 DUP7 DUP9 SUB SLT ISZERO PUSH2 0xF99 JUMPI PUSH2 0xF98 PUSH2 0xE68 JUMP JUMPDEST JUMPDEST PUSH0 PUSH2 0xFA6 DUP9 DUP3 DUP10 ADD PUSH2 0xEB6 JUMP JUMPDEST SWAP6 POP POP PUSH1 0x20 DUP7 ADD CALLDATALOAD PUSH8 0xFFFFFFFFFFFFFFFF DUP2 GT ISZERO PUSH2 0xFC7 JUMPI PUSH2 0xFC6 PUSH2 0xE6C JUMP JUMPDEST JUMPDEST PUSH2 0xFD3 DUP9 DUP3 DUP10 ADD PUSH2 0xED6 JUMP JUMPDEST SWAP5 POP SWAP5 POP POP PUSH1 0x40 DUP7 ADD CALLDATALOAD PUSH8 0xFFFFFFFFFFFFFFFF DUP2 GT ISZERO PUSH2 0xFF6 JUMPI PUSH2 0xFF5 PUSH2 0xE6C JUMP JUMPDEST JUMPDEST PUSH2 0x1002 DUP9 DUP3 DUP10 ADD PUSH2 0xF2B JUMP JUMPDEST SWAP3 POP SWAP3 POP POP SWAP3 SWAP6 POP SWAP3 SWAP6 SWAP1 SWAP4 POP JUMP JUMPDEST PUSH0 DUP2 ISZERO ISZERO SWAP1 POP SWAP2 SWAP1 POP JUMP JUMPDEST PUSH2 0x1025 DUP2 PUSH2 0x1011 JUMP JUMPDEST DUP2 EQ PUSH2 0x102F JUMPI PUSH0 DUP1 REVERT JUMPDEST POP JUMP JUMPDEST PUSH0 DUP2 CALLDATALOAD SWAP1 POP PUSH2 0x1040 DUP2 PUSH2 0x101C JUMP JUMPDEST SWAP3 SWAP2 POP POP JUMP JUMPDEST PUSH0 PUSH1 0x20 DUP3 DUP5 SUB SLT ISZERO PUSH2 0x105B JUMPI PUSH2 0x105A PUSH2 0xE68 JUMP JUMPDEST JUMPDEST PUSH0 PUSH2 0x1068 DUP5 DUP3 DUP6 ADD PUSH2 0x1032 JUMP JUMPDEST SWAP2 POP POP SWAP3 SWAP2 POP POP JUMP JUMPDEST PUSH0 PUSH2 0x107B DUP3 PUSH2 0xE70 JUMP JUMPDEST SWAP1 POP SWAP2 SWAP1 POP JUMP JUMPDEST PUSH2 0x108B DUP2 PUSH2 0x1071 JUMP JUMPDEST DUP2 EQ PUSH2 0x1095 JUMPI PUSH0 DUP1 REVERT JUMPDEST POP JUMP JUMPDEST PUSH0 DUP2 CALLDATALOAD SWAP1 POP PUSH2 0x10A6 DUP2 PUSH2 0x1082 JUMP JUMPDEST SWAP3 SWAP2 POP POP JUMP JUMPDEST PUSH0 PUSH1 0x20 DUP3 DUP5 SUB SLT ISZERO PUSH2 0x10C1 JUMPI PUSH2 0x10C0 PUSH2 0xE68 JUMP JUMPDEST JUMPDEST PUSH0 PUSH2 0x10CE DUP5 DUP3 DUP6 ADD PUSH2 0x1098 JUMP JUMPDEST SWAP2 POP POP SWAP3 SWAP2 POP POP JUMP JUMPDEST PUSH0 DUP2 SWAP1 POP SWAP2 SWAP1 POP JUMP JUMPDEST PUSH2 0x10E9 DUP2 PUSH2 0x10D7 JUMP JUMPDEST DUP2 EQ PUSH2 0x10F3 JUMPI PUSH0 DUP1 REVERT JUMPDEST POP JUMP JUMPDEST PUSH0 DUP2 CALLDATALOAD SWAP1 POP PUSH2 0x1104 DUP2 PUSH2 0x10E0 JUMP JUMPDEST SWAP3 SWAP2 POP POP JUMP JUMPDEST PUSH0 PUSH1 0x20 DUP3 DUP5 SUB SLT ISZERO PUSH2 0x111F JUMPI PUSH2 0x111E PUSH2 0xE68 JUMP JUMPDEST JUMPDEST PUSH0 PUSH2 0x112C DUP5 DUP3 DUP6 ADD PUSH2 0x10F6 JUMP JUMPDEST SWAP2 POP POP SWAP3 SWAP2 POP POP JUMP JUMPDEST PUSH0 DUP1 PUSH0 PUSH1 0x60 DUP5 DUP7 SUB SLT ISZERO PUSH2 0x114C JUMPI PUSH2 0x114B PUSH2 0xE68 JUMP JUMPDEST JUMPDEST PUSH0 PUSH2 0x1159 DUP7 DUP3 DUP8 ADD PUSH2 0xEB6 JUMP JUMPDEST SWAP4 POP POP PUSH1 0x20 PUSH2 0x116A DUP7 DUP3 DUP8 ADD PUSH2 0xEB6 JUMP JUMPDEST SWAP3 POP POP PUSH1 0x40 PUSH2 0x117B DUP7 DUP3 DUP8 ADD PUSH2 0x10F6 JUMP JUMPDEST SWAP2 POP POP SWAP3 POP SWAP3 POP SWAP3 JUMP JUMPDEST PUSH2 0x118E DUP2 PUSH2 0x1011 JUMP JUMPDEST DUP3 MSTORE POP POP JUMP JUMPDEST PUSH0 PUSH1 0x20 DUP3 ADD SWAP1 POP PUSH2 0x11A7 PUSH0 DUP4 ADD DUP5 PUSH2 0x1185 JUMP JUMPDEST SWAP3 SWAP2 POP POP JUMP JUMPDEST PUSH2 0x11B6 DUP2 PUSH2 0x10D7 JUMP JUMPDEST DUP3 MSTORE POP POP JUMP JUMPDEST PUSH0 PUSH1 0x20 DUP3 ADD SWAP1 POP PUSH2 0x11CF PUSH0 DUP4 ADD DUP5 PUSH2 0x11AD JUMP JUMPDEST SWAP3 SWAP2 POP POP JUMP JUMPDEST PUSH2 0x11DE DUP2 PUSH2 0xE8F JUMP JUMPDEST DUP3 MSTORE POP POP JUMP JUMPDEST PUSH0 PUSH1 0x20 DUP3 ADD SWAP1 POP PUSH2 0x11F7 PUSH0 DUP4 ADD DUP5 PUSH2 0x11D5 JUMP JUMPDEST SWAP3 SWAP2 POP POP JUMP JUMPDEST PUSH0 DUP1 DUP4 PUSH1 0x1F DUP5 ADD SLT PUSH2 0x1212 JUMPI PUSH2 0x1211 PUSH2 0xECA JUMP JUMPDEST JUMPDEST DUP3 CALLDATALOAD SWAP1 POP PUSH8 0xFFFFFFFFFFFFFFFF DUP2 GT ISZERO PUSH2 0x122F JUMPI PUSH2 0x122E PUSH2 0xECE JUMP JUMPDEST JUMPDEST PUSH1 0x20 DUP4 ADD SWAP2 POP DUP4 PUSH1 0x20 DUP3 MUL DUP4 ADD GT ISZERO PUSH2 0x124B JUMPI PUSH2 0x124A PUSH2 0xED2 JUMP JUMPDEST JUMPDEST SWAP3 POP SWAP3 SWAP1 POP JUMP JUMPDEST PUSH0 DUP1 PUSH0 DUP1 PUSH1 0x40 DUP6 DUP8 SUB SLT ISZERO PUSH2 0x126A JUMPI PUSH2 0x1269 PUSH2 0xE68 JUMP JUMPDEST JUMPDEST PUSH0 DUP6 ADD CALLDATALOAD PUSH8 0xFFFFFFFFFFFFFFFF DUP2 GT ISZERO PUSH2 0x1287 JUMPI PUSH2 0x1286 PUSH2 0xE6C JUMP JUMPDEST JUMPDEST PUSH2 0x1293 DUP8 DUP3 DUP9 ADD PUSH2 0x11FD JUMP JUMPDEST SWAP5 POP SWAP5 POP POP PUSH1 0x20 DUP6 ADD CALLDATALOAD PUSH8 0xFFFFFFFFFFFFFFFF DUP2 GT ISZERO PUSH2 0x12B6 JUMPI PUSH2 0x12B5 PUSH2 0xE6C JUMP JUMPDEST JUMPDEST PUSH2 0x12C2 DUP8 DUP3 DUP9 ADD PUSH2 0xF2B JUMP JUMPDEST SWAP3 POP SWAP3 POP POP SWAP3 SWAP6 SWAP2 SWAP5 POP SWAP3 POP JUMP JUMPDEST PUSH0 DUP3 DUP3 MSTORE PUSH1 0x20 DUP3 ADD SWAP1 POP SWAP3 SWAP2 POP POP JUMP JUMPDEST PUSH32 0x53656E6465722069732070617573656400000000000000000000000000000000 PUSH0 DUP3 ADD MSTORE POP JUMP JUMPDEST PUSH0 PUSH2 0x1314 PUSH1 0x10 DUP4 PUSH2 0x12D0 JUMP JUMPDEST SWAP2 POP PUSH2 0x131F DUP3 PUSH2 0x12E0 JUMP JUMPDEST PUSH1 0x20 DUP3 ADD SWAP1 POP SWAP2 SWAP1 POP JUMP JUMPDEST PUSH0 PUSH1 0x20 DUP3 ADD SWAP1 POP DUP2 DUP2 SUB PUSH0 DUP4 ADD MSTORE PUSH2 0x1341 DUP2 PUSH2 0x1308 JUMP JUMPDEST SWAP1 POP SWAP2 SWAP1 POP JUMP JUMPDEST PUSH32 0x4E6F74206F776E65720000000000000000000000000000000000000000000000 PUSH0 DUP3 ADD MSTORE POP JUMP JUMPDEST PUSH0 PUSH2 0x137C PUSH1 0x9 DUP4 PUSH2 0x12D0 JUMP JUMPDEST SWAP2 POP PUSH2 0x1387 DUP3 PUSH2 0x1348 JUMP JUMPDEST PUSH1 0x20 DUP3 ADD SWAP1 POP SWAP2 SWAP1 POP JUMP JUMPDEST PUSH0 PUSH1 0x20 DUP3 ADD SWAP1 POP DUP2 DUP2 SUB PUSH0 DUP4 ADD MSTORE PUSH2 0x13A9 DUP2 PUSH2 0x1370 JUMP JUMPDEST SWAP1 POP SWAP2 SWAP1 POP JUMP JUMPDEST PUSH32 0x4C656E677468206D69736D617463680000000000000000000000000000000000 PUSH0 DUP3 ADD MSTORE POP JUMP JUMPDEST PUSH0 PUSH2 0x13E4 PUSH1 0xF DUP4 PUSH2 0x12D0 JUMP JUMPDEST SWAP2 POP PUSH2 0x13EF DUP3 PUSH2 0x13B0 JUMP JUMPDEST PUSH1 0x20 DUP3 ADD SWAP1 POP SWAP2 SWAP1 POP JUMP JUMPDEST PUSH0 PUSH1 0x20 DUP3 ADD SWAP1 POP DUP2 DUP2 SUB PUSH0 DUP4 ADD MSTORE PUSH2 0x1411 DUP2 PUSH2 0x13D8 JUMP JUMPDEST SWAP1 POP SWAP2 SWAP1 POP JUMP JUMPDEST PUSH32 0x4E487B7100000000000000000000000000000000000000000000000000000000 PUSH0 MSTORE PUSH1 0x32 PUSH1 0x4 MSTORE PUSH1 0x24 PUSH0 REVERT JUMPDEST PUSH0 PUSH1 0x20 DUP3 DUP5 SUB SLT ISZERO PUSH2 0x145A JUMPI PUSH2 0x1459 PUSH2 0xE68 JUMP JUMPDEST JUMPDEST PUSH0 PUSH2 0x1467 DUP5 DUP3 DUP6 ADD PUSH2 0xEB6 JUMP JUMPDEST SWAP2 POP POP SWAP3 SWAP2 POP POP JUMP JUMPDEST PUSH0 PUSH1 0x40 DUP3 ADD SWAP1 POP PUSH2 0x1483 PUSH0 DUP4 ADD DUP6 PUSH2 0x11D5 JUMP JUMPDEST PUSH2 0x1490 PUSH1 0x20 DUP4 ADD DUP5 PUSH2 0x11AD JUMP JUMPDEST SWAP4 SWAP3 POP POP POP JUMP JUMPDEST PUSH0 DUP2 MLOAD SWAP1 POP PUSH2 0x14A5 DUP2 PUSH2 0x101C JUMP JUMPDEST SWAP3 SWAP2 POP POP JUMP JUMPDEST PUSH0 PUSH1 0x20 DUP3 DUP5 SUB SLT ISZERO PUSH2 0x14C0 JUMPI PUSH2 0x14BF PUSH2 0xE68 JUMP JUMPDEST JUMPDEST PUSH0 PUSH2 0x14CD DUP5 DUP3 DUP6 ADD PUSH2 0x1497 JUMP JUMPDEST SWAP2 POP POP SWAP3 SWAP2 POP POP JUMP JUMPDEST PUSH32 0x426174636820746F6B656E207472616E73666572206661696C65640000000000 PUSH0 DUP3 ADD MSTORE POP JUMP JUMPDEST PUSH0 PUSH2 0x150A PUSH1 0x1B DUP4 PUSH2 0x12D0 JUMP JUMPDEST SWAP2 POP PUSH2 0x1515 DUP3 PUSH2 0x14D6 JUMP JUMPDEST PUSH1 0x20 DUP3 ADD SWAP1 POP SWAP2 SWAP1 POP JUMP JUMPDEST PUSH0 PUSH1 0x20 DUP3 ADD SWAP1 POP DUP2 DUP2 SUB PUSH0 DUP4 ADD MSTORE PUSH2 0x1537 DUP2 PUSH2 0x14FE JUMP JUMPDEST SWAP1 POP SWAP2 SWAP1 POP JUMP JUMPDEST PUSH32 0x496E76616C696420616464726573730000000000000000000000000000000000 PUSH0 DUP3 ADD MSTORE POP JUMP JUMPDEST PUSH0 PUSH2 0x1572 PUSH1 0xF DUP4 PUSH2 0x12D0 JUMP JUMPDEST SWAP2 POP PUSH2 0x157D DUP3 PUSH2 0x153E JUMP JUMPDEST PUSH1 0x20 DUP3 ADD SWAP1 POP SWAP2 SWAP1 POP JUMP JUMPDEST PUSH0 PUSH1 0x20 DUP3 ADD SWAP1 POP DUP2 DUP2 SUB PUSH0 DUP4 ADD MSTORE PUSH2 0x159F DUP2 PUSH2 0x1566 JUMP JUMPDEST SWAP1 POP SWAP2 SWAP1 POP JUMP JUMPDEST PUSH32 0x416D6F756E74206D7573742062652067726561746572207468616E2030000000 PUSH0 DUP3 ADD MSTORE POP JUMP JUMPDEST PUSH0 PUSH2 0x15DA PUSH1 0x1D DUP4 PUSH2 0x12D0 JUMP JUMPDEST SWAP2 POP PUSH2 0x15E5 DUP3 PUSH2 0x15A6 JUMP JUMPDEST PUSH1 0x20 DUP3 ADD SWAP1 POP SWAP2 SWAP1 POP JUMP JUMPDEST PUSH0 PUSH1 0x20 DUP3 ADD SWAP1 POP DUP2 DUP2 SUB PUSH0 DUP4 ADD MSTORE PUSH2 0x1607 DUP2 PUSH2 0x15CE JUMP JUMPDEST SWAP1 POP SWAP2 SWAP1 POP JUMP JUMPDEST PUSH0 DUP2 SWAP1 POP SWAP3 SWAP2 POP POP JUMP JUMPDEST POP JUMP JUMPDEST PUSH0 PUSH2 0x1626 PUSH0 DUP4 PUSH2 0x160E JUMP JUMPDEST SWAP2 POP PUSH2 0x1631 DUP3 PUSH2 0x1618 JUMP JUMPDEST PUSH0 DUP3 ADD SWAP1 POP SWAP2 SWAP1 POP JUMP JUMPDEST PUSH0 PUSH2 0x1645 DUP3 PUSH2 0x161B JUMP JUMPDEST SWAP2 POP DUP2 SWAP1 POP SWAP2 SWAP1 POP JUMP JUMPDEST PUSH32 0x455448207472616E73666572206661696C656400000000000000000000000000 PUSH0 DUP3 ADD MSTORE POP JUMP JUMPDEST PUSH0 PUSH2 0x1683 PUSH1 0x13 DUP4 PUSH2 0x12D0 JUMP JUMPDEST SWAP2 POP PUSH2 0x168E DUP3 PUSH2 0x164F JUMP JUMPDEST PUSH1 0x20 DUP3 ADD SWAP1 POP SWAP2 SWAP1 POP JUMP JUMPDEST PUSH0 PUSH1 0x20 DUP3 ADD SWAP1 POP DUP2 DUP2 SUB PUSH0 DUP4 ADD MSTORE PUSH2 0x16B0 DUP2 PUSH2 0x1677 JUMP JUMPDEST SWAP1 POP SWAP2 SWAP1 POP JUMP JUMPDEST PUSH32 0x496E73756666696369656E742062616C616E6365000000000000000000000000 PUSH0 DUP3 ADD MSTORE POP JUMP JUMPDEST PUSH0 PUSH2 0x16EB PUSH1 0x14 DUP4 PUSH2 0x12D0 JUMP JUMPDEST SWAP2 POP PUSH2 0x16F6 DUP3 PUSH2 0x16B7 JUMP JUMPDEST PUSH1 0x20 DUP3 ADD SWAP1 POP SWAP2 SWAP1 POP JUMP JUMPDEST PUSH0 PUSH1 0x20 DUP3 ADD SWAP1 POP DUP2 DUP2 SUB PUSH0 DUP4 ADD MSTORE PUSH2 0x1718 DUP2 PUSH2 0x16DF JUMP JUMPDEST SWAP1 POP SWAP2 SWAP1 POP JUMP JUMPDEST PUSH32 0x5769746864726177206661696C65640000000000000000000000000000000000 PUSH0 DUP3 ADD MSTORE POP JUMP JUMPDEST PUSH0 PUSH2 0x1753 PUSH1 0xF DUP4 PUSH2 0x12D0 JUMP JUMPDEST SWAP2 POP PUSH2 0x175E DUP3 PUSH2 0x171F JUMP JUMPDEST PUSH1 0x20 DUP3 ADD SWAP1 POP SWAP2 SWAP1 POP JUMP JUMPDEST PUSH0 PUSH1 0x20 DUP3 ADD SWAP1 POP DUP2 DUP2 SUB PUSH0 DUP4 ADD MSTORE PUSH2 0x1780 DUP2 PUSH2 0x1747 JUMP JUMPDEST SWAP1 POP SWAP2 SWAP1 POP JUMP JUMPDEST PUSH32 0x546F6B656E207472616E73666572206661696C65640000000000000000000000 PUSH0 DUP3 ADD MSTORE POP JUMP JUMPDEST PUSH0 PUSH2 0x17BB PUSH1 0x15 DUP4 PUSH2 0x12D0 JUMP JUMPDEST SWAP2 POP PUSH2 0x17C6 DUP3 PUSH2 0x1787 JUMP JUMPDEST PUSH1 0x20 DUP3 ADD SWAP1 POP SWAP2 SWAP1 POP JUMP JUMPDEST PUSH0 PUSH1 0x20 DUP3 ADD SWAP1 POP DUP2 DUP2 SUB PUSH0 DUP4 ADD MSTORE PUSH2 0x17E8 DUP2 PUSH2 0x17AF JUMP JUMPDEST SWAP1 POP SWAP2 SWAP1 POP JUMP JUMPDEST PUSH32 0x4E487B7100000000000000000000000000000000000000000000000000000000 PUSH0 MSTORE PUSH1 0x11 PUSH1 0x4 MSTORE PUSH1 0x24 PUSH0 REVERT JUMPDEST PUSH0 PUSH2 0x1826 DUP3 PUSH2 0x10D7 JUMP JUMPDEST SWAP2 POP PUSH2 0x1831 DUP4 PUSH2 0x10D7 JUMP JUMPDEST SWAP3 POP DUP3 DUP3 ADD SWAP1 POP DUP1 DUP3 GT ISZERO PUSH2 0x1849 JUMPI PUSH2 0x1848 PUSH2 0x17EF JUMP JUMPDEST JUMPDEST SWAP3 SWAP2 POP POP JUMP JUMPDEST PUSH32 0x496E636F72726563742045544820616D6F756E74000000000000000000000000 PUSH0 DUP3 ADD MSTORE POP JUMP JUMPDEST PUSH0 PUSH2 0x1883 PUSH1 0x14 DUP4 PUSH2 0x12D0 JUMP JUMPDEST SWAP2 POP PUSH2 0x188E DUP3 PUSH2 0x184F JUMP JUMPDEST PUSH1 0x20 DUP3 ADD SWAP1 POP SWAP2 SWAP1 POP JUMP JUMPDEST PUSH0 PUSH1 0x20 DUP3 ADD SWAP1 POP DUP2 DUP2 SUB PUSH0 DUP4 ADD MSTORE PUSH2 0x18B0 DUP2 PUSH2 0x1877 JUMP JUMPDEST SWAP1 POP SWAP2 SWAP1 POP JUMP JUMPDEST PUSH32 0x455448206261746368207472616E73666572206661696C656400000000000000 PUSH0 DUP3 ADD MSTORE POP JUMP JUMPDEST PUSH0 PUSH2 0x18EB PUSH1 0x19 DUP4 PUSH2 0x12D0 JUMP JUMPDEST SWAP2 POP PUSH2 0x18F6 DUP3 PUSH2 0x18B7 JUMP JUMPDEST PUSH1 0x20 DUP3 ADD SWAP1 POP SWAP2 SWAP1 POP JUMP JUMPDEST PUSH0 PUSH1 0x20 DUP3 ADD SWAP1 POP DUP2 DUP2 SUB PUSH0 DUP4 ADD MSTORE PUSH2 0x1918 DUP2 PUSH2 0x18DF JUMP JUMPDEST SWAP1 POP SWAP2 SWAP1 POP JUMP INVALID LOG2 PUSH5 0x6970667358 0x22 SLT KECCAK256 0x2F MLOAD 0xD7 0xA8 PUSH28 0xA599D3A39BC3AF081635A38FE0DCBD7C8DB45A8F90BE455353387B64 PUSH20 0x6F6C634300081800330000000000000000000000 "
				},
				"gasEstimates": {
					"creation": {
						"codeDepositCost": "1297000",
						"executionCost": "25612",
						"totalCost": "1322612"
					},
					"external": {
						"batchSendETH(address[],uint256[])": "infinite",
						"batchSendToken(address,address[],uint256[])": "infinite",
						"contractBalance()": "378",
						"owner()": "2571",
						"paused()": "2538",
						"sendETH(address)": "infinite",
						"sendToken(address,address,uint256)": "infinite",
						"setPaused(bool)": "infinite",
						"withdraw(uint256)": "infinite"
					}
				},
				"methodIdentifiers": {
					"batchSendETH(address[],uint256[])": "c76bd193",
					"batchSendToken(address,address[],uint256[])": "1560c8ab",
					"contractBalance()": "8b7afe2e",
					"owner()": "8da5cb5b",
					"paused()": "5c975abb",
					"sendETH(address)": "21b1e5f8",
					"sendToken(address,address,uint256)": "2fdcfbd2",
					"setPaused(bool)": "16c38b3c",
					"withdraw(uint256)": "2e1a7d4d"
				}
			},
			"storageLayout": {
				"storage": [
					{
						"astId": 14,
						"contract": "Challenge_03_Sender/Sender.sol:Sender",
						"label": "owner",
						"offset": 0,
						"slot": "0",
						"type": "t_address"
					},
					{
						"astId": 16,
						"contract": "Challenge_03_Sender/Sender.sol:Sender",
						"label": "paused",
						"offset": 20,
						"slot": "0",
						"type": "t_bool"
					}
				],
				"types": {
					"t_address": {
						"encoding": "inplace",
						"label": "address",
						"numberOfBytes": "20"
					},
					"t_bool": {
						"encoding": "inplace",
						"label": "bool",
						"numberOfBytes": "1"
					}
				}
			},
			"userdoc": {
				"kind": "user",
				"methods": {},
				"version": 1
			}
		}
	}
}